:020000040001F9
:10800000682E0020558101006F810100E1B101005F
:108010000000000000000000000000000000000060
:10802000000000000000000000000000738101005B
:108030000000000000000000758101007781010050
:108040007981010055BD01003DCB010025C0010033
:10805000A1C001000000000079810100218A010017
:108060007981010021C4010061C40100798101000E
:108070007981010079810100798101007981010014
:108080007981010079810100798101007981010004
:10809000C9C101007981010051C20100798101004B
:1080A00079810100798101000000000000000000DA
:1080B00000000000000000000000000000000000C0
:1080C0000348854600F07CFC0048004735E001008D
:1080D000682E0020401E00BF00BF00BF00BF00BFD1
:1080E00000BF00BF00BF00BF00BF00BF00BFF1D195
:1080F00070470000401E00BF00BF00BF00BF00BFB0
:1081000000BF00BF00BF00BF00BF00BF00BFF1D174
:1081100070470000401E00BF00BF00BF00BF00BF8F
:1081200000BF00BF00BF00BF00BF00BF00BFF1D154
:1081300070470000401E00BF00BF00BF00BF00BF6F
:1081400000BF00BF00BF00BF00BF00BF00BFF1D134
:10815000704700000321094802680A43026008488A
:1081600002680A4302600748804707480047FEE765
:10817000FEE7FEE7FEE7FEE7FEE70000240500401D
:10818000540500404DC30100C180010030B50B46CD
:10819000014600202022012409E00D46D5409D42E1
:1081A00005D31D469540491B254695404019154667
:1081B000521E002DF1DC30BD70B50024254600288C
:1081C00001DA01244042002901DA01254942FFF782
:1081D000DDFFAC4200D04042002C00D0494270BDCF
:1081E00003460B439B0703D009E008C9121F08C0D0
:1081F000042AFAD203E00B780370401C491C521E7B
:10820000F9D27047D2B201E00270401C491EFBD285
:1082100070470022F6E710B513460A460446194691
:10822000FFF7F0FF204610BD30B50446002003469E
:1082300000E05B1C934203D2E05CCD5C401BF8D0B5
:1082400030BDF8B502464A40D40F42004B005208F8
:108250005B089A4202D20246084611464A0023D0E1
:10826000C30D4A00DDB2120EAD1A202D35DA4902D7
:108270000126490AF6058A19002C00D05242202115
:108280004F1B1146B9402A411018C20D9A4221D005
:10829000002C17D0012D08DCDA05801AD20F8019C6
:1082A000D207DBB200F0F4FAF8BDDA05801A012338
:1082B00040001B06C01880185A428018CA0F10438D
:1082C000490007E04908C2071143DA05801A8019FE
:1082D0004008801800F0D4FAF8BD61000122511A5C
:1082E000001BF7E70122D2075140AAE70122D2077B
:1082F0005040A6E7024670B54A40D30FDB07400066
:108300002DD04A002AD0010E140E000212020919C3
:10831000400A520A8418E50104465443000A120A2E
:108320002E045043A4194219200CC543AA18120C5C
:108330000125AD03521C521912047F39240400D0C8
:10834000521C104301D44000491EC2B20C06C009A1
:108350002018401C4008802A02D003E0002070BD95
:1083600040084000002900DA0020184370BD70B5B5
:1083700002464A40D50F40004A00ED074008520827
:10838000002814D0002A12D0C40DD30D41020120C0
:10839000C0055202490A520AE41A091812187D341B
:1083A000914201D3641C00E04900002C01DA002056
:1083B00070BD0023914201D3891A0343400849004C
:1083C0000028F7D100290AD0914202D10121C90722
:1083D00005E0914201D2012101E00121C943E005FC
:1083E000C018401900F04CFA70BD0000F0B5074607
:1083F0000846584087B0C00F049048000E46590008
:1084000040084908BC1A884105D2384631461E4604
:1084100017460B4602465800400810434CD0300D1A
:10842000039040055900400D490D0590401A0290F7
:10843000402872DA18030121000B09050843019056
:1084400004980092002805D00199524200208841EA
:1084500000920190029840210A1A0199009800F0B8
:10846000DBF905460C466B4607CB00F0F6F9C01960
:108470007141039A0E0D0023D71756401A467A40D1
:10848000164344D0049A002A2DD0029A012A039A56
:1084900015DC1205C01A914101263605001C7141F8
:1084A000D20F059ED2070093019202962A462346D8
:1084B00000F034FA07B0F0BD38463146FAE7160549
:1084C000224A0F46B218C01AB74101210905001C03
:1084D0004F4100187F41114618187941E20F1043AF
:1084E0006D19644113E0E2076D0815436408C20783
:1084F0001443039A01261205C01A91413605001C47
:108500007141CE07400830434908C01851412A46FE
:10851000234600F0F6F9CDE7FFE70498012240007A
:10852000C117121A00238B4104983146C417381A18
:10853000A141EEE730B40124E407634030BC55E7C5
:1085400030B40124E407614030BC4FE70000E0FF95
:10855000F0B51FB488B00B990998002448400999D8
:10856000C00F490049080991C0070B9900904900C4
:1085700049080B9109990898A64608431CD00B9905
:108580000A98084318D0099801244000420D480079
:10859000410D099824050003000B204309900B9816
:1085A0000003000B20430B9050181C494018002278
:1085B00001901446104605E0002001460DB0F0BDC4
:1085C000032801DA034600E003239C46C11A0AAEE1
:1085D0000AE05F0008ADED5B4F00F75B7D430027CD
:1085E000AA187C41491C5B1E6145F2DD410004ABC9
:1085F0005A522104120C0A43240C401C0828DFDBC9
:10860000019802900099704601910090059B049A90
:108610000799069800F082F9D0E700000DFCFFFFF3
:10862000F0B50C465C4085B0E40FE40703944C00C1
:1086300000266408590094464908024602962243DF
:1086400021D062460A431ED06200570D4A000E0335
:108650002303550D012402462C492405781B1B0BCE
:10866000360B401823432643614600901C46501A9F
:10867000B44103D30098401C009002E09218009887
:108680005B41002803DA0020014605B0F0BD002060
:10869000012109050746864611E064461D46141B64
:1086A000B54106D36546521BB341744607430C439C
:1086B000A646CD0740084908284392185B41054665
:1086C0000D43EAD11046184313D060461946504076
:1086D0007140084306D06046101AB34106D2012209
:1086E000002306E000220123DB0702E00122D2433F
:1086F0005310009874460105381C6141029C039D8B
:108700000019694100F0FDF8BFE70000FD0300001B
:1087100010B500229623114600F0BAF810BD0000F3
:108720000EB505490291002100910A460B460191C0
:1087300000F0F4F803B000BD330400004100400233
:108740000122400AD205090E80187F2901DA002093
:108750007047962903DC9622511AC8407047963913
:10876000884070474A0009030123090B1B05194380
:10877000094B10B5520D9A4201DA002010BD064B8C
:1087800034339A4203DC9A1A00F056F810BD0349BC
:108790005118884010BD0000FF030000CDFBFFFF13
:1087A000C20FD207400040080BD0C10D0723DB01E8
:1087B000C91840020905400A1143C2084007114385
:1087C000704700200146704710B5002904DB0124E2
:1087D000E40740428C412146002B04DB1C46012368
:1087E000DB075242A3418B4200D1824210BD000000
:1087F0000122D207002800DB101A002900DB511AE1
:10880000814270470122D207002800DB101A00299C
:1088100000DB511A8842704710B5202A04DB01465C
:10882000203A9140002010BD914020239C1A03461D
:10883000E3401943904010BD10B5202A04DB0846E0
:10884000203AD040002110BD0B46D340D040202418
:10885000A21A91400843194610BD10B5202A06DB24
:10886000CB170846203A1041C1170B4306E00B46D0
:108870001341D0402024A21A91400843194610BD4C
:10888000002904DA401C490001D14008400070472B
:1088900070B40024050C05D11024000402D1002975
:1088A00021D01124050E01D100020834050F01D199
:1088B0000001241D850F01D18000A41C002801DBCC
:1088C0004000641C002908D020252E1B0D46F540D1
:1088D000A14000D001212943084301061B1B000AC7
:1088E000DB1D02D5002070BC7047DB05181880180E
:1088F0000029F8DA401C4900F5D170BC400840005E
:10890000704710B5002B08DA0024401C6141921812
:108910005B411A4301D14008400010BDF0B51FB4BF
:1089200082B005460C0003D0084604F0BBF902E013
:1089300004F0B8F920300246009021462846FFF79F
:108940006BFF049B059A04460F46184311430843E6
:1089500014D0184610431BD0009840210A1A18461C
:108960000599FFF769FF05460E46009A0599049898
:10897000FFF752FF084305D0012004E020463946A6
:1089800007B0F0BD0020C11705430E432C43374309
:1089900000990E986305401A7905E40A00220C43F9
:1089A000FD0A0A3002D500200146E9E70105101949
:1089B00069410C9C0D9D00196941FFF7A2FFDFE79B
:1089C000064C0125064E05E0E36807CC2B430C3C22
:1089D00098471034B442F7D3FFF776FB78140200BF
:1089E0009814020030B58C180278401C13071B0F36
:1089F00001D10378401C120906D10278401C03E023
:108A000005780D70401C491C5B1EF9D101E00B700C
:108A1000491C521EFBD1A142E6D3002030BD00000C
:108A200010B513480068002821D001201149486082
:108A30001148806884B2114909780901104A8818E0
:108A4000214603F077F90D490978481CC117490FF1
:108A50000918C910C900411A084A11701046007857
:108A600003F09CFD0449486000200149086010BDE6
:108A70000071004000700040007500403C20002064
:108A8000D42300208269521882617047F0B585B006
:108A9000044603F089FC039003F0E2F8002802D0BA
:108AA0002078002801D105B0F0BDC14802F024FCB7
:108AB0000A287DDCBE4802F01FFC0921C943884218
:108AC00076DBA088002805D160880A21484380B25F
:108AD00002900EE0B64802F002FCA18E4843074621
:108AE000B449FFF753FB61880A225143401880B212
:108AF00002904421029808533220005DA18D484322
:108B0000029988421BDC3220015D0298FFF754FB7A
:108B1000A18D401A5A21484307463020015D38464E
:108B2000FFF74AFB0A30C5B2642D01DD642004E082
:108B30000A2D01DA0A2000E0284605461EE0322010
:108B4000005DE18D48430299884216DC3220015DC8
:108B50000298FFF731FBE18D401A0A21484307468E
:108B60003120015D3846FFF727FBC5B20A2D01DD34
:108B70000A2000E02846054600E00025462005556D
:108B80002846FFF7C5FD0190E068FFF7C1FD0090A2
:108B90000199FFF7AFFB07468749FFF7E8FBA064A1
:108BA000A088002839D10021E06CFFF721FE00E009
:108BB000FBE02CD12420005D64281ADC2421085D10
:108BC000294608F091FA0F2813D803F0E7FB0A288A
:108BD0000FD82421095DE268514308466421FFF75C
:108BE000D5FA0746C821E068FFF7D0FA38182061A7
:108BF000C8E0A06CFFF7A2FD2061642322695A43FC
:108C00001046E168FFF7C2FAC5B22572BAE0E16C1E
:108C1000A06CFFF767FB2065B4E0E16CA06CFFF788
:108C200061FB6065A088FFF773FD07466349FFF7A6
:108C30009EFB0646A6630021206DFFF7D9FD4CD0B0
:108C4000206DFFF7ADFD4900490800225C4B019102
:108C50000090FFF7B9FD02D20020206522E05949BB
:108C60003046FFF747FB0746216DFFF7C1FD05D2F0
:108C700054493046FFF73EFB206513E00120C00752
:108C8000704007464F49FFF735FB0190216DFFF714
:108C9000B9FD07D20120C007704007464949FFF7D8
:108CA00029FB20654749206DFFF761FB07463146E8
:108CB000FFF71CFB20642069FFF72AFD0746216CA3
:108CC000FFF710FBE0643F49206DFFF750FB0746BC
:108CD000216DFFF70BFB206550E0606DFFF760FD35
:108CE000490049080022364B01910090FFF76CFDC6
:108CF00002D20020606522E032493046FFF7FAFADE
:108D00000746616DFFF774FD05D22E493046FFF727
:108D1000F1FA606513E00120C00770402949019015
:108D2000FFF7E8FA0746616DFFF76CFD07D20120F7
:108D3000C007704007462349FFF7DCFA60651E490B
:108D4000606DFFF714FB07463146FFF7CFFA20644A
:108D50002069FFF7DDFC0746216CFFF7C3FAE064EA
:108D60001549606DFFF703FBE0631349606DFFF782
:108D7000FEFA0746616DFFF7B9FA6065E06CFFF730
:108D8000DDFC2061104800F021F8074664222169CB
:108D9000514308463946FFF7F9F9C5B2642D01DDA4
:108DA000642000E028460546257200BF7BE60000EF
:108DB00008220020701700000000C8420000B443E1
:108DC00000005940000048424C2200200146C8687B
:108DD00070470146888870470146487F70470146C2
:108DE000887F704770B50446204600F011F80646AB
:108DF000064801F0C7FE46433C20464335467D21E8
:108E0000C9002846FFF7C2F980B270BD902100204A
:108E100070B504462078002801D1A08A70BDA088D2
:108E2000002805D1A0820021154802F07EFF25E030
:108E3000144802F071FF6421484306463C22216930
:108E4000514308463146FFF7A1F985B2FF202D3086
:108E5000854200DD00E0284605460948818828460D
:108E600008F042F9032804D92946054802F05DFFBD
:108E700004E02946024802F05DFFA082A08ACDE707
:108E8000B4200020BC2000200146087A704701462B
:108E90002220405C704701468A6D886980187047BF
:108EA000014608787047000010B504460021842070
:108EB00001518820015101202070222001550020FD
:108EC0002072FF2124200155FF20E230E0840020A1
:108ED0006080A0801A48E06000202061A064E06407
:108EE000A061A082002161852085E18530200155A7
:108EF000312001550D213220015590215C20015572
:108F000003215D200155A0215E20015515215F2020
:108F10000155C02160200155252161200155002106
:108F20007D20015580200151C8226421054802F0AE
:108F3000F6FE00220A21044802F0F1FE10BD0000F6
:108F4000D0FB0100B4200020BC20002070B50446F6
:108F50000D46002D05D10020A080054802F0E5FE59
:108F600004E0A5802946024802F0E4FE70BD00003E
:108F7000BC200020C180704724221154704700009B
:108F8000014A4A4382657047E02E000041807047E5
:108F9000F8B578480078030003F09BFE08C7057415
:108FA0009AC3C4C5C6C87348C08CFF21BD3188426E
:108FB0000AD07048C08CFF21E231884204D06D484D
:108FC000C08C6D49884204D1FF21733169484185C5
:108FD0002CE06848C08CFF21B13188420BD0654835
:108FE000C08CFF21D531884205D06248C08CFF215A
:108FF000F931884204D1FF2169315E48418515E08D
:109000005C48C08CFF21C93188420BD05948C08CC4
:10901000FF21EF31884205D05648C08C8521890058
:10902000884203D1FF217D31524841855149488D05
:10903000FFF76EFB06464F49C88CFFF769FB0746F2
:109040004E49FFF757F905463146FFF790F90446B8
:10905000FF209B3047490885FF214B3145488185DA
:10906000FF212D31C1855021283001721E2141720E
:1090700021464348FFF73EF90546FFF75FFB3D49B0
:10908000888653E03B49C88CFFF742FB06463B49C4
:10909000FFF730F905463B49FFF769F90446D72049
:1090A00034490885C82133484185C3218185A221DF
:1090B000C185142128300172212141722146324894
:1090C000FFF718F90546FFF739FB2A4988862DE096
:1090D0002849C88CFFF71CFB06462849FFF70AF908
:1090E00005462A49FFF743F90446FF206E3021491F
:1090F0000885FF2141311F484185FF212D318185A0
:10910000C821C18541212830017264214172214664
:109110001F48FFF7EFF80546FFF710FB1549888653
:1091200004E003E002E001E000E000BF00BF2046F1
:10913000FFF704FBC7B23846FFF7EAFA06462146B6
:10914000FFF7D4F805463F210906FFF75BFB08D877
:109150002046FFF7F3FA401CC1B20648283081725E
:1091600006E02046FFF7EAFAC1B2024828308172D1
:10917000F8BD00004C220020060200000000204143
:109180000000B84100004843000098410000A0439F
:1091900000002042FEB5044619212046623000F04E
:1091A0008BFA074638120190F8B200907B20015DDF
:1091B000019881427ED17C20015D00988142F9D1E5
:1091C0002220005D032802D0032122200155002126
:1091D000802001516721095D6622125D1202114350
:1091E00008460A21FEF7E8FF60806921095D6822D0
:1091F000125D1202114308B20A21FEF7DDFF06B22A
:10920000002E01DA704200E03046A0806B20005D45
:109210006A21095D0902084320843A4880780128C0
:1092200009D1218C6422514308464B21C900FEF725
:10923000ADFF85B20CE033488078022808D1218C3C
:10924000642251430846FF212D31FEF79FFF85B26E
:109250000A212846FEF7B0FF052906DB0A21284629
:10926000FEF7AAFF401C85B204E00A212846FEF75B
:10927000A3FF85B2E9B2244800F0FEFF6C20005D38
:1092800020726D20005D20776F20005D6E21095DEA
:10929000090208430A214843E0607320005D7221FF
:1092A000095D090208430A21484320617720005DD7
:1092B000762100E024E0095D09020843A0827820BD
:1092C000005D60777920005DA0777A20005D042141
:1092D00008402321085503F067F88821085123200E
:1092E000005D002803D002212220015502E0032165
:1092F000222001552078002801D00020207000BFD6
:10930000FEBD0000DE200020E821002010B504464C
:1093100003F04AF884210959401A7D21C900884286
:1093200007D3022002F052FE032002F041FE01208A
:1093300010BD0020FCE7000070B5044602F0EAFD15
:10934000032800D070BD2220005D012809D0222012
:10935000005D00280ED103F027F87D2149018842E5
:1093600008D3032002F032FE022002F021FE02F0B8
:1093700041FEE7E780200059322832D900217E20C3
:1093800001557D200155032002F020FE022002F04D
:109390000FFE02F02FFE8420005900280FD08420F9
:1093A000015988200059081A7D214901884206D9AF
:1093B0002078002803D1012122200155C2E720781E
:1093C000002809D02220005D00280AD102F0ECFF1D
:1093D0007D214901884204D200218020015184204E
:1093E000015102F0E1FF06468420005B301A85B28D
:1093F00002F090FD032811D18420005900280DD0DF
:10940000142D0BDD00217D2001557E20015502F039
:10941000F1FD80200059401C802108517D20C000B2
:10942000854218DB7D20005D002814D100217B20BF
:1094300001557C2001558420065102F0E7FD7D2076
:10944000015D005D401CC2B27D20025520465C30AB
:10945000405C0249C86100BF74E70000002500407D
:1094600010B5034601201870002058800B200321FE
:10947000052212070724240212198400115100BF8B
:1094800000F002F810BD00000B2001218140024ACB
:10949000D16000BF704700000005005000B50346D2
:1094A000187800280AD05888401C588058880D2801
:1094B00004DB002058801870FFF7E6FF00BD0000B5
:1094C0000B2001218140024A916000BF70470000DB
:1094D0000005005000B50346012018700020588098
:1094E000FFF7EEFF00BD1CB50446002004F058FA5B
:1094F0000122611C601C04F0FFF9601C04F0ACFA4E
:10950000002814D0EB2069460870481C04F0EEF9DE
:1095100000A8023004F05EFA062200A901310846D4
:1095200004F0EAF907226946052005F0FBF91CBDA5
:109530003EB50546EA200290681C04F041FA6846F0
:1095400004F048FA002405E06846005DFF2800D0DA
:1095500002E0641C052CF7DB00BF052C0CD10521B3
:10956000684604F041FA05236A1C6946684604F01F
:1095700083FA684604F05CFA012202A9052005F08E
:10958000D1F93EBD1CB5044661782078401C81426B
:1095900010D1EC2069460870052100A8013004F0C4
:1095A00023FA00A8013004F00BFA062269460520D0
:1095B00005F0B8F91CBD38B50446EF200090012035
:1095C00004F0EEF90E22611C601C04F095F9601C99
:1095D00004F042FA002802D0A01C04F0E7F90122AE
:1095E0006946052005F09EF938BD10B5044620787F
:1095F000E338030003F06DFB050D1115190420007D
:10960000204600F01DF8012001F0DEFD01F032FDE2
:1096100013E02046FFF78CFF0FE02046FFF763FFC3
:109620000BE02046FFF7AEFF07E02046FFF7C3FF41
:10963000012001F0CFFD00E000BF00BF10BD000021
:1096400010B50446022004F0ABF90622611C601C30
:1096500004F052F9072221460648FEF7C1FD601CBE
:1096600004F0FAF9002804D00522A11C0248FEF7F4
:10967000B7FD10BDC4200020ED2100201CB504461C
:10968000E72069460870481C04F030F9052221469D
:1096900000A80230FEF7A4FD022004F081F90622A2
:1096A00000A90131084604F027F907226946052080
:1096B00005F038F91CBD000030B502460B4600210C
:1096C000002000BF0AE00412555C6C406400054DA8
:1096D0002C5B05026C40A0B24C1CE1B29942F2DB5B
:1096E00030BD00000C1202000179F5290BDD0221CA
:1096F00081700121C1700021C173C1740175002204
:10970000C271027202E00179491C0171704710B503
:1097100002460B460020002103E0545C60404C1CD4
:10972000E1B29942F9DB10BDF8B5044600250026E8
:10973000DB484079C52808D10421601DFFF7E7FF09
:109740004106490E607A814200D0F8BDD5480078C4
:1097500032280FDAA179D34802780078401CD14B27
:109760001870D148815418460078322802DB002056
:1097700019460870A0792338030003F0AAFA190EDD
:10978000FC164D58FB7C97D5DF6470A4A9BFFAF98D
:10979000F8F7F6F5F4F3F2F1F000204600F09AF94C
:1097A000012801D00120A0706CE1207C617C8842FE
:1097B00003DA207CBD49087002E0607CBB49087078
:1097C000A07CBA490978884202DAA07CB7490870BF
:1097D000E079C001217A08430546B448007864283E
:1097E00011DA8020284000280DD06906490EAF4AC2
:1097F0001278514308466421FEF7DEFCC0B2802196
:109800000843207500E025750021204600F02CFD5E
:10981000204600F047FD35E10221204600F024FDFE
:109820000020E0742075204600F03CFD2AE1E0793C
:10983000C001227A1043C1B29D48FFF79DFB04206E
:1098400000F014FD1EE1E079C001227A10430146C8
:109850009748FFF795FB062000F008FD12E1E0793C
:10986000C001227A10430146924801F0DFF9072037
:1098700000F0FCFC06E18E48FFF712FB002811D037
:10988000E1794906480F002801D089490870E1793B
:109890000907490D227A11437D22D2005143844A9F
:1098A000D16000BF032000F0E1FCEBE0E079C001F3
:1098B000217A08437E49C8840846FFF769FB0520E2
:1098C00000F0D4FCDEE002217B4801F0E1FFD9E0AA
:1098D000E079C001217A084306463146764801F016
:1098E000D5FF754801F0F4FC022803D1032172482A
:1098F00001F0CEFF082000F0B9FCC3E003216E4860
:1099000001F0D7FC074639466B4801F0BFFF6A48B3
:1099100001F0DEFC022803D10321674801F0B8FF03
:10992000082000F0A3FCADE0E079C001217A0843F3
:109930005B490883012000F099FCA3E0E079C001B5
:10994000217A4906490E0843554948830846008B49
:1099500080030A46528B1043014658480CE090E0C1
:109960008BE086E081E07CE077E072E02AE025E0B1
:1099700020E007E036E038E001F040FA022000F095
:1099800075FC7FE001F000FC552812DAE079C00197
:10999000217A08434A490870484801F02CFA48499E
:1099A000097847183946454801F028FA0D2000F09B
:1099B0005DFC67E00E2000F059FC63E00F2000F032
:1099C00055FC5FE03F480078401C3E49087008465F
:1099D0000078022802DB394801F062FB102000F019
:1099E00045FC4FE0207AA0754CE0207C617C8842E9
:1099F00003DA207C2D49087002E0607C2B49087056
:109A0000A07C2A490978884202DAA07C274908709C
:109A1000E079C001217A084305462448007864288B
:109A200011DA8020284000280DD06906490E1F4A0F
:109A30001278514308466421FEF7BEFBC0B2802174
:109A40000843E07400E0E5740021204600F00CFCBF
:109A500018E0112000F00AFC14E0122000F006FCCF
:109A600010E0132000F002FC0CE0142000F0FEFBDC
:109A700008E0152000F0FAFB04E0162000F0F6FBE9
:109A800000E000BF00BF002020710021617220466D
:109A900000F04CF8204600F0CBFB00BF55E600007C
:109AA000E82100207220002064240020782000207B
:109AB0004C220020902100200822002004250020B4
:109AC0006E200020772000200146C87B70470146A9
:109AD000C87870470146887870470146087C70470F
:109AE00010B5044602F01CFA0020A0700120E070BE
:109AF0000020207060702071E073E0742075642095
:109B000020746074A07400206075A075E07300BFBD
:109B100006E00022611D0A54491D0A54411CC8B2C6
:109B20000528F6DB022002F043FA10BD70B50446AA
:109B3000C520A072204600F077FB082806D02046FA
:109B400000F072FB012802D13C20607593E02046B2
:109B500000F06AFB022802D13D2060758BE02046B0
:109B600000F062FB032802D13E20607583E02046AE
:109B700000F05AFB052802D13F2060757BE02046AB
:109B800000F052FB062802D14020607573E02046A9
:109B900000F04AFB072802D1412060756BE02046A7
:109BA00000F042FB09280FD1F74800784330607578
:109BB000F5490978481CC117890F091889108900CF
:109BC000411AF14A117056E0204600F02DFB04289E
:109BD00002D1472060754EE0204600F025FB0D289D
:109BE00002D14820607546E0204600F01DFB0E289B
:109BF00002D1492060753EE0204600F015FB0F2899
:109C000002D14A20607536E0204600F00DFB102896
:109C100002D14B2060752EE0204600F005FB112894
:109C200002D14C20607526E0204600F0FDFA122893
:109C300002D14D2060751EE0204600F0F5FA132891
:109C400002D14E20607516E0204600F0EDFA14288F
:109C500002D14F2060750EE0204600F0E5FA15288D
:109C600002D15020607506E0204600F0DDFA16288B
:109C700001D151206075607D030003F02AF8522A5B
:109C800038404850586068829CB6BEF1FBEEEDEC5F
:109C9000EBEAE9E8E7E6E5E4E3E2E1E0DFDEDDDC8C
:109CA000DBDBDBDBDBDBDBDBDBDBDBDBDBDBDBDB04
:109CB000DBDBDBDBDBDBDBDBDBDBDBDAD9D8D7D603
:109CC000D5DBD4D3D2D1D0CFCECDCCCBCAC9C8C7A7
:109CD000C6DB1C21E17201F0C3FF05461C35AB4811
:109CE00001F0FAFAC0010543A9490D8063E21D2184
:109CF000E172A64801F0FDFAA54908805BE21E2149
:109D0000E172A448FFF7C0F8A149088053E21F217F
:109D1000E172A048FFF7BBF89D4908804BE2202183
:109D2000E1729A4801F0DEFA9949088043E2212164
:109D3000E172964801F0D3FA954908803BE222216E
:109D4000E172924801F0C8FA9149088033E2232178
:109D5000E1729148007802F04FFC002804DD8E4843
:109D6000007802F049FC09E08B48007802F044FCDE
:109D700040424005400D0121C90240188449088035
:109D800019E22421E1728548007802F035FC0028B0
:109D900004DD8248007802F02FFC09E07F4800785B
:109DA00002F02AFC40424005400D0121C902401842
:109DB00077490880FFE12521E1727948007802F0B7
:109DC0001BFC002804DD7648007802F015FC09E051
:109DD0007348007802F010FC40424005400D01211C
:109DE000C90240186A490880E5E12621E1726D4800
:109DF00000F0C8FE66490880DDE12721E17269486C
:109E000000F0CAFE62490880D5E1C2E1B0E19EE1FE
:109E100091E17FE16DE167E15AE14DE143E13DE12F
:109E200033E129E11FE115E10FE109E103E1FDE083
:109E3000F7E0F1E0B9E1E7E0DEE0D5E0CCE0BDE05D
:109E4000B4E098E08FE086E07DE072E067E05EE0FD
:109E500055E048E03BE02BE020E015E00AE0FFE7BA
:109E60002821E1724F4800F091FE8000000C484923
:109E70000880A0E12921E1724A4800F087FE8004B1
:109E8000800C4349088096E12A21E172454800F0A0
:109E900080FE8000000C3E4908808CE12B21E1729D
:109EA000404800F076FE8004800C3949088082E149
:109EB0002C21E1723748FEF78FFF642105464D43A0
:109EC0003448FEF78CFF28183149088073E12D21B2
:109ED000E172344800F074FE05460A21FEF76CF981
:109EE0002B49088067E12E21E1722A48FEF7D3FF53
:109EF00005462D49FEF74AF9254908805BE12F21E7
:109F0000E1722448FEF76EFF2149088053E13021B9
:109F1000E1722048FEF77CFF1D4908804BE13121AA
:109F2000E172204800F03BFE8000000C18490880D8
:109F300041E13221E1721B4800F031FE8004800CC7
:109F40001349088037E13A21E1721248FEF741FFD8
:109F50000F4908802FE13B21E172124800F026FEF4
:109F60000B49088027E13C21E1720E4800F025FEF4
:109F7000074908801FE13D21E1720A4800F012FE06
:109F80000349088017E10000762000200822002005
:109F9000742000204C2200206A2000206B2000202A
:109FA0006C20002090210020E02E00003E21E17274
:109FB000964800F0FEFD96490880FCE03F21E172E2
:109FC00092484030407B6421484390494031897B2E
:109FD00040188F490880EEE04F21E172082002F01E
:109FE0000BFB8B490880E6E05021E172012002F072
:109FF00003FB87490880DEE05121E172052002F071
:10A00000FBFA83490880D6E05221E172042002F075
:10A01000F3FA7F490880CEE03321E17201206075B8
:10A02000C9E03421E17201206075C4E03521E1729C
:10A0300001206075BFE03621E17201206075BAE051
:10A040003921E17201206075B5E03821E17201200B
:10A050006075B0E04021E17200216E4801F029F9FD
:10A060006B490880A7E04121E1720121694801F0B4
:10A0700020F9674908809EE04221E172022165488B
:10A0800001F017F96249088095E04321E17203214C
:10A09000604801F00EF95E4908808CE03721E172DA
:10A0A0000120607587E04521E1725B4800785849DE
:10A0B0000880012060757EE04621E172574800F07B
:10A0C0009AFE8000000C524908800120607572E001
:10A0D0004721E172514800F08EFE8004800C4C490B
:10A0E00008800120607566E04821E17201206075FA
:10A0F00061E04921E1724A4801F099FDC5014848F3
:10A1000001F09EFD4006400E0543414805800120B8
:10A11000607550E04A21E172414801F094FD05016B
:10A120003F4801F08AFD0007000F054338490D80C4
:10A13000012060753FE04B21E172394801F07AFD62
:10A140008006800E324908800120607533E04C2182
:10A15000E172344801F06BFDC501324801F070FD39
:10A160004006400E05432A4805800120607522E024
:10A170004D21E1722B4801F066FD0501294801F0EF
:10A180005CFD0007000F054321490D80012060752B
:10A1900011E04E21E172234801F04CFD8006800E53
:10A1A0001B4908800120607505E04421E172002010
:10A1B0001749088000BF00BF154800888004410E81
:10A1C0002173134800784106490E6173042120462B
:10A1D0000A30FFF79CFA4106490EA1732046FFF7AB
:10A1E00079FC012803D101F03BFD002802D10020B9
:10A1F000607508E0607DC117C90E09184911490151
:10A20000411A491C617520460A3070BD902100201A
:10A2100074200020082200206E2000200425002049
:10A22000D6200020DE2000200146087F7047000075
:10A2300010B50446E07B012804D120460A30FFF720
:10A240001DFA0DE0E07B00280AD1207001F0DEFE4F
:10A250002178481C207020460A30405C0149C861C2
:10A2600010BD000000250040C1707047014908770B
:10A2700070470000E8210020642901DD642200E02D
:10A280000A4682747047642901DD642200E00A46B0
:10A2900042747047642901DD642200E00A460274BA
:10A2A0007047000010B50446207F022802D0207FAE
:10A2B000102811D1002221484168006801F0A2FC59
:10A2C00001211E4801F0A8FC1D491E4800F084FD34
:10A2D0000820FFF7CBFF27E0207F052803D10820C7
:10A2E000FFF7C4FF20E0207F042803D10820FFF7F8
:10A2F000BDFF19E0207F072803D10820FFF7B6FF34
:10A3000012E0207F162803D10820FFF7AFFF0BE0F3
:10A31000207F092808D0207F102805D1094800F0A7
:10A32000BFFE0820FFF7A2FF074800F0D1FF022878
:10A3300002D10920FFF79AFF10BD0000C8240020B9
:10A34000E4240020042500200822002000B587B066
:10A35000182205A101A8FDF743FF152101A800F06F
:10A3600051F907B000BD0000B56206090D000000FC
:10A370000000FFFF000000000000031DAB00000014
:10A3800000B58DB0342205A16846FDF729FF3421C0
:10A39000684600F037F90DB000BD0000B562063E1A
:10A3A0002C0000202005000810000100010101011F
:10A3B0000300010001010308100000000101050075
:10A3C00003000100010106080E0001000101000068
:10A3D00000B585B0142205A16846FDF701FF1221E2
:10A3E000684600F00FF905B000BD0000B562060236
:10A3F0000A00000000000000000000000000000053
:10A40000FEB504460D46164628A207CA6B4607C38A
:10A4100068468471C5710672C079062823D006DCAF
:10A4200002280BD0032810D0042838D114E00728C4
:10A4300027D009282CD0122831D11BE01E48408A91
:10A44000243081B21C48418229E01B48408A1830E0
:10A4500081B21948418222E01748408A1A3081B2FD
:10A46000154841821BE01448408A3C3081B21248B2
:10A47000418214E01048408A2C3081B20E4841825B
:10A480000DE00D48408A643081B20B48418206E0FD
:10A490000948408A1C3081B20748418200BF00BF92
:10A4A0000B21684600F0AEF8FEBD0000B562060163
:10A4B0000300000001000000D021002000B58BB097
:10A4C0002C2205A16846FDF78BFE2C21684600F082
:10A4D00099F80BB000BD0000B56206242400FFFF10
:10A4E000050300000000102700000500FA00FA0034
:10A4F00064002C01003C00000000C80000000000C7
:10A500000000000000B58DB0302205A101A8FDF7C4
:10A5100067FE302101A800F075F80DB000BD000005
:10A52000B5620623280002004C660000000000000F
:10A530000310000000000000000000000000000008
:10A5400000010000000000000000000000001906EB
:10A5500000B587B01C2205A16846FDF741FE1C210D
:10A56000684600F04FF807B000BD0000B562061E57
:10A5700014000000000001000000000000000A328A
:10A580000000994C00005A0000B587B01C2205A1BC
:10A590006846FDF725FE1C21684600F033F807B039
:10A5A00000BD0000B5620600140000000000840039
:10A5B0000000000000000300010002000000000095
:10A5C0001FB504A30FCB6C460FC40E21684600F0E4
:10A5D00019F81FBDB56206080600C800010000009A
:10A5E000000000000021818701604160017241721A
:10A5F000C160018241618161C16101844162816206
:10A6000081637047F8B504460D460026002000908F
:10A61000022708E0E05D8019C6B200988019C0B238
:10A620000090781CC7B2A81EB842F3DC2654691EFD
:10A63000009860542A462146422006F09DFCF8BD51
:10A64000F0B585B0054600200390029000260190E9
:10A65000009001E0701C86B2FE48805DB52801D0F4
:10A66000FA2EF7D3FA2E01D305B0F0BDF9488019C0
:10A67000F94908600021492041554A2041554B20A5
:10A68000405D002803DD4B20405D401E01E04B2073
:10A69000405DC1B24B20415550204653ED480078F3
:10A6A000B5281FD0EB48407862281BD04C20415D74
:10A6B000405D401CC2B24C204255052915DB0020EC
:10A6C000E64908600A2E03DB642003F089FE02E0FD
:10A6D0000120FDF70FFD0120E049086000214C201A
:10A6E000415502E000214C204155002641E2DA4864
:10A6F0000068805DB52878D1D7480168701C085C77
:10A700006228F8D1D4480168B01C085C0128F2D155
:10A71000D1480168F01C085CC01E030002F0D9FAA1
:10A72000070521280C13281A28004D20405D01211F
:10A7300008434D2148551BE04D20405D0221084350
:10A740004D21485514E04D20405D042108434D2122
:10A7500048550DE04D20405D082108434D214855E6
:10A7600006E04D20405D102108434D21485500BFB3
:10A7700000BFF4B2301DFF212D31884203DAB64804
:10A780000168301D0F5C002002900390A01C019016
:10A7900010E0B14801680198095C03980818C0B23C
:10A7A0000390029903984018C0B202900198401C8F
:10A7B00080B20190E019801D01998842E9DCE0191E
:10A7C000801DA5490968095C039881427ED1E01982
:10A7D000C01DA1490968095C02988142F6D19E48D2
:10A7E0000168E01C085CC01E00E0B8E1030002F054
:10A7F00070FA0705FDFC4879FCFBFC0096490A68E5
:10A8000021460E31515C944A126823460F33D25CC4
:10A8100012021143904A12685B1CD25C120411436D
:10A820008D4A12685B1CD25C1206114308467D21DA
:10A83000C900FDF7ABFCA86187490A6821461231BF
:10A84000515C854A126823461333D25C12021143CD
:10A85000814A12685B1CD25C120411437E4A126862
:10A860005B1CD25C1206114308467D21C900FDF72E
:10A870008DFCE8614E20405D012108434E21485582
:10A8800067E17548016820461E30085C72490A6815
:10A8900021461F31515C090208436F490A6821466D
:10A8A0002031515C090408436B490A682146213173
:10A8B000515C0906084368626748016820460E300B
:10A8C000085C65490A6821460F3100E042E1515CAD
:10A8D0000902084328864E20405D022108434E218C
:10A8E000485536E15C490A68A11D515C5A4A126814
:10A8F000E31DD25C12021143574A12685B1CD25C02
:10A9000012041143544A12685B1CD25C12061143B4
:10A9100008467D21C900FDF739FCE8624E48016810
:10A9200020461A30085C28724B48016820461D30CA
:10A93000085C68724848016820461E30085C464939
:10A940000A6821461F31515C0902084342490A68DE
:10A9500021462031515C090408433F490A682146D9
:10A960002131515C0906084328603B4801682046B4
:10A970002230085C38490A6821462331515C0902BB
:10A98000084335490A6821462431515C09040843CB
:10A9900031490A6821462531515C0906084368603F
:10A9A0002D490A6821464231515C2B4A12682346E0
:10A9B0004333D25C12021143274A12685B1CD25CFB
:10A9C00012041143244A12685B1CD25C1206114324
:10A9D00008460A21FDF7DAFB00901F490A68214664
:10A9E0004631515C1C4A02E061E0B1E09CE0126833
:10A9F00023464733D25C12021143174A12685B1C8C
:10AA0000D25C12041143144A12685B1CD25C120619
:10AA1000114308467D21C900FDF7CEFBE8600E49D1
:10AA20000A6821464A31515C0B4A126823464B336F
:10AA3000D25C12021143084A12685B1CD25C1204F9
:10AA40001143054A12685B1CD25C1206114308468A
:10AA50000A2105E0D82200202820002000450040DF
:10AA6000FDF794FBA8624548016820465230085C17
:10AA700042490A6821465331515C09020843288241
:10AA80004E20405D042108434E214855009881B274
:10AA90002846403001F04EF96861298E384A51430A
:10AAA000EA6A88183C21FDF771FB686351E033487E
:10AAB000016820460E30085C30490A6821460F3193
:10AAC000515C090208432D490A6821461031515C46
:10AAD0000904084329490A6821461131515C0906D5
:10AAE0000843A8872548016820461630085C23499A
:10AAF0000A6821461731515C090208431F490A6858
:10AB000021461831515C090408431C490A68214652
:10AB10001931515C09060843A8634E20405D0821A5
:10AB200008434E21485514E04E20405D1021084353
:10AB30004E2148551148016820460A30085C0F49EB
:10AB40000A6821460B31515C09020843288400E061
:10AB500000BF00BF38460830301886B201E0701CD4
:10AB600086B25220415B5020405B0818B04200DCA6
:10AB700000E0BCE500BF00BF76E500002820002013
:10AB8000803A09000146888A80B2704701464868C9
:10AB900070470146086870470146487A7047014689
:10ABA000486B70470146888C80B270470146088A1E
:10ABB00070470146088D80B270470146087E704795
:10ABC0000146888FCA8F801880B2704770B50446DE
:10ABD0000D460D488078022188430B49887008464D
:10ABE000807840084000401C88701D2008701C20A0
:10ABF0004870084606F014F9044801F0C3FB2946E2
:10AC0000204600F017F870BD232000208A020000C3
:10AC10001CB504A103C90191009008216846FFF703
:10AC2000F1FC1CBDB5620110000011340A224A4338
:10AC3000C287704770B504460D4600214820015573
:10AC4000492001554A200155502001534C200155FF
:10AC500052200153542001554B2001554D200155E0
:10AC60004E2001551B48E06220862046FFF7BAFCC3
:10AC7000002202212046403001F051F8FFF780FB0E
:10AC8000FFF7A6FBFFF71AFCFFF73CFCFFF760FCA1
:10AC9000FFF796FCFFF778FCE807C00F002801D00B
:10ACA000FFF7B6FF012209211046FFF7A9FB012299
:10ACB00007211046FFF7A4FB012203211046FFF7EE
:10ACC0009FFB012206211046FFF79AFBFFF73EFB90
:10ACD00070BD0000E703000038B504464A20005D5F
:10ACE000642806DA4A20005D401CC1B24A200155A2
:10ACF00002E0FF20607238BD4820005D002806D0C9
:10AD000001283AD0022848D0032859D152E0FD202A
:10AD10002D49087002202D4B01220090422006F0A0
:10AD20006BF92A4841785220005B814223DC48209D
:10AD3000005D401CC1B2482001554920005D052836
:10AD400005DA4920005D401CC1B249200155492067
:10AD5000005D022804DD00214D2001554E200155E3
:10AD600000215420015501F01FFB19490860FF2004
:10AD70001549087000E023E000BF5220005D154B2C
:10AD8000012211490090422006F036F94820005D6A
:10AD9000401CC1B24820015512E001F005FB0C49EE
:10ADA0000968401AC82804D90021542001554820B8
:10ADB000015505E00021542001554820015500BFF0
:10ADC00000BF00BF97E700003020002031200020A6
:10ADD0002C200020D8220020C0220A70C1224A70F4
:10ADE000C2681202120E8A7082891204120ECA7090
:10ADF000027B0A7170470146C8687047C16070479E
:10AE000070B505460C462078C0280CD16078C12862
:10AE100009D1A0780004E1780902084321790843A8
:10AE2000E860012070BD0A4801680A48FFF7E6FFA4
:10AE3000002209484168006800F0E4FE012106484C
:10AE400000F0EAFE05490348FFF7C6FF0020E9E7E6
:10AE50001020002004250020C8240020E424002025
:10AE6000E121890041800121017102214171032109
:10AE700081710021C1710121017204210170054914
:10AE8000C1607721017400218182C17681760177CA
:10AE9000704700003930000070B50446552C02D2CE
:10AEA0002546643500E0254603212046FDF76EF96E
:10AEB00001293AD14B212846FDF768F9891C5C48E5
:10AEC00001702D212846FDF761F9891C5848417011
:10AED000407857490978884206D146212846FDF72F
:10AEE00055F9891C5248417038212846FDF74EF922
:10AEF000891C4F48817080784D490978884206D175
:10AF00003C212846FDF742F9891C49488170484890
:10AF1000807847494978884206D132212846FDF792
:10AF200035F9891C4248817080E003212046FDF7F5
:10AF30002DF900293AD147212846FDF727F9891C28
:10AF40003B48017037212846FDF720F9891C384815
:10AF50004170407836490978884206D14421284614
:10AF6000FDF714F9891C3248417032212846FDF75B
:10AF70000DF9891C2E48817080782D490978884206
:10AF800006D11F212846FDF701F9891C2848817048
:10AF90002748807826494978884247D12E2128467B
:10AFA000FDF7F4F8891C224881703FE00321204618
:10AFB000FDF7ECF8022939D143212846FDF7E6F8E0
:10AFC000891C1B4801702E212846FDF7DFF8891CDB
:10AFD00017484170407816490978884206D13421D3
:10AFE0002846FDF7D3F8891C1148417027212846CF
:10AFF000FDF7CCF8891C0E48817080780C490978DF
:10B00000884206D111212846FDF7C0F8891C08485E
:10B0100081700748807806494978884206D11B210B
:10B020002846FDF7B3F8891C0148817070BD000007
:10B03000A620002000B50D48C07B012815D10C4882
:10B04000808A642805DA0A48808A401C0849888278
:10B050000BE0002000F0B8F80020044988700120BF
:10B06000C8700020C873C874087500BDE8210020AE
:10B070000425002000200149888270470425002013
:10B0800010B503F0ABFC00BF03F0B6FD0028FBD108
:10B09000012001F02DFE0A2001F02AFE10BD000063
:10B0A00010B50446E068FFF7F7FE207903F010FDC5
:10B0B000E06803F0BFFD217C052003F0A5FDE079E9
:10B0C00003F03EFE207A03F0EDFD608803F018FEE9
:10B0D000A179064803F0BEFD607903F021FE20202F
:10B0E00003F0FEFD03F086FC10BD0000A62000204A
:10B0F00010B50E480078282800DD10BD0B480078F8
:10B10000401C0A4908700846007814280BDD0848DE
:10B11000C07E002807D1322008700120044908773A
:10B12000084600F007F800BFE7E70000AF20002066
:10B130000425002010B504461148FFF7ADFE207924
:10B1400003F0C6FC0E4803F075FD217C052003F0DA
:10B150005BFD062003F0F4FD207A03F0A3FD608878
:10B1600003F0CEFDA179074803F074FD607903F088
:10B17000D7FD202003F0B4FD03F03CFC10BD00001F
:10B18000FEFEFEFEA62000200148407F7047000022
:10B190000425002010B50A48007F01280ED1094877
:10B1A0000088401C0749088008460088A62805DD5D
:10B1B0000020034908770846FFF772FF10BD000022
:10B1C00004250020B02000200149C8767047000007
:10B1D00004250020014988767047000004250020DE
:10B1E00000BFFEE770B505460C46E88D00122070E2
:10B1F0002E20405D6070288E0012A0703020405DCF
:10B20000E070688E001220713220405D6071A88E5F
:10B210000012A0713420405DE0710821204600F04A
:10B220002DF8207270BD70B505460C4608212046E9
:10B2300000F024F8217A884218D120780002617841
:10B240000843E885A0780002E17801432986207947
:10B250000002617901436986A0790002E179014326
:10B26000A986012136204155012070BD02213620DA
:10B2700041550920FEF7FAFF0020F6E710B5024617
:10B280000B460020002103E0545C60404C1CE1B2FE
:10B290009942F9DB10BD428B8A434283428B002ADC
:10B2A00006D1428B0123DB031A4342830022C2638F
:10B2B00070470246002901D1D08D7047012901D184
:10B2C000108EFAE7022901D1508EF6E7908EF4E74E
:10B2D00001463620405C70470146488B7047014666
:10B2E000088C70470146C88B80B270470146087FC2
:10B2F00070470146488C704701462A20085E704717
:10B3000070B50446002500F0BFFF0020207060608B
:10B31000A0602073E0752076E063206460830021E4
:10B320002177E18321846184A184E1842185002245
:10B3300005210A4800F0F3FC00BF07E00021204689
:10B340000D304155401D4155681CC5B2052DF5DB3A
:10B3500000224021204600F003F870BD7C20002030
:10B3600037B504460D462046FFF7B6FF0121C90355
:10B37000084000280CD0CA2060736821A173002106
:10B38000E1732174608B0121C903884360837AE0F3
:10B390003620005D04281FD0CA2060733620005D6F
:10B3A000012803D03620005D03280BD17321A1733F
:10B3B000A08E8004410EE1733420005D4106490EE9
:10B3C000217460E03620005D02285CD17021A173F9
:10B3D0000021E173217456E03948FEF778FB01281B
:10B3E00012D02046FFF782FF01280DD001F05EF950
:10B3F000012809D03348FDF74AFD012804D031481F
:10B40000FDF745FD02280AD1CA2060734221A173CD
:10B410000021E173217468460189A18533E0284841
:10B42000FEF755FB02280BD1CA2060734021A1739F
:10B430000121E1730021217468460189A18522E080
:10B440001F48FEF744FB002813D1207F022810D1AB
:10B45000CA206073A573684600898004410EE173B9
:10B46000684600894106490E217468460189A18514
:10B4700009E0CA2060734221A1730021E1732174A5
:10B4800068460189A185042120460D30FFF7F6FEAC
:10B490004106490E6174E07D232806DAE07D401CF8
:10B4A000E075207E401C207607E00121204600F058
:10B4B000F2F90021204600F0F2F920460D303EBDA1
:10B4C000E82100204C22002070B50446A07CC5284D
:10B4D00009D1042120461230FFF7D0FE4106490E63
:10B4E000A07D814200D070BD3620005D032814D1BC
:10B4F000E07C302811DAD949D948FFF773FE0122E0
:10B50000D848C168806800F07DFB0121D54800F073
:10B5100083FB04213620015506E03620005D01281A
:10B5200002D1042136200155E07C002820D1207D65
:10B53000C001617D08436083608B042108400028BE
:10B540000CD000F02BFF0A2804D804212046FFF776
:10B55000A2FE03E01921C448FEF79CFE608B002880
:10B5600005D0E06B002802D100F01EFFE0634CE143
:10B57000E07C19281BD1BD4800688010BB490968D0
:10B58000091A207DC0010918607D0818B7490860B4
:10B5900008460068801001B2E1842622A25E0A21DA
:10B5A0004A43D117890E89188911E1842DE1E07C85
:10B5B00011281BD1AE4800688010AD490968091AEE
:10B5C000207DC0010918607D0818A9490860084657
:10B5D0000068801001B221852822A25E0A214A4318
:10B5E000D117890E8918891121850EE1E07C1D286B
:10B5F0006DD1207DC001617D08430546608C00B29D
:10B600009C49088029469C4800F094FB6084608C2B
:10B6100098490988401A01B2618500F0BFFE0A28E6
:10B620001CD9FF20A530854218DA8F48FEF755FA5D
:10B63000192813D02946FF392D394B22514308468A
:10B640001E21FCF7B9FD193086B28748FEF745FA8E
:10B65000B04203DDF1B28448FEF71CFE8748FDF7D7
:10B660001FFC002803D0618C8448FDF78FFC204626
:10B67000FFF732FE02210840002810D0608C912193
:10B68000890088420BDC00F08FFEE16B401A7C4998
:10B69000884204D902212046FFF7FDFD16E020462E
:10B6A000FFF71AFE0421084000280FD0608CFF210C
:10B6B000A53188420ADB00F077FEE16B401A704941
:10B6C000884203D904212046FFF7E5FD9DE0E07C98
:10B6D0001E2819D1207DC001617D08430546A5843F
:10B6E000142D07DD00F060FE216C461A31466348D8
:10B6F000FDF7C8F96148FDF7D3FB002803D02946C0
:10B700005E48FDF723FC80E0E07C202805D1207D09
:10B71000C001617D0843E08377E0E07C21280FD100
:10B72000207DC001617D0843054625845348FDF70F
:10B73000B7FB002803D0218C5048FDF71BFC64E0C8
:10B74000E07C302806D1217DC901627D1143084685
:10B75000E0855AE0E07C312806D1217DC901627D77
:10B7600011430846208650E0E07C322806D1217D36
:10B77000C901627D11430846608646E0E07C0828E6
:10B780000AD1207DC001617D0843054625872946F1
:10B79000082000F095FF38E0E07C33280ED1207DB2
:10B7A000C001617D084305466906490E354800F031
:10B7B00053FAE911334800F049FA26E0E07C3428D6
:10B7C0000ED1207DC001617D0843054629112D4819
:10B7D00000F044FA2907090F2A4800F03BFA14E068
:10B7E000E07C352811D1207DC001617D08430546EC
:10B7F000A906890E234800F02BFAA906890E2248D3
:10B8000000F026FA00F092FE00BF2046FFF764FD2C
:10B81000002804D00121204600F041F808E020462D
:10B82000FFF764FD022803D00221204600F037F81C
:10B830000020E075207E401E20762046FFF74CFD5C
:10B84000C007C00F002803D001212046FFF723FDC9
:10B8500000F0AAFD206400BF45E60000E4240020BB
:10B8600008220020C8240020E82100208420002095
:10B87000882000208C2000207C2000204C220020EA
:10B8800010270000D6200020DE200020818670478F
:10B89000362211547047428B0A4342837047017726
:10B8A000012902D100230384C383704710B50446E5
:10B8B000234612335A1F0521204600F02DFD10BDEE
:10B8C00010B502F00FFD10BDF7B5074600240120AA
:10B8D0002E490004154688602D4EB078002802D00D
:10B8E0002C48FFF7EDFF002F02D12B48FFF7E8FFB0
:10B8F0007068002802D02948FFF7E2FF28467760E9
:10B900000127274D002820D0012828D0022824D044
:10B910002448FFF7D5FF2448B77000210160019942
:10B92000611889B229602E6820494F606D680068EF
:10B93000002802D01E48FFF7C3FFA64211D3A5423C
:10B9400001D3B5421CD31B4818E0184847606C6807
:10B950000760154900200860DDE7AC68DBE72C686C
:10B96000D9E7B54201D2012000E00020AC4201D865
:10B97000012100E00021884202D10F48FFF7A0FF1B
:10B98000012002490004486003B0F0BD00A300405C
:10B990006C21002073000400750004007600040090
:10B9A00040A500408900040040A1004040A00040A4
:10B9B0009B000400B0000400C900040010B50A4A4E
:10B9C00000210A4800F074F807490948FFF718FAFF
:10B9D000054A01210548083000F06AF80249054887
:10B9E000FFF721FC10BD0000F4240020C824002033
:10B9F0000425002008220020F8B506460F4615460B
:10BA0000002D06D00F218901304604F075FC044654
:10BA100004E01021304604F06FFC0446002C03D1F2
:10BA200000200649087001E02046F8BD00BF034829
:10BA300000780028FBD00020F7E7000098200020C5
:10BA40001CB500201749487604F0FCFC0446002C85
:10BA500001D020461CBD1021684681803C21C18058
:10BA6000114800901149684604F0AEFD04460D4AA5
:10BA700000210E4804F0EEFB0446002C01D02046C5
:10BA8000E8E7084A08320121084804F0E3FB0446CD
:10BA9000002C01D02046DDE7002C01D02046D9E75C
:10BAA0000020D7E7C8240020190202009C200020B3
:10BAB000F8B504460F4615460023102221462846B5
:10BAC00004F004FD0646002E02D10349087001E08F
:10BAD0003046F8BD0020FCE79820002010B52C4827
:10BAE00000F08CF8002852D02A480078002826D18F
:10BAF000012028490870FFF7C3FA0720002815DB4A
:10BB0000C206D20E01219140234A116000BF00BF3E
:10BB100000BFBFF34F8F00BF00BF00BF00BF00BF1B
:10BB200000BFBFF36F8F00BF00BF00BF00BF01F0B9
:10BB300083FB1748017E00221030FFF75DFF174896
:10BB40000078012823D100201249087000211048F4
:10BB500000F062F80E48017E114A103000F026F81D
:10BB60000B48017E0F4A1030FFF7A2FF04F0C8FE19
:10BB70000D48FFF795FA0720002806DBC206D20E13
:10BB800001219140044A803A116000BF00BF10BDFE
:10BB9000C8240020A420002080E100E0982000209C
:10BBA000E4240020F424002004250020F8B50546F4
:10BBB0000E461746B1B22A460E4804F04BFB044627
:10BBC000002C01D02046F8BD00231022394628461B
:10BBD00004F086FD0446002C02D10749087001E0FC
:10BBE0002046F0E700BF044800780028FBD020463C
:10BBF000E9E700009C200020982000200146487EB4
:10BC00007047000007B50348019B0099016143613B
:10BC100002760EBDC82400204176704730B5049DE1
:10BC2000039C0170427083708480857130BD014631
:10BC30004878704701468878704701468879704790
:10BC40000146087870470146888870474170704700
:10BC500081707047817170470170704781807047B3
:10BC600001480078704700009020002010B50021A6
:10BC7000072002F02FFE072002F011FE10BD000089
:10BC800070B51F480078002800D070BD00F08CFB14
:10BC90001C490968441A1C49498C1C4A1288891A93
:10BCA0007D22D200514308462146FCF76FFA054633
:10BCB0001548408C1549088000F076FB1149086052
:10BCC000022D1AD81048408CFF212D31884214DBF8
:10BCD0000121072002F0FEFD02210B48FFF7DFFDE6
:10BCE0000120074908700A480078012805D1094851
:10BCF000FDF7F0FB00200649087000BFC5E7000013
:10BD00009020002094200020082200209220002073
:10BD100091200020D2200020014688887047C180F1
:10BD2000828013464B4303607047C2884A430260D7
:10BD30008180704770B504460D46A1882068401A7E
:10BD400040192060E1882068FCF720FAA080A088D4
:10BD500070BD0000F8B55F4C20696778401C206119
:10BD6000607D002802D05C48FFF7AAFD20462278BB
:10BD70005A4D00245A495B4E032A3FD1CA68002A13
:10BD80003CD0012F03D0022F2FD057489EE007460A
:10BD90000069032802D05548FFF792FD0220387051
:10BDA000B969491CB96152490C60C11EA960514969
:10BDB00008604B48C46004600461446003217970EA
:10BDC0007C603C753268117D00290AD04A498B6835
:10BDD000BB75C461494B01209861494B04209860B0
:10BDE0008C60D06800283AD1F8BD0069012802D0E3
:10BDF0004448FFF765FD03F067FDF8BD032F64D0ED
:10BE0000012F2ED0022FF6D042783F4B1201D218CC
:10BE1000137B0027002B03D0CB68002B00D0012719
:10BE2000927A334B02701C60032A48D00022D2431E
:10BE3000AA60304B02221A60CC60032242700C6070
:10BE40000C614C604460047530680069002800D0C3
:10BE50008047002FD1D0306880680028CDD080473F
:10BE6000F8BD0269012A18D0022AF9D1CC600C6110
:10BE70000C601F490C60111FA96008216960032133
:10BE800001704460047530680069002800D0804764
:10BE9000306880680028E2D1F8BD0C604C60002159
:10BEA000C943A960012169603168097D002902D078
:10BEB000134A042151601549C0684860F8BD082242
:10BEC000D243AA6008226A60B9E71148FFF7F8FC7C
:10BED000F8BD00005427002090010A000013004024
:10BEE0000011004074210020A9010A009F010A00EE
:10BEF0000012004080E200E04015004000100040C9
:10BF000000F50140A4010A00481402000015004099
:10BF1000D6010A000148007870470000D1200020B7
:10BF200010B5082002F0C4FC0A2003218A00C306D1
:10BF3000072424021B1984001A5100BF092002F0B3
:10BF4000B7FC08201449C8600A20486180201349C2
:10BF500048600420486000200F494031C862104802
:10BF60000D4948620420086001200E49886008607D
:10BF700000200D4988600121022000F0C5FF022049
:10BF8000002805DBC206D20E01219140074A11604C
:10BF900000BF00F02FF810BD002500400023004036
:10BFA00000509D00002000400021004000E100E022
:10BFB000014605480078012802D10348017001E0DC
:10BFC000002070470120FCE7D120002001460848EE
:10BFD0000078012800D1704705480078884203D1D5
:10BFE0000120034A107001E00020F4E70120F2E78D
:10BFF000D120002010B50021092002F07FFC012093
:10C000000149C860086010BD0020004010B5012043
:10C010000349886048600121092002F06FFC10BDCF
:10C020000020004010B51B488068002831D01A4815
:10C030008069C4B219488068002804D01748806815
:10C0400016490978445415480078401C1349087073
:10C0500008460078097B884209D100200F49087002
:10C06000172002F02FFC0D48FFF72EFA0EE00B48C8
:10C070004068002807D00948406808490978405CB2
:10C080000549C86102E000200349C8610020014958
:10C09000886010BD003100400035004008220020BB
:10C0A00010B53D48C069002824D000203A49C86135
:10C0B0003A48007800280FD039480068007839499C
:10C0C000C86137480068401C35490860334800782B
:10C0D000401E324908700DE033480078002803D133
:10C0E00001203249486105E02020314948600120A3
:10C0F0002E49086028484068002807D000202649BB
:10C10000486001202B4908702B490870224880683C
:10C11000002833D0002020498860224880692749C0
:10C120000968087025480068401C244908602448B4
:10C13000007D401CC1B2224801751B480078401E9A
:10C14000C0B219490870012806D1184914311D4898
:10C15000512212018018C16213480078002803DDC3
:10C1600001201249086209E01548007A022805D129
:10C170000321134801724038FEF762FA0648406A0C
:10C18000002808D0002004494862012009490870AD
:10C1900000200949087010BD004100401620002011
:10C1A00018200020004500401720002000400040DB
:10C1B00000F5014020200020212000201C2000202C
:10C1C000D021002000F00140F8B5204D2C468034ED
:10C1D000012080F310886068002832D020680C218C
:10C1E000484340190279310A090211434279FF2379
:10C1F0001B02120299431A40114382791B02120456
:10C2000099431A401143C2790E02360A11060E43B1
:10C2100081688289C08997B2000407436068401E24
:10C2200060602068401C206020680A2801D300203C
:10C230002060002080F310882B683A4630469847EB
:10C24000C6E7002080F31088F8BD000078270020A2
:10C2500070B50C480068002810D00A480068804774
:10C26000044600BF2546002D06D000BF002211461F
:10C27000284600F095FE00BF00BF01E001F044FC3D
:10C2800070BD00001C21002010B5172002F0FEFA3E
:10C29000192002F0FBFA162002F0F8FA182000210B
:10C2A0008A0005231B07072424021B1984001A5146
:10C2B00000BF1920134988601620C8601820086143
:10C2C000172002F0FFFA10480E49486202200D497B
:10C2D0004031486100200D49886004200C494860C5
:10C2E0000121032000F0D4FD0320002805DBC20655
:10C2F000D20E01219140074A116000BF012001497F
:10C30000086010BD00350040CDCCCC0000310040AD
:10C310000033004000E100E070B517240125A5407E
:10C32000074EF56000BF4260836001730024047013
:10C33000044DAC6005784468645D034DEC6170BDEC
:10C3400000050050003100400035004010B501F0FC
:10C3500055FC002805D0074807494860C81307491D
:10C36000886101F02FFC002802D001200449886078
:10C3700010BD0000DFFF07C000050040006C00405A
:10C380000006004001B500F00FF8014600BF00F0C4
:10C390000BF8401A009A9042F9D308BD0148006892
:10C3A00070470000342000200148006870470000FA
:10C3B0003820002010B5012014494860002014499D
:10C3C0004860022088600420086101200F49C8608D
:10C3D0007D20C0000E4940310860012000040D4955
:10C3E000486001200C4908600121092000F0D8FCB8
:10C3F0000920002805DBC206D20E01219140074A20
:10C40000116000BF01200149086010BD009000408C
:10C4100000950040009300400092004000E100E0E1
:10C4200010B50C480068002813D0002009490860A6
:10C4300009480468611C0246116020467D21C9003C
:10C44000FBF7A4FE002904D104480068401C0349FE
:10C45000086010BD409100403820002034200020AA
:10C4600070B5012013490004886013480025056059
:10C47000124C6068002802D11148FFF721FAA5701C
:10C48000636810480122656042600F484168006897
:10C4900095031430A94205D20325AD03A84201D962
:10C4A000627005E0814201D3012000E0002060704D
:10C4B000984770BD00A3004040A100406C210020BF
:10C4C000EC00040040A0004040A50040F8B505463F
:10C4D000002422E060001349085AA8421BDD601CBA
:10C4E0004000085AA84216DC62000B469B5A621CA8
:10C4F00052000F46BA5A991A62003B469A5A521B8A
:10C5000064235A431046FBF757FE642161434018E9
:10C5100006B23046F8BD601CC4B2102CDADB02480B
:10C52000F8E70000402000200CFEFFFF154880784F
:10C53000012811D14B2000011349088008460088CA
:10C540006438124908801248124908800846008859
:10C5500064381149088013E00A48807802280FD116
:10C560000B48094908800846008864380749088054
:10C57000074808490880084600886438064908804A
:10C5800070470000DE200020622000206420002090
:10C590001A040000662000206820002000B5014633
:10C5A0006A200B0000F095FB0805090D1115191DF7
:10C5B00021250122520210431BE0012212031043E5
:10C5C00017E001225203104313E0012292031043AB
:10C5D0000FE00122D20310430BE00122D2021043EC
:10C5E00007E001229202104303E0FF2201321043D0
:10C5F00000BF00BF00BD000001460801024A8218CA
:10C600000820105E70470000D423002010B50020E1
:10C610001D49087002201D49087003201C4908703C
:10C6200001201C4948600221072000F0F5FB07208B
:10C63000002805DBC206D20E01219140164A116086
:10C6400000BF16480078FFF7A9FF15494860012090
:10C65000086000201349086000F03AF800240DE05B
:10C660002101114A881800220121FFF758FB64209C
:10C6700021010D4A89188872601CC4B2082CEFDBB6
:10C68000FFF754FF10BD00006A2000206B2000203F
:10C690006C2000200073004000E100E03C200020FE
:10C6A0000075004000710040D4230020034800784A
:10C6B000002801D0012070470020FCE73D20002029
:10C6C0000201024BD218118170470000D4230020D0
:10C6D000012001490860704700700040F0B587B044
:10C6E00000240BE02101FE4A89188888FFF7EEFE3E
:10C6F0002101FB4A89180881601CC4B2042CF1DBBB
:10C7000004242EE02001F64940188088F54988422B
:10C7100005DD00202101F24A891808811FE021016E
:10C72000EF4A89188888FBF7FBFF0546EE4AEF4B76
:10C73000FBF706FF0022EE4B01910090FBF708FF8C
:10C74000EC4AED4B03910290FBF76AFF05910490D0
:10C75000FCF708F800B22101E14A89180881601C41
:10C76000C4B2062CCEDBDE4960318988FF224D320F
:10C77000514308460521C902FBF71EFD81B2D84886
:10C7800060308181014610318988FF226C3251432B
:10C7900008460521C902FBF70FFD81B2D048703071
:10C7A0008181D64800780001CD4941180820085EF3
:10C7B000D3490988884213DCD248007840084000F9
:10C7C000D0490870D048007840084000CE49087031
:10C7D0006420CA4909780901C14A8918887245E06C
:10C7E000C64800780001BE4941180820085EC449C7
:10C7F0000988884234DDC14800780001B8494118F1
:10C800000820085EC1490988884229DCBD480078B3
:10C8100001210843BB490870BB480078400840002C
:10C82000B9490870B54800780001AD494018007A50
:10C83000B6490978081AC7B2642F01DD642000E008
:10C84000384607460A213846FBF7B6FC4100401837
:10C850004630AA4909780901A14A8918887205E079
:10C86000A948007801210843A7490870A848007822
:10C8700000019B4941180820085EA64909888842A2
:10C8800013DCA0480078022188439E4908709E4826
:10C890000078022188439C49087064209C490978EB
:10C8A00009018F4A8918887245E09948007800018B
:10C8B0008B4941180820085E96490988884234DD72
:10C8C000934800780001864941180820085E924983
:10C8D0000988884229DC8B4800780221084389496D
:10C8E0000870894800780221884387490870884881
:10C8F000007800017A494018007A87490978081AB7
:10C90000C7B2642F01DD642000E0384607460A21E3
:10C910003846FBF751FC4100401846307C49097805
:10C9200009016F4A8918887205E07748007802216A
:10C930000843754908707948007800016849411832
:10C940000820085E73490988884213DC6D48007826
:10C95000042188436B4908706B48007804218843A0
:10C960006949087064206D49097809015C4A891891
:10C97000887245E06948007800015949411808204B
:10C98000085E64490988884234DD64480078000103
:10C99000534941180820085E5F490988884229DC0C
:10C9A00058480078042108435649087056480078D2
:10C9B00004218843544908705848007800014849C8
:10C9C0004018007A54490978081AC7B2642F01DD6B
:10C9D000642000E0384607460A213846FBF7ECFBA6
:10C9E0004100401846304D49097809013C4A8918F0
:10C9F000887205E0444800780421084342490870E1
:10CA000040480078002869D03C480078000134494B
:10CA10004018807A3E4909780901314A8918897A93
:10CA2000884215DC35480078000111464018807AAC
:10CA30003A49097809018918897A884208DC2F481F
:10CA4000007800018018817A3548FDF71CFC70E001
:10CA50002F480078000122494018807A2749097838
:10CA600009011F4A8918897A884215DC284800780C
:10CA7000000111464018807A28490978090189186F
:10CA8000897A884208DC2248007800018018817A7F
:10CA90002348FDF7F8FB4CE02048007800011049DE
:10CAA0004018807A1549097809010D4A8918897A50
:10CAB00088423EDC19480078000111464018807A0F
:10CAC0001349097809018918897A884231DC1348A9
:10CAD000007800018018817A114823E025E00000E9
:10CAE000D42300202A0300000AD7A3703D70894098
:10CAF00000002440FCA9F1D24DE210406A20002041
:10CB0000642000203E2000203D20002062200020E4
:10CB10006B20002068200020662000206C20002070
:10CB2000E8210020FDF7AFFB03E064210248FDF798
:10CB3000AAFB07B0F0BD0000E821002010B5544862
:10CB4000406A002805D00020514948620F20514911
:10CB500008604F488068002857D000204C49886002
:10CB60004C4880308069C4B24B480078022820D1FC
:10CB700000214A48817700204949C8730846407817
:10CB8000002803D1C52C01D0487007E04448417803
:10CB90004078401C424A5070501D445440484078F0
:10CBA000052831D13E48FCF7BFFD00203C494870C4
:10CBB0002AE039480078032826D1002038494870F7
:10CBC0003648807F002805D1902C03D000213348BF
:10CBD000817708E03148817F807F401CC2B22F48B6
:10CBE0008277801C44542D48807F1B280CD1032061
:10CBF000FFF7ECF90220FFF7DBF928486038FCF773
:10CC0000C9FA00212548417710BD2148C069002894
:10CC10003BD000201E49C8611F480078022819D166
:10CC20001F48007805280CDA1D4801780078401C60
:10CC30001B4A107010460A30405C16498031C861AA
:10CC400022E016486038FCF761FB00281CD1FFF792
:10CC5000D1F919E010480078032815D10F48407F1A
:10CC600006280CDA0D48417F407F401CC2B20B48B9
:10CC70004277001F405C07498031C86104E0002111
:10CC800006488177FFF7B6F9BEE700BFBCE70000B2
:10CC90000021004080240040D1200020AC22002050
:10CCA000E82100202021020C01D010211046020AA8
:10CCB00001D010460839020901D01046091F820828
:10CCC00001D01046891E420801D0881E7047081AFC
:10CCD000704730B47446641E2578641CAB4204D39C
:10CCE000635D5B00E31830BC18471D46F8E70000A1
:10CCF000002815DBC206D20E01219140094A1160BD
:10CD000000BF00BF00BFBFF34F8F00BF00BF00BF19
:10CD100000BF00BF00BFBFF36F8F00BF00BF00BFE9
:10CD20007047000080E100E010B5002819DB1A4AC6
:10CD300003231B02D21883089B00D2588307DC0E02
:10CD4000FF23A3409A438B071B0E8407E40EA340E6
:10CD50001A43114B032424021B198408A4001A51FE
:10CD600018E00E4A03071B0F083B9B089B00D25894
:10CD70008307DC0EFF23A3409A438B071B0E840717
:10CD8000E40EA3401A43054B0407240F083CA408F3
:10CD9000A4001A5110BD000000E100E01CED00E00D
:10CDA00010B5002819DB1A4A03231B02D218830886
:10CDB0009B00D2588307DC0EFF23A3409A438B07C6
:10CDC0001B0E8407E40EA3401A43114B03242402D4
:10CDD0001B198408A4001A5118E00E4A03071B0F00
:10CDE000083B9B089B00D2588307DC0EFF23A3401F
:10CDF0009A438B071B0E8407E40EA3401A43054B8E
:10CE00000407240F083CA408A4001A5110BD000018
:10CE100000E100E01CED00E010B5002819DB1A4A23
:10CE200003231B02D21883089B00D2588307DC0E11
:10CE3000FF23A3409A438B071B0E8407E40EA340F5
:10CE40001A43114B032424021B198408A4001A510D
:10CE500018E00E4A03071B0F083B9B089B00D258A3
:10CE60008307DC0EFF23A3409A438B071B0E840726
:10CE7000E40EA3401A43054B0407240F083CA40802
:10CE8000A4001A5110BD000000E100E01CED00E01C
:10CE900010B5002819DB1A4A03231B02D218830895
:10CEA0009B00D2588307DC0EFF23A3409A438B07D5
:10CEB0001B0E8407E40EA3401A43114B03242402E3
:10CEC0001B198408A4001A5118E00E4A03071B0F0F
:10CED000083B9B089B00D2588307DC0EFF23A3402E
:10CEE0009A438B071B0E8407E40EA3401A43054B9D
:10CEF0000407240F083CA408A4001A5110BD000028
:10CF000000E100E01CED00E010B5002819DB1A4A32
:10CF100003231B02D21883089B00D2588307DC0E20
:10CF2000FF23A3409A438B071B0E8407E40EA34004
:10CF30001A43114B032424021B198408A4001A511C
:10CF400018E00E4A03071B0F083B9B089B00D258B2
:10CF50008307DC0EFF23A3409A438B071B0E840735
:10CF6000E40EA3401A43054B0407240F083CA40811
:10CF7000A4001A5110BD000000E100E01CED00E02B
:10CF800002E008C8121F08C1002AFAD17047704792
:10CF9000002001E001C1121F002AFBD170470000F0
:10CFA00000BF00BF00BF00BF00BFBFF34F8F00BF77
:10CFB00000BF00BF06480749C86000BF00BF00BFF0
:10CFC000BFF34F8F00BF00BF00BF00BF00BFFDE732
:10CFD0000400FA0500ED00E0F8B505460C46277898
:10CFE0000C21A068484306490E5806480068009086
:10CFF0002A463946204608302369B047F8BD00006C
:10D00000C82600201421002010B5044606480078E8
:10D0100014225043044A121D81182046FFF7DCFFFA
:10D02000042003F025FC10BDFC25002000BFFEE716
:10D03000F0B549488BB003684849494A012B02D0F2
:10D040004B6B002B05D153681B78202B01D8012393
:10D0500000E00023434D03242C700024404A002BA1
:10D06000146057D084688268CA623D4A03A901925D
:10D070000091C26801232146184602F037FE0028BD
:10D0800024D0012805D0022824D003284FD03648C8
:10D090004BE00398002802D03448FEF711FC2046EC
:10D0A00002F076FF002802D13148FEF709FC6868DB
:10D0B0000222817D68460026027001960681468123
:10D0C00044708170C67002F07DFD30E02948FEF7A3
:10D0D000F7FB2CE00398002802D12748FEF7F0FB6D
:10D0E000204602F055FF002802D12448FEF7E8FB55
:10D0F00068680222817D039E6846027000236A46AA
:10D10000019613815381447001278170C77002F02A
:10D1100059FD0CE0002000900346024601460190B4
:10D1200002F0E4FD042802D01548FEF7C9FB0C4CC0
:10D130002068002807D00120607512482061042073
:10D1400028700BB0F0BD02F075FB00206075206107
:10D1500000F01AF80BB0F0BD0014004000150040BC
:10D160003027002058210020C8050900B805090013
:10D17000B9050900BD050900C0050900C105090080
:10D18000CF05090025D2010070B502F053FB1C4CFD
:10D1900000251C4E0120256130701B481B49006989
:10D1A000086302F0FBFE00281FD002F0F7FE032800
:10D1B00002D01748FEF784FB022002F037FC002063
:10D1C00002F0AEFC02F0EAFE032802D01148FEF79E
:10D1D00077FB3078012802D00F48FEF771FB022060
:10D1E00030700E482561E06070BD02F027FD022816
:10D1F000E2D302F05FFF60600028DDD10848D9E784
:10D200003027002058210020E02600200015004093
:10D2100080050900880509009205090031D0010048
:10D220007B05090010B5034905200870FFF7ACFF26
:10D2300010BD00005821002070B500BF0023482217
:10D240000A49092003F028FB044600BF2546002DAB
:10D2500006D000BF002211462846FFF7A1FE00BFFE
:10D2600000BF00BF024803F059FB70BD2425002019
:10D27000790C0200F0B587B03E480078142148438D
:10D280003C49091D4418E7680C21A06848433A4905
:10D290004018008906900C21A06848433649401880
:10D2A000408905900C21A0684843334940184068E4
:10D2B000049003F0C1F8014602903846FAF766FF81
:10D2C000002901D1012000E0002003900599069873
:10D2D0004843049946186088C019A1884518002061
:10D2E000264908600398002804D003F0A5F8618857
:10D2F00088420AD00398002804D0B54202D1A08801
:10D30000002802D0A06802280CD103F095F801464D
:10D3100002903846FAF73AFF19490860032003F0F3
:10D32000A7FA24E003F088F80190A188C8190199B0
:10D33000FAF72CFF88081349086003F07DF80146CE
:10D3400001902846FAF722FF002901D1012000E0D0
:10D3500000200290B54206D00298002803D1B1B255
:10D36000A8B203F09FFC022003F082FA00BF07B0CE
:10D37000F0BD0000FC250020C8260020042100206C
:10D38000082100200021002010B508480078142151
:10D3900048430649091D44182078042802D000F0AB
:10D3A000A5F801E003F0F6FB10BD0000FC2500200D
:10D3B00010B50F480078142148430D49091D441841
:10D3C00060880C4908602078012804D0032805D023
:10D3D000042809D105E003F0DDFB06E0FFF74AFF72
:10D3E00003E003F00FFF00E000BF00BF10BD00002E
:10D3F000FC2500201421002010B5034840780028A7
:10D4000001D0FFF7D5FF10BDFC250020002314211B
:10D4100041430C4A53541421414389184B80012342
:10D420001421414389188B6000231421414389183A
:10D43000CB601421414389180B61142141438918A1
:10D440008B80704700260020FFB581B00646174646
:10D450001C4840780A2830D01A4800781949497881
:10D4600044180A2C00D30A3C142060431549091DB6
:10D470000E54142060434018076114206043411883
:10D48000029805C8CA608860142161430D4A121DC4
:10D490008918049848801421614389180A98888063
:10D4A000101F4078401C111F487007480078002862
:10D4B00001D1FFF77DFF002500E00425284605B0D7
:10D4C000F0BD0000FC250020FC20002010B500204D
:10D4D000054908704870002403E02046FFF796FFD6
:10D4E000641C0A2CF9D310BDFC25002010B5084897
:10D4F000007814225043064A121D81180020FFF7BD
:10D500006BFD00F007F8002003F0B2F910BD000039
:10D51000FC25002010B509490878FFF777FF074878
:10D520004078401E0549487008460078401CC0B24B
:10D5300008700A2801D10020087010BDFC250020C9
:10D5400010B51C4800680821084000282FD11A484F
:10D550000068401C1849086018480068002803D07B
:10D56000042003F07FFB24E000F07EFB002803D0C2
:10D57000022003F077FB1CE011480068002813D05C
:10D580000C480078C007C00F002809D1094800687E
:10D590000121084307490860002003F063FB08E00D
:10D5A000032003F05FFB04E003F030FB01E003F035
:10D5B0003DFB10BD18210020082100200021002083
:10D5C0000421002010B50C480068082108400028FC
:10D5D0000FD10948006802210840002805D00648FC
:10D5E00000680121084304490860022003F03AFB67
:10D5F00001E003F01BFB10BD18210020F0B54548E9
:10D6000085B00068012803D04348406B002806D14C
:10D61000424840680078202801D8012500E0002514
:10D620003F4C01266069002804D101F029F9002847
:10D6300000D1666102F0B2FC012802D03948FEF741
:10D640003FF939484068007D002802D03748FEF78E
:10D6500037F902F0EFF8002D57D00121084602F00B
:10D660000FFC052840D201007944097949188F44FC
:10D6700002381D383800002702F07EFC0390A6898E
:10D68000E58902F07FFC0246274869464068837DB1
:10D690000F700399019169460E814D814A700020F7
:10D6A0008B70C870684602F08DFA1DE0002702F00A
:10D6B00063FC0390A689E58902F064FC02461A48DF
:10D6C00069464068837D0F700399019169460E8118
:10D6D0004D814A7001208B70C870684602F072FA62
:10D6E00002E01348FEF7ECF800F032FE206111482A
:10D6F0001149426962602378022B01D0002A06D0CA
:10D70000C0680860002000F057FE05B0F0BD8068DA
:10D71000F7E700000014004000150040302700200B
:10D7200014270020A806090058210020A906090096
:10D73000C8060900E02600204827002010B50D4843
:10D74000006808210840002810D10B480068401CE0
:10D750000949086000F088FA002802D1FFF714FE9A
:10D7600006E00648007803F083F801E000F030FDA1
:10D7700010BD00001821002008210020FC200020FE
:10D7800010B50446002C02D0112C08D100E00AE0AC
:10D7900006480068082108430449086003E0204661
:10D7A000FFF732FC00BF00BF10BD000018210020B1
:10D7B00010B50C480068401C0A49086003280DD0C9
:10D7C00009480078022804D00748007803F050F890
:10D7D00007E00648007803F045FA02E00D20FFF765
:10D7E00013FC10BD0C210020FC200020FD20002097
:10D7F00010B50A480078012804D0022808D0032870
:10D8000009D102E003F0CCF906E0FFF797FF03E04F
:10D8100003F01CFA00E000BF00BF10BDFC20002098
:10D8200070B50446204628DF0546FFF7A9FF70BD06
:10D83000F8B504460D46164632462946204629DFED
:10D840000746FFF79DFFF8BD30B5234D83B0687ED6
:10D8500000283AD000F0B4FF002401280CD000F0DA
:10D86000F9FF1E48007F002802D10120810748608F
:10D87000002002F0C3FC6C6001F0DCFFAC706C7641
:10D8800005216846017001940481448144708470CC
:10D89000C47002F097F9124812490470032088609E
:10D8A00002F07CFB012812D0022810D003280CD1F2
:10D8B000002300941A4619461846019402F016FAFD
:10D8C000042802D00848FDF7FBFF03B030BD00215B
:10D8D000084602F0D5FAF3E714270020E0260020DE
:10D8E0005821002000F50140E801090001490978AC
:10D8F000017070470C140200F0B589B006460F465F
:10D90000154623480078002804D0012808D00228B2
:10D910001AD10EE010221F4905A8FAF761FC15E0A4
:10D9200010221C4905A8FAF75BFC05A800F052F884
:10D930000CE01022174905A8FAF752FC0D221649EF
:10D9400005A8FAF74DFC01E009B0F0BD00BF0024C6
:10D950000BE0052C04DA1148005D01A9085502E02E
:10D96000002001A90855601CC4B2102CF1DB00F0A6
:10D970007BFD05A800F090FD01A901A800F03EFD87
:10D980002B4601AA3946304600F076F800BFDBE7A7
:10D99000CB2000200D1402009C250020CC2000206C
:10D9A0000149087070470000CB20002010B50446E4
:10D9B0000D2221460148FAF713FC10BD9C250020DA
:10D9C00010B50446052221460148FAF709FC10BDAE
:10D9D000CC20002010B50446024905222046FAF763
:10D9E000FFFB10BD0110000010B5024600230D4CD6
:10D9F000236001230C4C236000200CE000BF094B86
:10DA00001B68002BFBD0094B9B6813540023054C6B
:10DA10002360431CD8B28842F0DB0123024C6360D0
:10DA200010BD000000D1004000D0004000D50040F3
:10DA300010B50446012000030078FF2809D1052213
:10DA40002146044802F044F900210120000302F0BD
:10DA500017F910BD0110000010B504460122054958
:10DA60002046FAF7E1FB002801D1012010BD00207B
:10DA7000FCE700000C14020070B5002408E00D78EB
:10DA8000167875400570401C491C521C651CECB290
:10DA90009C42F4DB70BD000010B5184800680821F6
:10DAA0000840002826D100F00BF900280CD00020F7
:10DAB0001349086011480068012108430F490860B4
:10DAC000002003F0CFF817E000F0CEF8002806D0D1
:10DAD00000200B490860022003F0C4F80CE009485C
