:020000040001F9
:10800000102C0020F58001000F810100618F01001C
:108010000000000000000000000000000000000060
:1080200000000000000000000000000013810100BB
:108030000000000000000000158101001781010010
:1080400019810100A5940100EDA30100198101002F
:108050000198010000000000198101001981010050
:1080600019810100019A0100419A01001981010062
:108070001981010019810100198101001981010094
:108080001981010019810100198101001981010084
:1080900099980100198101002199010019810100BD
:1080A000198101001981010000000000000000009A
:1080B00000000000000000000000000000000000C0
:1080C0000348854600F08EF800480047F5B50100EA
:1080D000102C0020401E00BF00BF00BF00BF00BF2B
:1080E00000BF00BF00BF00BF00BF00BF00BFF1D195
:1080F000704700000321094802680A4302600848EB
:1081000002680A4302600748804707480047FEE7C5
:10811000FEE7FEE7FEE7FEE7FEE70000240500407D
:108120005405004059990100C180010030B50B464B
:10813000014600202022012409E00D46D5409D4241
:1081400005D31D469540491B2546954040191546C7
:10815000521E002DF1DC30BD70B5002425460028EC
:1081600001DA01244042002901DA01254942FFF7E2
:10817000DDFFAC4200D04042002C00D0494270BD2F
:1081800003460B439B0703D009E008C9121F08C030
:10819000042AFAD203E00B780370401C491C521EDB
:1081A000F9D27047D2B201E00270401C491EFBD2E6
:1081B00070470022F6E710B513460A4604461946F2
:1081C000FFF7F0FF204610BD30B5044600200346FF
:1081D00000E05B1C934203D2E05CCD5C401BF8D016
:1081E00030BD0000064C0125064E05E0E36807CCD3
:1081F0002B430C3C98471034B442F7D3FFF764FF8D
:1082000064E6010084E6010030B58C180278401C59
:1082100013071B0F01D10378401C120906D1027805
:10822000401C03E005780D70401C491C5B1EF9D111
:1082300001E00B70491C521EFBD1A142E6D3002085
:1082400030BD1CB50446002002F08AFE0122611CEC
:10825000601C02F031FE601C02F0DEFE002814D02B
:10826000EB2069460870481C02F020FE00A802308E
:1082700002F090FE062200A90131084602F01CFE21
:1082800007226946052003F091FD1CBD3EB5054659
:10829000EA200290681C02F073FE684602F07AFE43
:1082A000002405E06846005DFF2800D002E0641C61
:1082B000052CF7DB00BF052C0CD10521684602F028
:1082C00073FE05236A1C6946684602F0B5FE6846DF
:1082D00002F08EFE012202A9052003F067FD3EBDDB
:1082E0001CB5044661782078401C814210D1EC20F6
:1082F00069460870052100A8013002F055FE00A86B
:10830000013002F03DFE06226946052003F04EFDD5
:108310001CBD38B50446EF200090012002F020FE7D
:108320000E22611C601C02F0C7FD601C02F074FE8E
:10833000002802D0A01C02F019FE01226946052087
:1083400003F034FD38BD10B504462078E33803004F
:1083500002F0F4F8050D111519042000204600F074
:108360001DF8012000F04AFD00F092FC13E02046C9
:10837000FFF78CFF0FE02046FFF763FF0BE020467E
:10838000FFF7AEFF07E02046FFF7C3FF012000F034
:108390003BFD00E000BF00BF10BD000010B504466B
:1083A000022002F0DDFD0622611C601C02F084FD4B
:1083B000072221460648FFF7E3FE601C02F02CFE70
:1083C000002804D00522A11C0248FFF7D9FE10BDE9
:1083D000442000209F2100201CB50446E720694668
:1083E0000870481C02F062FD0522214600A80230F8
:1083F000FFF7C6FE022002F0B3FD062200A90131FC
:10840000084602F059FD07226946052003F0CEFC1C
:108410001CBD8179F5290ADD022181700121C1701D
:1084200000214175817500224272827202E08179D9
:10843000491C8171704710B502460B46002000218F
:1084400003E0545C60404C1CE1B29942F9DB10BD82
:1084500070B504468148C079E52808D10421E01DA3
:10846000FFF7E9FF4106490EE07A814200D070BD76
:10847000207A030002F062F80EE4879FA3A736E497
:1084800079C3B7CFDD0824E4204600F005F90128C0
:1084900001D00120A070607AC001A17A0843704920
:1084A000488400208877012048770020C8776D49EC
:1084B0000870204600F07EFA0A2000F075FAC0E04D
:1084C000204600F0E9F8012801D00120A070012029
:1084D0006349887700204877624908700B2000F0D4
:1084E00063FAAEE0607AC001A17A0843A07500216A
:1084F000204600F057FA204600F05CFA5848007F0A
:10850000012809D1052000F04FFA012056490870D2
:108510000020564908700BE0002000F045FAA07DCD
:108520004006400E50490870A07DC0114F490870A8
:108530004D4800784E490978884211D00020012327
:10854000834019464B4B5B68C340DA07D20F002AC1
:1085500002D1484B996001E0464BD96000BF00BF93
:1085600041480078424908706BE00221204600F043
:1085700019FA00206075A075204600F01BFA002053
:1085800000F012FA5DE000F017FC552812DA607A6C
:10859000C001A17A084338490870384800F037FA1A
:1085A0003549097845182946344800F033FA012046
:1085B00000F0FAF945E0022000F0F6F941E003206E
:1085C00000F0F2F93DE02E480078401C2C4908707C
:1085D00008460078022802DB284800F06FFB0420E0
:1085E00000F0E2F92DE0A07AE0770120254908703B
:1085F000E07F25490870062000F0D6F921E0607A76
:10860000C001A17A08436084012020490870072036
:1086100000F0CAF915E001201D490870607AC00118
:10862000A17A0843C1B220200155082000F0BCF90E
:1086300007E0642017490870092000F0B5F900E050
:1086400000BF00BF0020A0710021E172204600F0B1
:108650004DF8204600F08AF900BF08E79821002075
:10866000BC21002070200020692000206A2000200A
:1086700021200020000500501C200020A8220020FE
:1086800024200020612000206B2000206220002098
:10869000662000206E20002001468878704710B5C3
:1086A000044600F0DFFF0020A0700120E0700020F1
:1086B00020706070A07160746075A0756420A074F3
:1086C000E07420750020E0752076607400BF06E03D
:1086D0000022E11D0A54491D0A54411CC8B2052854
:1086E000F6DB022001F002F810BD000010B50446D0
:1086F000E5202073204600F035F9002856D02046AA
:1087000000F030F9012802D11420E0754EE0204637
:1087100000F028F9022802D11520E07546E0204635
:1087200000F020F9032802D11620E0753EE0204633
:1087300000F018F9042802D11720E07536E0204631
:1087400000F010F9052802D11820E0752EE020462F
:1087500000F008F9072802D11920E07526E020462C
:1087600000F000F9082802D11A20E0751EE020462A
:1087700000F0F8F8062802D11B20E07516E020462C
:1087800000F0F0F8092802D11C20E0750EE0204628
:1087900000F0E8F80A2802D11D20E07506E0204626
:1087A00000F0E0F80B2801D11E20E075E07D1728CD
:1087B00051D010DC032826D006DC002814D0012874
:1087C00013D002286FD117E0142823D015282AD0FF
:1087D0001628F7D133E01838030001F0AFFE074147
:1087E0004C5865717D83890088E00221617355488A
:1087F000008B5549088081E00F2161735148008C3E
:10880000514908807AE0102161734E48C07F4E497B
:10881000088073E0032161734C4800784A4908805E
:108820000120E0756AE004216173494800F0EFF827
:108830008000000C444908800120E0755EE00521BD
:108840006173434800F0E3F88004800C3E490880DF
:108850000120E07552E0062161730120E0754DE0D2
:108860000A2161733B480078012800D100E0002014
:108870003549088042E008216173374800780128B3
:1088800001D0012000E000202F49088036E00B21B4
:10889000617332480078012801D0012000E00020F7
:1088A000294908802AE023E0092161732C480078D7
:1088B000002801D0012000E00020234908801DE0AD
:1088C0000C21617326480078012801D0012000E0C6
:1088D00000201D49088011E00D21617301201A4913
:1088E00008800BE00E21617301201749088005E024
:1088F0000121617300201449088000BF00BF1248A5
:1089000000888004410EA1730F4800784106490E8B
:10891000E173042120460C30FFF78DFD4106490E1E
:1089200021742046FFF7B8FE012802D00020E07530
:1089300005E0E07D0321FFF70FFC491CE1752046AF
:108940000C3010BDBC210020222000201C20002063
:10895000A822002060200020642000206820002041
:10896000652000200146887F7047000010B504464E
:10897000607C012804D120460C30FFF72DFD0DE06E
:10898000607C00280AD1207000F0CAFE2178481CC3
:10899000207020460C30405C0149C86110BD0000C9
:1089A00000250040C170704701498877704700007A
:1089B0009821002010B50446A07F042810D1002281
:1089C00008484168006800F061FD0121054800F099
:1089D00067FD0549054800F00BF8044800F06EF902
:1089E00010BD00006C22002088220020A822002058
:1089F000C0220A70C1224A70C2681202120E8A7026
:108A000082891204120ECA70027B0A7170470146F5
:108A1000C8687047C160704770B505460C4620783D
:108A2000C0280CD16078C12809D1A0780004E17871
:108A30000902084321790843E860012070BD0A4813
:108A400001680A48FFF7E6FF00220948416800680C
:108A500000F01CFD0121064800F022FD05490348F5
:108A6000FFF7C6FF0020E9E710200020A822002021
:108A70006C22002088220020E12189004180012110
:108A8000017102214171032181710021C171012114
:108A90000172042101700549C16077210174002130
:108AA0008182C176817601777047000039300000FD
:108AB00070B50446552C02D22546643500E02546A3
:108AC00003212046FFF732FB01293AD14B212846EA
:108AD000FFF72CFB891C5C4801702D212846FFF70D
:108AE00025FB891C584841704078574909788842CD
:108AF00006D146212846FFF719FB891C52484170D0
:108B000038212846FFF712FB891C4F488170807876
:108B10004D490978884206D13C212846FFF706FBDB
:108B2000891C49488170484880784749497888427B
:108B300006D132212846FFF7F9FA891C4248817094
:108B400080E003212046FFF7F1FA00293AD14721BE
:108B50002846FFF7EBFA891C3B480170372128466D
:108B6000FFF7E4FA891C38484170407836490978A3
:108B7000884206D144212846FFF7D8FA891C32489A
:108B8000417032212846FFF7D1FA891C2E488170A6
:108B900080782D490978884206D11F212846FFF7A1
:108BA000C5FA891C28488170274880782649497869
:108BB000884247D12E212846FFF7B8FA891C22485F
:108BC00081703FE003212046FFF7B0FA022939D136
:108BD00043212846FFF7AAFA891C1B4801702E2161
:108BE0002846FFF7A3FA891C1748417040781649B8
:108BF0000978884206D134212846FFF797FA891C64
:108C00001148417027212846FFF790FA891C0E4829
:108C1000817080780C490978884206D11121284654
:108C2000FFF784FA891C0848817007488078064954
:108C30004978884206D11B212846FFF777FA891C1C
:108C40000148817070BD00003620002000B50E483C
:108C5000407C012816D10D48808A642805DA0B482B
:108C6000808A401C094988820CE0002000F0C6F888
:108C70000020054988700120C8700020487448759C
:108C80008875487100BD000098210020A8220020AE
:108C90000020014988827047A822002010B503F007
:108CA000E1F800BF03F0ECF90028FBD1012000F04F
:108CB0002FFA0A2000F02CFA10BD000010B504466F
:108CC000E068FFF7F5FE207903F046F9E06803F06D
:108CD000F5F9217C052003F0DBF9E07903F074FA63
:108CE000207A03F023FA608803F04EFAA17906484F
:108CF00003F0F4F9607903F057FA202003F034FA16
:108D000003F0BCF810BD00003620002010B5134859
:108D10000088FF212D31884200DD10BD0F480088FA
:108D2000401C0E4908800846008864280CDD0C4869
:108D3000C07E002808D1FF205F300880012008494C
:108D40000877084600F00EF80548C07E012803D1D8
:108D5000FF205F300149088000BFDEE7402000208F
:108D6000A822002010B504461148FFF7A1FE207983
:108D700003F0F2F80E4803F0A1F9217C052003F07E
:108D800087F9062003F020FA207A03F0CFF96088F3
:108D900003F0FAF9A179074803F0A0F9607903F02C
:108DA00003FA202003F0E0F903F068F810BD00009A
:108DB000FEFEFEFE362000200148407F7047000086
:108DC000A822002010B50B48007F012810D10A48C6
:108DD0000088401C0849088008460088FF214E3161
:108DE000884205DD0020034908770846FFF766FF43
:108DF00010BD0000A8220020422000200149C876B2
:108E000070470000A82200200149887670470000C2
:108E1000A822002010B500F0ADFC002874D0454811
:108E2000047820465038030001F088FB0A063542DA
:108E30004F54595A6F5F687500203F4908700846C3
:108E400001783E4800F0E3F800203D4908703948B9
:108E500080783C49087008460078212803D1012019
:108E60003949087016E037480078222803D10120DC
:108E7000364908700EE033480078232805D10120D8
:108E8000314908703149087004E000202E4908700B
:108E90002E49087040E00020294908702548807854
:108EA0002B49087008460178244800F0ACF833E0FC
:108EB00001202149087008460178204800F0A7F8F1
:108EC0001C4880781E49087026E01A48807821499D
:108ED000087021E017488078194908701CE01BE0F1
:108EE000144880781C49087016E012484078000247
:108EF000104989780843114908840DE000200F4982
:108F000088771649088007E011E000200B49487770
:108F10001249088000E000BF00BF204600F0C6FDF7
:108F200000F050F801210903044800F047F8002040
:108F300010BD00009220002060200020BC210020F5
:108F4000652000205E2000206C2000206D20002085
:108F50005F20002064200020682000207020002076
:108F60000AE000BFBFF34F8F04480549C860BFF354
:108F70004F8F00BF00BFFEE7F3E700000400FA05D3
:108F800000ED00E000B50C48C07D232805DA0A4852
:108F9000C07D401C0849C8750CE00748008B0122C1
:108FA000120310430146044800F02DF80021024846
:108FB00000F02BF800BD0000BC210020028B8A438A
:108FC0000283704700200149C8757047BC2100200A
:108FD000002100220270426082600273C275028327
:108FE00000238376427782770122C27700BF07E0B1
:108FF000002302460D325354521D53544A1CD1B221
:109000000529F5DB7047018370478176704701774A
:10901000704710B502F0E6FB10BD0000F7B507463B
:10902000002401202E490004154688602D4EB0789A
:10903000002802D02C48FFF7ECFF002F02D12B486C
:10904000FFF7E7FF7068002802D02948FFF7E1FF2B
:10905000284677600127274D002820D0012828D0F6
:10906000022824D02448FFF7D4FF2448B7700021F9
:1090700001600199611889B229602E6820494F600A
:109080006D680068002802D01E48FFF7C2FFA642A4
:1090900011D3A54201D3B5421CD31B4818E0184890
:1090A00047606C680760154900200860DDE7AC6820
:1090B000DBE72C68D9E7B54201D2012000E00020AF
:1090C000AC4201D8012100E00021884202D10F48C2
:1090D000FFF79FFF012002490004486003B0F0BD84
:1090E00000A300401C210020730004007500040050
:1090F0007600040040A500408900040040A1004023
:1091000040A000409B000400B0000400C90004001F
:10911000C206D20E01219140014A11607047000041
:1091200080E100E010B5002819DA1A4A03071B0F86
:10913000083B9B089B00D2588307DC0EFF23A3400B
:109140009A438B071B0E8407E40EA3401A43114B6E
:109150000407240F083CA408A4001A5118E00E4A82
:1091600003231B02D21883089B00D2588307DC0E0E
:10917000FF23A3409A438B071B0E8407E40EA340F2
:109180001A43054B032424021B198408A4001A5116
:1091900010BD00001CED00E000E100E010B500286B
:1091A00019DA1A4A03071B0F083B9B089B00D25889
:1091B0008307DC0EFF23A3409A438B071B0E840713
:1091C000E40EA3401A43114B0407240F083CA408E3
:1091D000A4001A5118E00E4A03231B02D218830878
:1091E0009B00D2588307DC0EFF23A3409A438B07D2
:1091F0001B0E8407E40EA3401A43054B03242402EC
:109200001B198408A4001A5110BD00001CED00E0D9
:1092100000E100E010B5002819DA1A4A03071B0F15
:10922000083B9B089B00D2588307DC0EFF23A3401A
:109230009A438B071B0E8407E40EA3401A43114B7D
:109240000407240F083CA408A4001A5118E00E4A91
:1092500003231B02D21883089B00D2588307DC0E1D
:10926000FF23A3409A438B071B0E8407E40EA34001
:109270001A43054B032424021B198408A4001A5125
:1092800010BD00001CED00E000E100E010B5054A53
:109290000021054800F068F802490448FFF7BCFBCC
:1092A00010BD0000982200206C220020A82200207F
:1092B000F8B506460F461546002D06D00F21890148
:1092C000304604F05DFA044604E01021304604F014
:1092D00057FA0446002C03D100200649087001E02B
:1092E0002046F8BD00BF034800780028FBD00020CE
:1092F000F7E70000282000201CB500201749487619
:1093000004F0E4FA0446002C01D020461CBD1021D4
:10931000684681803C21C18011480090114968460F
:1093200004F096FB04460D4A00210E4804F0D6F9DD
:109330000446002C01D02046E8E7084A0832012103
:10934000084804F0CBF90446002C01D02046DDE7A4
:10935000002C01D02046D9E70020D7E76C2200205E
:10936000A1D601002C200020F8B504460F46154672
:10937000002310222146284604F0ECFA0646002E6F
:1093800002D10349087001E03046F8BD0020FCE737
:109390002820002010B5204800F074F800283AD0AA
:1093A0001E480078002812D101201C490870FFF7E0
:1093B00075FC072001218140194A116000BF01F0AE
:1093C0001BFA1548017E00221030FFF771FF154887
:1093D000007801281FD100201049087000210E4894
:1093E00000F05EF80C48017E0F4A103000F022F8C1
:1093F0000948017E0D4A1030FFF7B6FF04F0CEFC9D
:109400000B48FFF75BFC072001218140044A803AAA
:10941000116000BF00BF10BD6C220020342000206E
:1094200080E100E0282000208822002098220020EF
:10943000A8220020F8B505460E461746B1B22A46C6
:109440000E4804F04BF90446002C01D02046F8BD2C
:10945000002310223946284604F086FB0446002CDF
:1094600002D10749087001E02046F0E700BF044838
:1094700000780028FBD02046E9E700002C200020DF
:10948000282000200146487E7047000007B50348A9
:10949000019B00990161436102760EBD6C220020A0
:1094A00041767047F8B55F4C20696778401C2061B1
:1094B000607D002802D05C48FFF7ABFD2046227893
:1094C0005A4D00245A495B4E032A3FD1CA68002AEC
:1094D0003CD0012F03D0022F2FD057489EE00746E3
:1094E0000069032802D05548FFF793FD0220387029
:1094F000B969491CB96152490C60C11EA960514942
:1095000008604B48C46004600461446003217970C2
:109510007C603C753268117D00290AD04A498B680D
:10952000BB75C461494B01209861494B0420986088
:109530008C60D06800283AD1F8BD0069012802D0BB
:109540004448FFF766FD03F003FCF8BD032F64D029
:10955000012F2ED0022FF6D042783F4B1201D218A5
:10956000137B0027002B03D0CB68002B00D00127F2
:10957000927A334B02701C60032A48D00022D243F7
:10958000AA60304B02221A60CC60032242700C6049
:109590000C614C604460047530680069002800D09C
:1095A0008047002FD1D0306880680028CDD0804718
:1095B000F8BD0269012A18D0022AF9D1CC600C61E9
:1095C0000C601F490C60111FA9600821696003210C
:1095D00001704460047530680069002800D080473D
:1095E000306880680028E2D1F8BD0C604C60002132
:1095F000C943A960012169603168097D002902D051
:10960000134A042151601549C0684860F8BD08221A
:10961000D243AA6008226A60B9E71148FFF7F9FC53
:10962000F8BD0000F824002090010A00001300405B
:109630000011004024210020A9010A009F010A0016
:109640000012004080E200E04015004000100040A1
:1096500000F50140A4010A0034E6010000150040B5
:10966000D6010A0010B5082002F082FB0A2003216F
:109670008A00C306072424021B1984001A5100BF64
:10968000092002F075FB08201249C8600A204861D1
:109690008020114948600420486000200D49403175
:1096A000C8620E480B4948620420086001200C493A
:1096B0008860086000200B49886001210220FFF7C4
:1096C0006DFD022001218140074A116000BF00F0BA
:1096D0001BF810BD002500400023004000509D00F5
:1096E000002000400021004000E100E00146054864
:1096F0000078012802D10348017001E00020704782
:109700000120FCE75120002010B50021092002F0C3
:1097100039FB01200149C860086010BD00200040ED
:1097200010B501200349886048600121092002F03A
:1097300029FB10BD0020004010B50D48407C0028DA
:1097400015D10B484079642805DA09484079401C56
:10975000074948710BE00020054908718870012015
:10976000C8704874002048758875FFF791FA10BDDD
:10977000982100201F480078EF2802D11E49087068
:1097800001E0002070471B48407850282FDB194823
:10979000407859282BDC174840781849087015483C
:1097A0004078154909784840134908701148807875
:1097B000124948700F4880780F49097848400E498F
:1097C00008700C48C0780D4988700A48C0780A496A
:1097D0000978484008490870084600780549097921
:1097E000884202D105480078CCE70020CAE7002073
:1097F000C8E700005920002091200020922000207E
:1098000010B51D48806A002823D000201A498862BC
:109810001A48007801281AD1194800681949486384
:10982000FFF7F8FA184800681649403148601748B1
:1098300000681449886316480068124940318860FE
:10984000012014498862022004F056FA00E000BFAB
:1098500000BF0948406800280CD000200649486035
:1098600006480078022803D1032004F045FA00E0FE
:1098700000BF00BF10BD0000004100408420002058
:109880007820002000450040742000208020002027
:109890007C20002000400040F8B5204D2C4680344C
:1098A000012080F310886068002832D020680C21E5
:1098B000484340190279310A090211434279FF23D2
:1098C0001B02120299431A40114382791B021204AF
:1098D00099431A401143C2790E02360A11060E430B
:1098E00081688289C08997B2000407436068401E7E
:1098F00060602068401C206020680A2801D3002096
:109900002060002080F310882B683A463046984744
:10991000C6E7002080F31088F8BD00001C25002059
:1099200070B50C480068002810D00A4800688047CD
:10993000044600BF2546002D06D000BF0022114678
:10994000284600F019FE00BF00BF01E001F0BCFB9B
:1099500070BD0000CC20002010B501F02FFC0028C5
:1099600005D0074807494860C8130749886101F0D6
:1099700009FC002802D001200449886010BD0000C5
:10998000DFFF07C000050040006C004000060040FB
:1099900001480068704700001820002010B5012021
:1099A0001249486000201249486002208860042063
:1099B000086101200D49C8607D20C0000C4940317C
:1099C0000860012000040B49486001200A49086032
:1099D00001210920FFF7A6FB092001218140074A48
:1099E000116000BF01200149086010BD00900040D7
:1099F00000950040009300400092004000E100E02C
:109A000010B50C480068002813D0002009490860F0
:109A100009480468611C0246116020467D21C90086
:109A2000FEF784FB002904D104480068401C034968
:109A3000086010BD40910040182000201420002034
:109A400070B50120134900048860134800250560A3
:109A5000124C6068002802D11148FFF7DAFAA570AD
:109A6000636810480122656042600F4841680068E1
:109A700095031430A94205D20325AD03A84201D9AC
:109A8000627005E0814201D3012000E00020607097
:109A9000984770BD00A3004040A100401C21002059
:109AA000EC00040040A0004040A50040F8B5074687
:109AB00000240025002600BFEF222146641CFE483A
:109AC00042543846552F6ED007DC5038030000F062
:109AD00035FD05378711FAF9850058287CD004DC5C
:109AE00056287AD0572879D11BE3592877D0712886
:109AF000F9D113E073222046611CCCB2EE490A541E
:109B000000222046611CCCB2EB490A54EB48027893
:109B10002046611CCCB2E8490A5481E271222046F9
:109B2000611CCCB2E4490A5400222046611CCCB22C
:109B3000E1490A542046611CCCB2DF490A54ECE7E3
:109B4000DF48007840210840402811D1712220468A
:109B5000611CCCB2D8490A5400222046611CCCB208
:109B6000D5490A542046611CCCB2D3490A5432E08C
:109B7000D348007810210840102815D170222046C3
:109B8000611CCCB2CC490A54CE4802782046611CF4
:109B9000CCB2C9490A54CC4802782046611CCCB2E8
:109BA000C5490A5417E03CE2C54800782021084026
:109BB000202810D174222046611CCCB2BE490A5420
:109BC00000222046611CCCB2BB490A542046611CCD
:109BD000CCB2B9490A54E2E3BBE23CE1DEE38BE2FA
:109BE000BA48407F012826D176222046611CCCB29B
:109BF000B1490A54B548408C02122046611CCCB2CF
:109C0000AD490A54B148408CC2B22046611CCCB266
:109C1000A9490A54AE480088401CAD49088008464E
:109C200000887D21C900884204DD0020A7494877CB
:109C3000A7490880D6E0A548807F012821D1772256
:109C40002046611CCCB29C490A5400222046611C6B
:109C5000CCB299490A542046611CCCB296490A54A8
:109C60009B480088401C9A490880084600887D214E
:109C7000C9008842DEDD0020944988779449088035
:109C8000B0E09448007800281ED19348007800285E
:109C90001AD192480078002816D170222046611C03
:109CA000CCB285490A54874802782046611CCCB260
:109CB00081490A54844802782046611CCCB27E490E
:109CC0000A548FE01AE191E08248007800281CD104
:109CD00081480078012818D180480078002814D1E4
:109CE00072222046611CCCB273490A54754802782E
:109CF0002046611CCCB270490A5473480278204651
:109D0000611CCCB26C490A546CE07248007800289F
:109D10001BD171480078002817D1704800780128BD
:109D200013D173222046611CCCB263490A5400222D
:109D30002046611CCCB260490A5460480278204633
:109D4000611CCCB25C490A544CE06248007800289F
:109D50001BD161480078012817D16048007801289C
:109D600013D173222046611CCCB253490A540022FD
:109D70002046611CCCB250490A5450480278204613
:109D8000611CCCB24C490A542CE05248007800289F
:109D900017D153480078012813D175222046611C41
:109DA000CCB245490A5400222046611CCCB242493B
:109DB0000A544C4802782046611CCCB23E490A54F1
:109DC00010E074222046611CCCB23B490A540022A8
:109DD0002046611CCCB238490A542046611CCCB2E2
:109DE00035490A54002040490870D8E23F480078BD
:109DF000012817D100203849087070222046611CC4
:109E0000CCB22D490A542F4802782046611CCCB2AE
:109E100029490A542C4802782046611CCCB22649B4
:109E20000A5417E031480078022813D172222046E4
:109E3000611CCCB220490A54224802782046611C99
:109E4000CCB21D490A54204802782046611CCCB28D
:109E500019490A54A3E226480078012817D10020A6
:109E60001F49087070222046611CCCB212490A5466
:109E7000144802782046611CCCB20F490A5412489B
:109E800002782046611CCCB20B490A5435E01848D0
:109E90000078022831D175222046611CCCB20649D7
:109EA0000A5400222046611CCCB203490A540D48D2
:109EB00002782046611C1DE08C2000206B200020D1
:109EC0005E2000206A20002069200020BC210020A4
:109ED000702000205F2000206220002061200020F0
:109EE00066200020672000206E20002064200020D3
:109EF00068200020CCB2FE490A5450E2FD480078A8
:109F0000012856D10020FC490870FC490870084619
:109F10000178FB48FFF77BF8FA48007840210840B9
:109F2000402803D0F7480078002811D1712220463C
:109F3000611CCCB2EE490A5400222046611CCCB20E
:109F4000EB490A542046611CCCB2E9490A5467E047
:109F5000EC480078102814D170222046611CCCB245
:109F6000E3490A54E84802782046611CCCB2E04933
:109F70000A54E64802782046611CCCB2DC490A54F7
:109F80004EE0E048007820284AD174222046611C27
:109F9000CCB2D7490A5400222046611CCCB2D44925
:109FA0000A54DB4802782046611CCCB2D0490A54DE
:109FB00036E0D0480078022813D173222046611C75
:109FC000CCB2CB490A5400222046611CCCB2C8490D
:109FD0000A54D04802782046611CCCB2C4490A54C5
:109FE0001EE0C448007803281AD174222046611C60
:109FF000CCB2BF490A5400222046611CCCB2BC49F5
:10A000000A542046611CCCB2B9490A540020BB490D
:10A010000870B9490870B9480178B948FEF7F7FFE8
:10A02000BDE1BD480078012807D0BC480078012870
:10A0300003D0BB48007800282ED0AF480078012814
:10A0400016D173222046611CCCB2A9490A540022C1
:10A050002046611CCCB2A6490A54AE48027820467C
:10A06000611CCCB2A2490A540020AD49087042E0FC
:10A0700074222046611CCCB29D490A54002220461D
:10A08000611CCCB29A490A54A14802782046611C4E
:10A09000CCB297490A542EE097480078012816D18F
:10A0A00073222046611CCCB291490A5400222046FA
:10A0B000611CCCB28E490A54964802782046611C35
:10A0C000CCB28B490A5400209549087013E07022E5
:10A0D0002046611CCCB286490A548B48027820463F
:10A0E000611CCCB282490A54884802782046611C1F
:10A0F000CCB27F490A5452E10B20FEF755FC742282
:10A100002046611CCCB27A490A5400222046611CC8
:10A11000CCB277490A542046611CCCB274490A5427
:10A120003DE10A20FEF740FC70222046611CCCB2C3
:10A130006F490A54744802782046611CCCB26C49BD
:10A140000A54724802782046611CCCB268490A540D
:10A1500025E16B48407F012826D176222046611CEC
:10A16000CCB263490A546648408C02122046611CF6
:10A17000CCB25F490A546248408CC2B22046611C8E
:10A18000CCB25B490A5467480088401C6549088086
:10A19000084600887D21C900884204DD0020584916
:10A1A000487760490880F5E05548807F012821D133
:10A1B00077222046611CCCB24D490A540022204629
:10A1C000611CCCB24A490A542046611CCCB24849B1
:10A1D0000A5454480088401C5249088008460088A8
:10A1E0007D21C9008842DEDD0020454988774D4940
:10A1F0000880CFE04C48007800281CD14B480078FC
:10A20000002818D13C480078002814D1702220463C
:10A21000611CCCB236490A543B4802782046611C86
:10A22000CCB233490A54394802782046611CCCB27A
:10A230002F490A54AEE03C48007800281CD13B4826
:10A240000078012818D12C480078002814D17222F7
:10A250002046611CCCB226490A542B48027820467D
:10A26000611CCCB222490A54284802782046611C5D
:10A27000CCB21F490A548DE02B48007800281BD12E
:10A280002A480078002817D11B480078012813D1EC
:10A2900073222046611CCCB215490A540022204684
:10A2A000611CCCB212490A541A4802782046611C3B
:10A2B000CCB20F490A546DE01B48007800283CD10D
:10A2C0001A480078012838D10B480078012834D189
:10A2D00073222046611CCCB205490A540022204654
:10A2E000611CCCB202490A540A48027820461FE099
:10A2F0008C200020652000206120002060200020AC
:10A30000BC2100205E2000206A200020692000205F
:10A310006E2000206B2000206C2000206D2000208B
:10A3200063200020702000205F2000206220002099
:10A33000611CCCB227490A542CE027480078002839
:10A3400017D126480078012813D175222046611CB8
:10A35000CCB220490A5400222046611CCCB21D49CF
:10A360000A541F4802782046611CCCB219490A548D
:10A3700010E074222046611CCCB216490A54002217
:10A380002046611CCCB213490A542046611CCCB251
:10A3900010490A5400201349087000E000BF00BFB4
:10A3A0000026002504E00B48805D4540701CC6B2C5
:10A3B000A642F8DB2046611CCCB206490D540025AC
:10A3C00005E00448405D08494855681CC5B2A542EF
:10A3D000F7DBF8BD8C2000205F20002066200020E5
:10A3E000672000206E2000205420002010B52D484A
:10A3F000406A002805D000202A4948620F202A49D7
:10A4000008602848806800282ED0002025498860F0
:10A41000254880308069C4B20021244881772448CF
:10A420004078002804D1E52C02D0214948700BE087
:10A430001F48407C002807D11D4841784078401CC7
:10A440001B4A5070D01D44541948407805280AD141
:10A450001748407C002806D11548FDF7F9FF002079
:10A4600013494870487110BD0E48C069002816D0C5
:10A4700000200C49C8610E48007805280CDA0C4809
:10A4800001780078401C0A4A107010460C30405C7D
:10A4900005498031C86101E0FFF736F9E3E700BF05
:10A4A000E1E700000021004080240040402200201D
:10A4B000982100200120044988600448044908606C
:10A4C0000020014988607047000501403546526E02
:10A4D0000006014000B51148114948600020C860DD
:10A4E0000846C068012108430D49C8600846C06895
:10A4F000082108430A49C8600846C068F721084097
:10A500000749C86001200749086000BF00F00CF847
:10A510000028FBD0FFF7CEFF00BD0000FFFF0200C8
:10A52000000501400000014003480068002801D0F8
:10A53000012070470020FCE70004014030B474465D
:10A54000641E2578641CAB4204D3635D5B00E31892
:10A5500030BC18471D46F8E702E008C8121F08C1C2
:10A56000002AFAD170477047002001E001C1121F94
:10A57000002AFBD17047000000BFBFF34F8F044893
:10A580000449C860BFF34F8F00BF00BFFEE7000063
:10A590000400FA0500ED00E0F8B505460C46277802
:10A5A0000C21A068484306490E58064800680090F0
:10A5B0002A463946204608302369B047F8BD0000D6
:10A5C0006C240020C420002010B504460648007802
:10A5D00014225043044A121D81182046FFF7DCFF65
:10A5E000042003F093FB10BDA023002000BFFEE772
:10A5F000F0B549488BB003684849494A012B02D05D
:10A600004B6B002B05D153681B78202B01D80123FD
:10A6100000E00023434D03242C700024404A002B0B
:10A62000146057D084688268CA623D4A03A90192C7
:10A630000091C26801232146184602F09BFD0028C4
:10A6400024D0012805D0022824D003284FD0364832
:10A650004BE00398002802D03448FEF7DAFC20468D
:10A6600002F0DAFE002802D13148FEF7D2FC686819
:10A670000222817D6846002602700196068146818D
:10A6800044708170C67002F0E1FC30E02948FEF7AA
:10A69000C0FC2CE00398002802D12748FEF7B9FC43
:10A6A000204602F0B9FE002802D12448FEF7B1FC92
:10A6B00068680222817D039E6846027000236A4614
:10A6C000019613815381447001278170C77002F095
:10A6D000BDFC0CE0002000900346024601460190BC
:10A6E00002F048FD042802D01548FEF792FC0C4CFD
:10A6F0002068002807D001206075124820610420DE
:10A7000028700BB0F0BD02F0D9FA0020607520610E
:10A7100000F01AF80BB0F0BD001400400015004026
:10A72000D424002008210020C8050900B80509002C
:10A73000B9050900BD050900C0050900C1050900EA
:10A74000CF050900E5A7010070B502F0B7FA1C4C6F
:10A7500000251C4E0120256130701B481B490069F3
:10A76000086302F05FFE00281FD002F05BFE0328A2
:10A7700002D01748FEF74DFC022002F09BFB0020A0
:10A7800002F012FC02F04EFE032802D01148FEF740
:10A7900040FC3078012802D00F48FEF73AFC022036
:10A7A00030700E482561E06070BD02F08BFC02281D
:10A7B000E2D302F0C3FE60600028DDD10848D9E78B
:10A7C000D42400200821002084240020001500400B
:10A7D000800509008805090092050900F1A501001E
:10A7E0007B05090010B5034905200870FFF7ACFF91
:10A7F00010BD00000821002070B500BF00234822D2
:10A800000A49092003F096FA044600BF2546002DA8
:10A8100006D000BF002211462846FFF7ADFE00BF5C
:10A8200000BF00BF024803F0C7FA70BDC822002075
:10A8300061E40100F0B587B03E4800781421484338
:10A840003C49091D4418E7680C21A06848433A496F
:10A850004018008906900C21A068484336494018EA
:10A86000408905900C21A06848433349401840684E
:10A87000049003F025F8014602903846FDF756FC97
:10A88000002901D1012000E00020039005990698DD
:10A890004843049946186088C019A18845180020CB
:10A8A000264908600398002804D003F009F861885D
:10A8B00088420AD00398002804D0B54202D1A0886B
:10A8C000002802D0A06802280CD102F0F9FF01464E
:10A8D00002903846FDF72AFC19490860032003F06E
:10A8E00015FA24E002F0ECFF0190A188C819019943
:10A8F000FDF71CFC88081349086002F0E1FF0146DF
:10A9000001902846FDF712FC002901D1012000E04A
:10A9100000200290B54206D00298002803D1B1B2BF
:10A92000A8B203F0B3FD022003F0F0F900BF07B0B6
:10A93000F0BD0000A02300206C240020B4200020E3
:10A94000B8200020B020002010B50848007814215D
:10A9500048430649091D44182078042802D000F015
:10A96000A5F801E003F00AFD10BD0000A0230020BF
:10A9700010B50F480078142148430D49091D4418AB
:10A9800060880C4908602078012804D0032805D08D
:10A99000042809D105E003F0F1FC06E0FFF74AFFC7
:10A9A00003E003F025FE00E000BF00BF10BD000083
:10A9B000A0230020C420002010B5034840780028C0
:10A9C00001D0FFF7D5FF10BDA023002000231421E4
:10A9D00041430C4A53541421414389184B800123AD
:10A9E0001421414389188B600023142141438918A5
:10A9F000CB601421414389180B611421414389180C
:10AA00008B807047A4230020FFB581B0064617460F
:10AA10001C4840780A2830D01A48007819494978EB
:10AA200044180A2C00D30A3C142060431549091D20
:10AA30000E541420604340180761142060434118ED
:10AA4000029805C8CA608860142161430D4A121D2E
:10AA50008918049848801421614389180A988880CD
:10AA6000101F4078401C111F4870074800780028CC
:10AA700001D1FFF77DFF002500E00425284605B041
:10AA8000F0BD0000A0230020AC20002010B5002065
:10AA9000054908704870002403E02046FFF796FF40
:10AAA000641C0A2CF9D310BDA023002010B508485F
:10AAB000007814225043064A121D81180020FFF727
:10AAC0006BFD00F007F8002003F020F910BD000036
:10AAD000A023002010B509490878FFF777FF074841
:10AAE0004078401E0549487008460078401CC0B2B6
:10AAF00008700A2801D10020087010BDA023002092
:10AB000010B51C4800680821084000282FD11A48B9
:10AB10000068401C1849086018480068002803D0E5
:10AB2000042003F093FC24E000F07EFB002803D017
:10AB3000022003F08BFC1CE011480068002813D0B1
:10AB40000C480078C007C00F002809D109480068E8
:10AB50000121084307490860002003F077FC08E062
:10AB6000032003F073FC04E003F044FC01E003F075
:10AB700051FC10BDC8200020B8200020B0200020CB
:10AB8000B420002010B50C480068082108400028B7
:10AB90000FD10948006802210840002805D0064866
:10ABA00000680121084304490860022003F04EFCBC
:10ABB00001E003F02FFC10BDC8200020F0B545488F
:10ABC00085B00068012803D04348406B002806D1B7
:10ABD000424840680078202801D8012500E000257F
:10ABE0003F4C01266069002804D101F0BBF8002821
:10ABF00000D1666102F016FC012802D03948FEF748
:10AC000008FA39484068007D002802D03748FEF72E
:10AC100000FA02F053F8002D57D00121084602F047
:10AC200073FB052840D201007944097949188F4403
:10AC300002381D383800002702F0E2FB0390A68995
:10AC4000E58902F0E3FB0246274869464068837DB8
:10AC50000F700399019169460E814D814A70002061
:10AC60008B70C870684602F0F1F91DE0002702F011
:10AC7000C7FB0390A689E58902F0C8FB02461A4883
:10AC800069464068837D0F700399019169460E8182
:10AC90004D814A7001208B70C870684602F0D6F969
:10ACA00002E01348FEF7B5F900F0D2FD206111482B
:10ACB0001149426962602378022B01D0002A06D034
:10ACC000C0680860002000F0F7FD05B0F0BD8068A6
:10ACD000F7E700000014004000150040D4240020D5
:10ACE000B8240020A806090008210020A9060900B0
:10ACF000C806090084240020EC24002010B50D486B
:10AD0000006808210840002810D10B480068401C4A
:10AD10000949086000F088FA002802D1FFF714FE04
:10AD200006E00648007802F0F1FF01E000F0D0FCF8
:10AD300010BD0000C8200020B8200020AC2000205A
:10AD400010B50446002C02D0112C08D100E00AE016
:10AD500006480068082108430449086003E02046CB
:10AD6000FFF732FC00BF00BF10BD0000C82000206C
:10AD700010B50C480068401C0A49086003280DD033
:10AD800009480078022804D00748007802F0BEFF86
:10AD900007E00648007803F059FB02E00D20FFF7BA
:10ADA00013FC10BDBC200020AC200020AD200020F2
:10ADB00010B50A480078012804D0022808D00328DA
:10ADC00009D102E003F0E0FA06E0FFF797FF03E0A5
:10ADD00003F030FB00E000BF00BF10BDAC2000203E
:10ADE00070B50446204628DF0546FFF7A9FF70BD71
:10ADF000F8B504460D46164632462946204629DF58
:10AE00000746FFF79DFFF8BD30B5234D83B0687E40
:10AE100000283AD000F046FF002401280CD000F0B2
:10AE20008BFF1E48007F002802D101208107486067
:10AE3000002002F027FC6C6001F040FFAC706C76E3
:10AE40000521684601700194048144814470847036
:10AE5000C47002F0FBF812481249047003208860A5
:10AE600002F0E0FA012812D0022810D003280CD1F9
:10AE7000002300941A4619461846019402F07AF904
:10AE8000042802D00848FEF7C4F803B030BD002102
:10AE9000084602F039FAF3E7B824002084240020A1
:10AEA0000821002000F50140E80109000149097866
:10AEB00001707047F8E50100F0B589B006460F460D
:10AEC000154623480078002804D0012808D002281D
:10AED0001AD10EE010221F4905A8FDF751F915E01F
:10AEE00010221C4905A8FDF74BF905A800F052F8FF
:10AEF0000CE01022174905A8FDF742F90D2216496A
:10AF000005A8FDF73DF901E009B0F0BD00BF002440
:10AF10000BE0052C04DA1148005D01A9085502E098
:10AF2000002001A90855601CC4B2102CF1DB00F010
:10AF30000DFD05A800F022FD01A901A800F0D0FC3C
:10AF40002B4601AA3946304600F076F800BFDBE711
:10AF50004B200020F9E50100402300204C20002078
:10AF600001490870704700004B20002010B50446CE
:10AF70000D2221460148FDF703F910BD40230020B2
:10AF800010B50446052221460148FDF7F9F810BD29
:10AF90004C20002010B50446024905222046FDF74A
:10AFA000EFF810BD0110000010B5024600230D4C53
:10AFB000236001230C4C236000200CE000BF094BF0
:10AFC0001B68002BFBD0094B9B6813540023054CD6
:10AFD0002360431CD8B28842F0DB0123024C63603B
:10AFE00010BD000000D1004000D0004000D500405E
:10AFF00010B50446012000030078FF2809D105227E
:10B000002146044802F0A8F800210120000302F0C4
:10B010007BF810BD0110000010B50446012205495F
:10B020002046FDF7D1F8002801D1012010BD0020F5
:10B03000FCE70000F8E5010070B5002408E00D7899
:10B04000167875400570401C491C521C651CECB2FA
:10B050009C42F4DB70BD000010B518480068082160
:10B060000840002826D100F00BF900280CD0002061
:10B070001349086011480068012108430F4908601E
:10B08000002003F0E3F917E000F0CEF8002806D026
:10B0900000200B490860022003F0D8F90CE00948B1
:10B0A0000068002803D0032003F0D0F904E003F087
:10B0B000A1F901E003F0AEF910BD0000C8200020A6
:10B0C000B0200020B4200020F8B5294800780028DE
:10B0D00000D1F8BD27480068002801D1012000E018
:10B0E0000020054624480068002801D1012000E026
:10B0F0000020064600BF002D14D1684651DF0446EB
:10B10000052C01D101250CE0002C06D000BF002247
:10B1100011462046FFF730FA03E016490098096807
:10B12000884700BF002E1AD1144800880090694655
:10B130001348006861DF0446052C01D101260DE0AB
:10B14000002C06D000BF002211462046FFF714FA5B
:10B1500004E00B48006808490968884700BF002DD3
:10B1600002D0002E00D000E0C5E700BF00BFB0E76E
:10B17000D0200020E0200020DC200020D82000206B
:10B18000D42000200C48008CC0B2012812D10A48FB
:10B19000808C0007000F00280CD10748806AF0213E
:10B1A0000840402806D10448C06A0840002801D160
:10B1B000012070470020FCE7C00F00F01948008C08
:10B1C000C0B201282CD11748808C0007000F00283E
:10B1D00026D11448806AF0210840002806D1114881
:10B1E000C06A0840002801D1012070470D48806ADC
:10B1F000F0210840102806D10A48C06A08400028FB
:10B2000001D10120F1E70748806AF0210840302889
:10B2100006D10448C06A0840002801D10120E4E7B3
:10B220000020E2E7C00F00F0F8B5124800781421C2
:10B2300048431049091D4518EF6802F041FB009092
:10B240006988C919AA888918481E0099FCF76EFFF9
:10B25000064609480068B04207D307480068B04274
:10B2600005D106480068002801D1012400E000242F
:10B270002046F8BDA0230020B8200020B4200020E4
:10B28000F8B510480078142148430E49091D4518A7
:10B29000EE6802F015FB009069888919AA88891860
:10B2A000481E0099FCF742FF07460748006800283F
:10B2B00005D006480068B84201D1012400E000240E
:10B2C0002046F8BDA0230020B4200020B820002094
:10B2D00001468807800F002801D101207047002017
:10B2E000FCE70000F8B5AA4D002068610326AE60B7
:10B2F000A849C8630120C863A74C606989158843C1
:10B300006061606900090001801D606160690F2152
:10B3100009048843310440186061A069012149068D
:10B320008843A061A06949100843A061A069000A90
:10B3300000022030A061A069FF2109028843A061BA
:10B3400096490220086000F0A5FCE8619448A861D5
:10B350006E60944801F084FD934948609348A26967
:10B36000417F07231B049A4309040A43A261002179
:10B37000036A0A461827D6001846F040C0B285076F
:10B38000C407ED0F240EAD0125434407E40F64010B
:10B390002C430507ED0F2D012543C406E40FE400FF
:10B3A0002C438506ED0FAD0025434406E40F6400F1
:10B3B0002C43C0092043BC1BA040521C0143D2B205
:10B3C000042AD8D37448C16178480021436A0A46E8
:10B3D000D6001846F040C0B2C407250E8407E40F1B
:10B3E000A4012C434507ED0F6D0125430407E40F2D
:10B3F00024012C43C506ED0FED0025438406E40F20
:10B40000A4002C434506ED0F6D002543C0092843D9
:10B41000BC1BA040521C0143D2B2042AD8D35E4DBB
:10B420002962624E002430192030007A082C4ED256
:10B43000A107C90EFF228A40D243042C23D26B6A93
:10B4400013406B62C207130E8207D20F92011A4398
:10B450004307DB0F5B0113430207D20F12011A43AC
:10B46000C306DB0FDB0013438206D20F92001A43A0
:10B470004306DB0F5B001343C00918438840696A29
:10B480000843686226E0AB6A1340AB628307C207D9
:10B49000DB0F120E9F0117434207D20F5301020721
:10B4A000D20F3B4312011A43C306DB0FDB001343E9
:10B4B0008206D20F97004206D20F52001F433A4332
:10B4C000C00910438840A96A0843A86202E03848CE
:10B4D000FDF79FFD641C082CA5DB364C207CE86042
:10B4E000607C696B090A0902696300281CD0012885
:10B4F0001DD0022825D003282BD02F48FDF789FD29
:10B50000A07C2E4B2E492F4C2F4A00282AD00128F0
:10B5100032D0022807D128618C622C484B62C86265
:10B520002B484A630863F8BD686B6863E8E7686B9B
:10B53000012108436863FF20E863FF200830A86307
:10B54000DEE7686B0221084368632248E86322480B
:10B5500006E0686B0321084368632048E863002025
:10B56000A863CDE7002028618C621D484B62C86249
:10B570001C484A630863F8BD012028618C621A48A0
:10B580004B62C8621948086319484863F8BD000057
:10B5900000F50140C01F00400015004080E200E0BF
:10B5A00004110040D424002008210020842400201D
:10B5B00039030900A4240020C203090000500078C8
:10B5C000001700404E0000543E420F8208800C607D
:10B5D00088647200FFFF000021100100FFFFFF00E0
:10B5E00003800C602264720002800C6011646600AB
:10B5F000DEC08F822F48006A0003000B2E490860CE
:10B600002E48FDF739FAFFF7F7F8FDF775FEFDF75D
:10B610003DFE02F0C3FB2948FDF750FB2848FDF72B
:10B620003EF82848FDF7D4FCFEF7B8F902F032FCEA
:10B63000FEF750FF002003210522120707231B02FB
:10B64000D2188300D15000BF33E0FEF7A1F91E49A4
:10B650000860084600681D490968884229D01A48D0
:10B6600000681A490860052117480068FCF75EFD6C
:10B67000002901D1FDF78EFE142113480068FCF764
:10B6800055FD002906D10E48FCF7C3FEFEF754F81D
:10B69000FDF778FC1E210C480068FCF747FD0029E7
:10B6A00007D1FDF7D3FAFDF731FBFDF78BFBFEF772
:10B6B00001FFCAE74000001010200020A82200204F
:10B6C00098210020BC210020042000200020002020
:10B6D00010B50548006808218843034908600348FD
:10B6E000007802F013FB10BDC8200020AC20002021
:10B6F000F8B503041B0E0E460093C3B2010E000200
:10B7000000160024170C404295B2062B5BD21A009B
:10B710007A44127992189744021427423F3C002938
:10B7200000D001210C4629043D46000405430C438A
:10B73000304600F0CBFD2A462146009800F091FBF0
:10B74000F8BD23488068407E002802D12148FDF7DB
:10B7500060FC304600F0BAFD2146280401433A4619
:10B76000009800F07DFBF8BD002900D001210C46B7
:10B7700000040443002907D0002E02D11648FDF72B
:10B7800048FC304600F0A2FD2146009800F0C2FBC4
:10B79000F8BD00F072FBF8BD00F078FCF8BD0F4872
:10B7A0004168491C416001780029F7D0816800296F
:10B7B00002D0491E8160F8BD00F064FE0028E8D187
:10B7C00000F02EFDF8BD0648FDF723FCF8BD000093
:10B7D000E8200020B5030500C303050078240020FD
:10B7E000E303050002490F220A70C8607047000099
:10B7F000E820002009480A4A4168491C4160126853
:10B800001368994208D3002343600168491C016012
:10B810005268914200D30360704700001421002059
:10B820001021002070B5084D064C29682068496831
:10B83000884202D30548FDF7ECFB28682168806840
:10B84000405C70BD1421002010210020B2000100D6
:10B85000014800687047000014210020014840683A
:10B86000704700001421002010B5040002D10548E3
:10B87000FDF7CFFB044800210460044801604160EB
:10B8800010BD00002A00010010210020142100201A
:10B8900010B50446054800684068A04202D8044834
:10B8A000FDF7B7FB0348046010BD00001021002025
:10B8B000B90001001421002010B5044605480068B5
:10B8C0000068A04202D80448FDF7A3FB0348446087
:10B8D00010BD000010210020C5000100142100202F
:10B8E00070B504460D4601263606144800688542A8
:10B8F00005D01022294611480068FCF741FC0020C1
:10B900000F49086001200F49086004E0761E002EF0
:10B9100001D1002070BD0A4800680028F6D0002040
:10B920000749086008480068844205D0102206488C
:10B9300001682046FCF724FC0120EBE79C20002056
:10B9400000E1004000E00040A02000200648074938
:10B950000860103006490860103006490860203839
:10B9600005494860012070476D2300209820002081
:10B970009C200020A020002000E5004010B50446D7
:10B980001022214602480068FCF7FAFB10BD0000B7
:10B990009820002070B51B4C05462068062802D36D
:10B9A0001948FDF736FB21680020184E00290BD9F5
:10B9B0008200B258AA4203D11548FDF72AFB0EE0D7
:10B9C000401CC0B28842F3D31248002122224A43CD
:10B9D0001318AB4206D0491CC9B20629F6D30E484B
:10B9E000FDF717FB20680D4980003058884202D0CF
:10B9F0000B48FDF70EFB206881007550401C20604D
:10BA000070BD00003C210020850003002827002095
:10BA1000F60003004027002086000300ADDEADDE07
:10BA20008800030001480068704700003C210020A6
:10BA300010B50446102802D30348FDF7EAFA600067
:10BA400002492018085C10BDC800030038260020F9
:10BA500070B400201F4A01464300C3189C1861704F
:10BA6000A170D154401C1028F6D300211A4D1B4B55
:10BA7000DE240A46222042438E0050199851AC54CD
:10BA800044708470C470047144718471C471047210
:10BA900044728472C472047344738473C4730474F0
:10BAA00044748474C474047544758475C4750476D0
:10BAB00044768476C476047744778477C4772030DC
:10BAC0000470491C44700629D3D305490620086038
:10BAD00070BC70473826002040270020282700200F
:10BAE0003C21002070B500250446102802D30F48E1
:10BAF000FDF78FFA60000E492218885C002813D0E9
:10BB00000C2044430B48231850188478A4001D5976
:10BB10008478641C84708478801C032C01D30023F7
:10BB20000370885C401E8854284670BDA600030040
:10BB30003826002068260020F8B50D460446102956
:10BB400002D32048FDF765FA1F4900200968064620
:10BB500000290CD91D4A8300D358A34203D11C48A5
:10BB6000FDF757FA0EE0401CC0B28842F3D31948E3
:10BB70000022222151430B18A34206D0521CD2B2FC
:10BB8000062AF6D31448FDF744FA6800134A291828
:10BB9000505C032814D20C20454311482B188818F8
:10BBA0004578AD005C514478641C44704478401C76
:10BBB000032C00D30670505C401C50540120F8BD8B
:10BBC0000020F8BD8F0003003C2100202827002022
:10BBD000F6000300402700209000030038260020D4
:10BBE0006826002010B50446102802D30948FDF746
:10BBF00010FA600021180848425C002A08D00C2284
:10BC00005443064AA218081880788000105810BDC6
:10BC1000002010BDB7000300382600206826002051
:10BC200070B5164900240A68002A25D09000144BEC
:10BC3000144DC0188038C46F521EC5670A600021B9
:10BC4000002A0BD988001D58A54203D10E48FDF7E4
:10BC5000E0F90EE0491CC9B29142F3D30B48002130
:10BC600022224A431318A34206D0491CC9B206290E
:10BC7000F6D30748FDF7CDF9204670BD3C210020E2
:10BC800028270020ADDEADDEF600030040270020AF
:10BC90007D0003000048704748A0004000487047FE
:10BCA00040A1004001480078704700001C2100209E
:10BCB00070B5114801254560C560104E0024B46080
:10BCC0000F4845600F484068002802D00E48FDF735
:10BCD000A0F900200D49C04388600D48046004208D
:10BCE00030610C48446005704470847008150A493E
:10BCF00008600A49086070BD00A0004000A500402F
:10BD000040A0004040A500403500040000A30040D2
:10BD100040A100401C21002080E200E000E100E0A2
:10BD200003490120086003490020087070470000A3
:10BD300000A000401C21002010B4074801214160F0
:10BD4000C16000220548064C426042708B022360AD
:10BD50008270017010BC704700A000401C210020C0
:10BD600080E200E001484078704700001C2100207C
:10BD700003210522120707231B02D2188300D1508A
:10BD800070470000002906D100BF01228240064B07
:10BD9000DA6000BF06E000BF01228240024B9A60D9
:10BDA00000BF00BF7047000000050050F7B52A4DE6
:10BDB00016460746082804D304202870002003B044
:10BDC000F0BD0198002806D0202E09D90620287041
:10BDD000002003B0F0BD03202870002003B0F0BDA8
:10BDE000384600F085FA032804D309202870002083
:10BDF00003B0F0BD384600F077FA032804D30A20D8
:10BE00002870002003B0F0BD00F06AFA022804D2C6
:10BE100008202870002003B0F0BD00F067FB044646
:10BE2000067040780121084360703246A01C0199D9
:10BE3000FCF7A6F9F8B2214600F038FB002802D042
:10BE4000012003B0F0BD0548FDF7E3F80F2028708E
:10BE5000002003B0F0BD0000E8200020DD00050058
:10BE60007047704710B500F00DFB002802D000F0BD
:10BE700004F810BD00F0D4F910BD70470648816881
:10BE8000002903D1022101700020704710B500F095
:10BE9000DDF9012010BD0000E8200020F8B51646AD
:10BEA0000F46044600F020FA184D00280CD0002F51
:10BEB0000ED0204600F016FB0078316881420BD28C
:10BEC000062028700020F8BD0B2028700020F8BD47
:10BED000032028700020F8BD204600F0DDFA0400A1
:10BEE0000CD0A01C0AD02278A11C38463260FCF786
:10BEF00047F9204600F0EAF90120F8BD0448FDF7B3
:10BF000088F80F2028700020F8BD0000E8200020ED
:10BF10000501050033B589B004462020009068462D
:10BF2000408D40420A4948776A4601A92046FFF7FA
:10BF3000B5FF0546002D09D00648407C012805D1F3
:10BF400001A8FCF700FA0348FCF782FA0BB030BDF9
:10BF5000A822002098210020F1B5454D82B0002490
:10BF60002C704448EC60046044608460424800F0F7
:10BF7000C3F9A8600125002874D03D4F407E3F4999
:10BF800002267A68012817D0102A17D8100015D079
:10BF90000846FCF7F5F83948796800F0C7FA01203F
:10BFA0000090029800280DD001280FD002280FD051
:10BFB0000520387000200FE03E7001E00720387047
:10BFC0000020EDE7012000F015FB04E0022000E076
:10BFD000002000F00FFB0120009908400090042091
:10BFE00000F08EFA224900208968497E002903D09A
:10BFF0001F482746067002E000F092FA2F461C49BF
:10C00000009889680740497E0020002903D018481D
:10C010000670204602E000F0AFFB284607401448B7
:10C020008068407E002803D011480670204603E057
:10C03000012000F095FA28460D4907408A68002043
:10C04000527E002A01D00E7002E000F09FFB2C46C9
:10C050003C40012000F028F9002C03D0012003B05F
:10C06000F0BDFFE702480570002003B0F0BD0000FE
:10C07000E820002078240020F1B60100F8200020FC
:10C0800001488068407E7047E8200020704700002B
:10C0900010B5094A93685B7E002B03D00220107014
:10C0A000002010BD082803D304201070002010BD0C
:10C0B00000F0EEFA012010BDE820002010B506497E
:10C0C0008A68527E002A03D002200870002010BD2A
:10C0D00000F0A8FA012010BDE820002010B5114C96
:10C0E000A268527E012A11D0102913D8002911D03C
:10C0F000002813D00A46616001460B48FCF740F85F
:10C100000948616800F012FA012010BD0220207079
:10C11000002010BD07202070002010BD03202070DB
:10C12000002010BDE8200020F820002010B50D49A7
:10C1300002468B6802205B7E002B02D00870002034
:10C1400010BD002A0AD0012A05D0022A05D00E20EF
:10C150000870002010BD002000E0012000F000FA6F
:10C16000012010BDE820002010B506498A68527EE3
:10C17000002A03D002200870002010BD00F0D8FA79
:10C18000012010BDE820002010B506498A68527EC3
:10C19000002A03D002200870002010BD00F0CEFA63
:10C1A000012010BDE820002010B506498A68527EA3
:10C1B000002A03D002200870002010BD00F0C4FA4D
:10C1C000012010BDE820002010B5144902468B68FC
:10C1D00000205B7E002B03D002200870002010BDE1
:10C1E000072A17D213007B441B79DB189F44030EE8
:10C1F0000507090B0D00042008E0FC2006E0F820EC
:10C2000004E0F42002E0F02000E0EC2000F0B4FABA
:10C21000012010BD0E200870002010BDE820002075
:10C2200010B5012080F310880748417E002906D010
:10C230008178002903D10121817001F02BFD0020BC
:10C2400080F3108810BD0000B824002070B5114C98
:10C25000607E00281CD1FFF745F80F4DA868002824
:10C2600002D10E48FCF7D5FE6868002802D10C48C0
:10C27000FCF7CFFE01F0F2F9002802D00948FCF7E4
:10C28000C8FE002001F0FEF90120607601F002FDF9
:10C2900070BD0000B8240020EC2400205E020900DC
:10C2A0005F0209006602090010B5044604484068B0
:10C2B000002802D10348FCF7ACFE0348047510BD0A
:10C2C00008210020F6030900D424002010B5012124
:10C2D00081F3108801F086F8002080F3108810BDEB
:10C2E00010B501F083F810BD10B501F095F810BD40
:10C2F00010B501F09DF810BDF8B50646012080F399
:10C300001088544C0025607003202070A570656073
:10C31000A560A581E5812561656125764E48657634
:10C32000056045608560C560056105754B4F183037
:10C33000BD604560FFF7BCFC304600F0CBFE01F06D
:10C340007BF8002001F096F93846FFF78DFA454A50
:10C3500043491068FF2633049843106008681A1296
:10C3600090430860404801684022B1431143016096
:10C37000012080F310882178012905D06070607E4B
:10C3800000285ED001F086FC002080F31088304643
:10C39000364E04223061727735483062354870621B
:10C3A0003548012101720221417203238372C27256
:10C3B0000522027306224273072282730822C27387
:10C3C00005744174012282741E2070614B20C000EC
:10C3D000F16070602278022A02D06068002833D0B1
:10C3E00039600F20B060022A02D06268002A2ED085
:10C3F000396000207083012030767076002030771D
:10C4000001F096F8692030606078012802D01B485E
:10C41000FCF7FFFD01202070A5706560A560A58177
:10C42000E5812561656125766576FEF75BFF012173
:10C430001348890201608902016085F3108805486C
:10C44000F8BD02F04FF89FE7B0683860C9E7386080
:10C45000CFE70000B8240020D4240020EC240020E2
:10C4600000E400E008E400E014E400E0842400209C
:10C4700004070A0D05080B0EA42400203C02090045
:10C4800080E200E00348407E002801D00020704791
:10C4900001207047B824002010B5012181F31088D5
:10C4A00001F000F8002181F3108810BD10B50122C1
:10C4B00082F3108800F0FBFF00280DD00848817837
:10C4C000002904D1407E002801D001F0E3FB0020C8
:10C4D00080F31088012010BD002080F3108810BD6B
:10C4E000B824002010B500F0F5FF10BD10B50120F4
:10C4F00080F3108800F0F3FF002181F3108810BD55
:10C500000549487705498A6907231B049A430004B3
:10C5100002438A6170470000842400200015004017
:10C5200001490876704700008424002070B50C0093
:10C53000054602D10748FCF76CFD002D02D10648E4
:10C54000FCF767FD0548856044600020FFF7A0F90F
:10C5500070BD00004803090049030900EC240020D5
:10C5600030B41749174C8874174B1849184A194D9D
:10C5700000280DD0012816D0022807D120614B6277
:10C5800015488A62C86215484D63086330BC70471D
:10C59000002020614B6212488A62C86211484D63D4
:10C5A000086330BC7047012020614B620E488A62EC
:10C5B000C8620E4808630E48486330BC70470000EC
:10C5C000A42400200015004000500078001700400F
:10C5D0004E0000543E420F8208800C608864720056
:10C5E00003800C602264720002800C60116466009B
:10C5F000DEC08F8210B5012181F3108808490A78C6
:10C60000824205D04870487E002805D001F042FBE8
:10C61000002080F3108810BD01F064FFF8E70000EF
:10C62000B8240020F0B41849486200210B461826AF
:10C63000DD000246EA40D2B2D407270E9407E40F89
:10C64000A4013C435707FF0F7F0127431407E40F62
:10C6500024013C43D706FF0FFF003C439706FF0F22
:10C66000BF0027435406E40F64003C43D209224331
:10C67000741BA2405B1C1143DBB2042BD8D30348CC
:10C680000162F0BC704700008424002000150040C7
:10C69000F8B5082841D2234A1218203211728207B5
:10C6A000D60EFF22B240D7438B07CA07DB0F120E0C
:10C6B0009B0113434A07D20F52011A430B07DB0FAA
:10C6C0001B019C46CB06DB0FDD008B06DB0F9C00BD
:10C6D0004B06DB0F5B00C909042813480ED2406AE1
:10C6E0003840114F78626046104305432C43234382
:10C6F0001943786AB14001437962F8BD806A3840D5
:10C70000094FB8626046104305432C432343194345
:10C71000B86AB1400143B962F8BD0448FCF779FC3E
:10C72000F8BD0000842400200015004039030900F2
:10C7300001490861704700008424002001494860D5
:10C74000704700008424002010B40849084AC860DB
:10C750001478084B022C02D05268002A02D01860CC
:10C7600010BC70478868186010BC70478424002093
:10C77000B8240020EC240020024908740249C86053
:10C7800070470000A42400200015004001490877EC
:10C79000704700008424002070B51248124C406895
:10C7A000407D002805D0012000F0FEFBA089401C40
:10C7B000A08100260D4930464E610D494A6809683E
:10C7C000551A00F05FFF6069A84202D30948FCF7E0
:10C7D00020FC60690122291A0748FCF71FFC6661EA
:10C7E00070BD000008210020B824002000F50140A1
:10C7F000842400204D06090041D60100F0B5FA4816
:10C80000FA4C4069FA4EFB4F87B0002803D1FFF77E
:10C81000A9FA002816D0F44D6868002801D0401EFF
:10C8200068602878022802D06968002979D0F16808
:10C830002160A978002975D0FEF7DCFFFEF7E4FA45
:10C8400007B0F0BDE84800250078012802D0022892
:10C8500005D009E000F0A0FB002805D0B9E1387848
:10C8600004287DD003287BD0FEF7C4FFDE48416852
:10C87000002901D0491E41600178022902D0416897
:10C88000002919D0F168216004468078002815D06D
:10C89000FEF7BAFA00F016FC022870D303266846A9
:10C8A0000024067001940481448144708570C57031
:10C8B00000F0CCFB07B0F0BDB168E4E701F012FE78
:10C8C000002811D00020766800F0DCFE6069B042DC
:10C8D00002D3C948FCF79DFB60690122311AC748A1
:10C8E000FCF79CFB6561D5E7207800287ED0012805
:10C8F00019D002287BD0C248FCF78BFB707E012840
:10C90000C8D120780228C5D061680029C2D101278A
:10C91000BF0700286CD001286BD0BA48FCF779FB20
:10C92000B8E77FE180E100F0C9F900F07BFD002865
:10C9300026D0708B00287CD0A189814279D3012137
:10C94000002000F0E1FC012700F05AFD0590A289CB
:10C950000492E289039200F059FD69460F7000E0ED
:10C9600037E1059901916946049A0A81039A4A813F
:10C9700048708D70CD70684600F068FBA7E023E139
:10C9800000F0A0FB02287DD32078022802D0606846
:10C99000002804D0FEF762FF002832D097E020691B
:10C9A000FEF776FF0020FEF787FF00F0EBFD002882
:10C9B00068D0A581E58100F029FD9349C86200F0A7
:10C9C00025FD012181409048016300F019FD8F4948
:10C9D000086000F00FFD8D4948608D48C860FEF783
:10C9E00021FF8949886000F01DFD03E0BEE09FE063
:10C9F000DCE0C6E0012872D000F014FD02285CD013
:10CA000058E0307E002828D000F0BCFD00285ED021
:10CA1000A581E58100F0FAFC7B49C86200F0F6FCD4
:10CA2000012181407848016300F0EAFC7749086001
:10CA300000E055E000F0DEFC744948607448C860CE
:10CA4000FEF7F0FE7049886000F0ECFC012865D02C
:10CA500000F0E8FC02285FD02CE0FEF7F9FE216927
:10CA6000884234D100F08EFD002830D0A581E581C8
:10CA700000F0CCFC6449C86200F0C8FC0121814090
:10CA8000614800E023E0016300F0BAFC5F49086000
:10CA900000F0B0FC5D4948605D48C860FEF7C2FE2A
:10CAA0005949886000F0BEFC012837D000F0BAFC7C
:10CAB000022831D05748FCF7ACFA2DE000F0FAF923
:10CAC000FFF7ECF854490861786840684861012034
:10CAD000376800F0D7FD6069B84221D34DE01DE012
:10CAE000FFF740F9002802D04C48FCF792FAFEF715
:10CAF00099FE45498968884202D0E089401CE0815E
:10CB0000FEF790FE4049886000F08CFC012805D0BB
:10CB100000F088FC0228CDD10020CFE70120CDE72E
:10CB200060690122391A3548FCF778FA6561E5E653
:10CB300000200090FEF776FE33498968884201D1D3
:10CB4000009805E0FEF76EFE2F49886001200090F6
:10CB50003978401E084201D1FDF7F6FD00207768C4
:10CB600000F090FD6069B842DAD306E000207768F3
:10CB700000F088FD6069B842D2D31F48FCF749FA3B
:10CB8000CEE700F04FFC002800D083E600F052FD15
:10CB90000028FAD1FFF786F80128F6D0FFF7CCF885
:10CBA000307F00280BD10120786008E0FFF77AF889
:10CBB0000128EAD0FFF7C0F8307F0028F3D000202A
:10CBC00000F060FD656065E61548FCF722FA07B0E5
:10CBD000F0BD706801224108034841610748FCF735
:10CBE0001DFA07B0F0BD0000B8240020EC2400209E
:10CBF00084240020082100204D06090041D60100B0
:10CC0000580409007204090000150040D4240020D3
:10CC1000BDAB01001E06090000F501400A05090030
:10CC20008C040900B16803E6022809D0FEF7E2FD92
:10CC30000020746800F026FD6869A04223D31FE03D
:10CC40003878042829D0032827D0FEF7D3FD002404
:10CC5000FEF7E8FD154FB968884203D0FEF7E2FD04
:10CC6000B86001241248641E0078044201D1FDF727
:10CC70006BFD0020746800F005FD6869A04202D3D6
:10CC80000C48FCF7C6F968690122211A0A48FCF72A
:10CC9000C5F90020686107B0F0BD70680122410845
:10CCA00005486961FCF7BAF907B0F0BD001500400E
:10CCB000082100204D06090041D60100F8B51C48A6
:10CCC000022707601B49401788601B4807601B4804
:10CCD000002404601A4E34611A49012008618861F9
:10CCE000194D287801281CD002281ED003281CD0FA
:10CCF0000120FBF7EFF9346110482C70046000202C
:10CD00000C49C04388600C480760F46003206870D9
:10CD10003460346174606C602C750C486C7507600D
:10CD2000F8BD0620FBF7D6F9E5E70220E1E70000B1
:10CD300080E100E00013004080E200E000120040CB
:10CD40000011004000100040F824002000E100E045
:10CD5000F8B53348354A06690327324B0025324C73
:10CD60001168012E05D0022E48D03148FCF751F948
:10CD7000F8BD042606708669761C86611F602D4EFC
:10CD800002233360E5602560256165602A4B082633
:10CD90005E60097D002910D0284EB168284F81754A
:10CDA0003868400702D42748FCF733F9E561264983
:10CDB000012088610420B860B5602068002802D096
:10CDC0002248FCF726F9E068002802D02048FCF74A
:10CDD00020F920480068800702D51F48FCF719F9A0
:10CDE000124C2068C068002800D080472068417D30
:10CDF0000029BDD0194900684860F8BDE56025618B
:10CE0000256065601D6000230B4A0570DB4393605D
:10CE100047704560057508690028EED08047F8BD69
:10CE2000F8240020001200400011004024210020BE
:10CE3000E7020A0080E200E00013004040150040D5
:10CE400000F50140AD020A0000100040B6020A00E1
:10CE5000B7020A0000E200E0B8020A000015004034
:10CE600010B50D49022408600C4804600D480C49B7
:10CE700041620D490162FFF721FF00210B480322A7
:10CE8000017042704160016101754175817508480A
:10CE90000460064810BD00002421002080E100E06D
:10CEA0001410004000F5014004110040F824002057
:10CEB00000E100E0F8B505462A4900012A4C471870
:10CEC000207D002802D02948FCF7A3F80026002D79
:10CED0002AD0012D28D0022D26D02548FCF799F81C
:10CEE0002448FCF796F8002123486675C943816001
:10CEF000224902200860224865700068032D0168FD
:10CF0000A16040682661A661E0603A6862601BD259
:10CF10001C4B3A7A1A60FB7A1B4A002B08D05060EF
:10CF2000506800280DD109E020780028DBD0D7E731
:10CF300051605068002804D1144800E01448FCF700
:10CF400068F80D48797A41600D480068007D002836
:10CF500005D0022D03D10F49A67504204860012099
:10CF60006075F8BD34E60100F8240020DB000A00FB
:10CF7000F9020A00DD000A000013004080E200E030
:10CF800024210020001200400015004000010A008A
:10CF900005010A0000F5014002484068012800D060
:10CFA0000020704700110040F8B51E4C0746657818
:10CFB0001D4928014618607D012802D01B48FCF756
:10CFC00028F8207D002802D01948FCF722F801201B
:10CFD000002120756175032D0AD2002F01D131681F
:10CFE0000860022D01D0012D05D1B07A207002E039
:10CFF0001048FCF70EF810480068007D00280FD09C
:10D00000022D0DD10D484068400702D40C48FCF7B2
:10D0100000F80C484068002802D10B48FBF7F9FFE4
:10D02000F8BD0000F824002034E6010021010A00C8
:10D0300022010A003A010A002421002000F50140E3
:10D0400040010A000015004041010A0070B5184D6A
:10D0500004462868002802D11648FBF7DAFF164E6E
:10D0600070680A2802D31548FBF7D3FFE86F0C213C
:10D07000484341192078087160784871A078887118
:10D08000E078C87160688860208988816089C8817B
:10D090007068401C7060E86F401CE867E86F0A2801
:10D0A00001D30020E867012005490005086070BD34
:10D0B0001C25002034000B009C25002035000B00AF
:10D0C00000E200E0024840680A21081AC0B2704736
:10D0D0009C25002010B5040002D10748FBF799FFFA
:10D0E00006490C600020C8670549086048600120B7
:10D0F00004490005086010BD29000B001C25002014
:10D100009C25002000E100E0F0B50A468107890F68
:10D1100005468D432B46CF00FF26BE401D68B54314
:10D120002C46CE001546B5402C190125084E7560D9
:10D1300000BF084D2D68002DFBD01C6000BF054DC1
:10D140002D68002DFBD00025014E7560F0BD00005C
:10D1500000E5014000E40140F0B505460E461746E3
:10D16000002404E0315D2819FFF7CEFF641CBC42A7
:10D17000F8D3F0BDFFB55A4885B0C06F032500272E
:10D180000F9E0C46002802D15648FBF742FF544838
:10D190000078032802D05448FBF73BFF5048C06F8B
:10D1A00041785248CA070190002A1ED1807C00288D
:10D1B0001BD000200090059800286ED007984907E2
:10D1C0000002890F000A464B09060843A200D11845
:10D1D000896B00220E9B88421A60326003905ED0F9
:10D1E0003F4FF86F002805D101E00120E2E74048F9
:10D1F000FBF70FFF3A482146C06F08310291FEF756
:10D200009BFC002804D0002035490127C86700E0B6
:10D210000027009838400090002F40D002988100ED
:10D220002F4809180398886108990F4236D0314871
:10D23000005D002832D02046FEF7FAFB002802D11C
:10D240002D48FBF7E6FE2046FEF74CFC0290002836
:10D2500011D001982546007C002805D0204800699F
:10D26000A84201D100F040F91D4900204919803140
:10D270000870204948550E99029808600E990029B7
:10D2800009D0002802D11D48FBF7C3FE0021194830
:10D290000225015503E01A48F6E712E0012500983F
:10D2A00000280AD02046FEF79DFC3060002803D0FD
:10D2B00010480121015501E012483060002F01D0D3
:10D2C00006E00425064CE06FFEF764FB0020E067F3
:10D2D00003490020087000F007F9284609B0F0BDA6
:10D2E000A42500205B010C005C010C00242600201A
:10D2F0006F020C002821002091010C0096010C0007
:10D300009A010C00FC250020F8B52D4C064620782B
:10D310000D46012804D0022802D02A48FBF779FEE6
:10D32000002E28D02078012802D02748FBF771FE74
:10D33000E068002802D12548FBF76BFEE068007822
:10D34000002804D0E06F6668002805D101E00027BE
:10D3500012E01F48FBF75DFE31460831E06FFEF733
:10D36000EBFB002802D00020E06702E01948FBF741
:10D3700050FE022700E00427002D1AD065682846D9
:10D38000FEF7B0FB06000ED01348007C002804D046
:10D390002069A84201D100F0A7F80020611980316E
:10D3A00008700E494855A068B04202D00C48FBF7FF
:10D3B00030FE0020207000F097F83846F8BD0000DD
:10D3C000A4250020FC000C0002010C0003010C004D
:10D3D0006F020C000E010C002426002028210020E2
:10D3E0001E010C0010B5FEF7D5FA10BD10B5FEF702
:10D3F00019FB10BD0148C06870470000A42500203B
:10D400000148806870470000A4250020014840685A
:10D4100070470000A425002010B50830FEF708FB77
:10D4200010BD00000148007870470000A4250020CE
:10D4300010B5FEF7FDFA10BD70B5FEF709FB00222E
:10D44000144C154E10460106930001431B199961B7
:10D45000134605060146083329439D002D19A9618D
:10D46000A11880310870E11880310870B054521C46
:10D47000082AE8D320706060A060E060206107495E
:10D4800060610874064A48741076E0670120887469
:10D4900070BD0000A42500202821002024260020A3
:10D4A000E425002010B50830FEF71CFB10BD70B558
:10D4B0000E4604460025FEF7B5FA002808D021469E
:10D4C0003046FEF739FB002802D000F00DF80125A8
:10D4D000284670BD10B50830FEF784FB10BD10B5AE
:10D4E000FEF79EFB10BD0000F8B50F4C2078002819
:10D4F00019D10E4E307C002815D10825012760690E
:10D50000FEF796FA002802D03774606920616069DE
:10D51000401C6061082801D100206061307C002837
:10D5200001D16D1EEBD1F8BDA425002024260020DA
:10D5300001498874704700002426002070B50F4D03
:10D540002878002802D00E48FBF763FDE86F00281A
:10D5500002D1FEF765FBE86704000CD0FF202070C5
:10D560006078062108436070FF222021A01CFAF792
:10D5700019FE03202870204670BD0000A42500205D
:10D580003B010C0070B5264C2078002802D02548BD
:10D59000FBF73FFD244D0026287C002825D020697C
:10D5A0006060FEF71FFBA060002802D11F48FBF758
:10D5B00030FDA0684078C00705D1A87C002802D0C3
:10D5C0000220E6600FE060680830FEF731FA0328B9
:10D5D0000BD2E06F002802D1FEF722FBE067E0608B
:10D5E000002802D00120207002E02078002816D008
:10D5F000A068002802D10E48FBF70BFD206960608F
:10D6000080000119C87EF923401CC876A2688007F3
:10D610005178400F1940014351702E74012070BDA4
:10D62000A4250020C3000C0024260020C9000C0003
:10D63000E7000C000148007C704700002426002011
:10D6400004480178817041780170880002490858C7
:10D6500000470000302100203421002001480078DC
:10D6600070470000302100200148407870470000DA
:10D67000302100200249887048700870704700000F
:10D680003021002010B50446022802D30248FBF7DF
:10D69000C0FC0248447010BD2A000D00302100205B
:10D6A00070B5049C012904D003290CD0042910D1A1
:10D6B00008E0002A03D10125074E357001E000BFC4
:10D6C000FEE706E005E0002A02D10125024E357092
:10D6D00000BF00BF70BD0000282000203CB50346FD
:10D6E00000BF2548006804242040002801D10820FC
:10D6F0003CBD00BF002B01D10E20F9E7002A01D16B
:10D700000E20F5E71868002806D10C24186860433D
:10D710001A4C2058002801D10720E9E75C681868F6
:10D7200001940090019C0C2518686843134D401922
:10D7300000894843201801900C24009860432C462F
:10D74000001940890C25009C6C430C4D64192489F8
:10D7500060430C25009C6C43084D641964680019F3
:10D76000019CA04201D80720C2E7019C00985460A8
:10D7700010600020BCE70000C82000206C240020BE
:10D78000FEB504460D4600BF41480068042108402C
:10D79000002801D10820FEBD00BF002C01D10E20C1
:10D7A000F9E72068002806D10C2120684843394950
:10D7B0000858002801D10720EDE70C2120684843D4
:10D7C0003449401840890C2221685143314A891854
:10D7D000098948430C22216851432E4A8918496817
:10D7E00040186168884201D80720D4E76068FDF7D7
:10D7F0006FFD002801D11020CDE70C23206858438D
:10D80000244BC01862684068101A00900C222068EF
:10D8100050431A46801801890098FAF787FC0029BE
:10D8200001D00720B7E70C2220685043194A80181E
:10D8300001892846FAF790FC002901D1002D01D179
:10D840000720A8E70C2120684843124940180689A0
:10D850000C22216851430F4A891849894E43606858
:10D8600047190C2120684843114640184068801928
:10D8700001900198874201D907208CE700202B46B0
:10D880000246214600900320FDF7BEF883E7000022
:10D89000C82000206C24002070B508484469601C32
:10D8A000002807D000F00CF8054629462046FAF774
:10D8B0003DFC70BD012000074069FAE70010001030
:10D8C00001200007006980B27047000010B5FDF725
:10D8D000DDF8002017490880FFF7DEFF841EFFF700
:10D8E000EFFF44431448046000201449086000BF5F
:10D8F0000DE000220C214143114B5A500C214143B1
:10D90000C9180A810C214143C9184A81401C0028CA
:10D91000EFD000200B4908700B4908600B490860E4
:10D920000B4908600948006804210843074908605A
:10D93000002010BDA4200020A8200020B820002036
:10D940006C240020AC200020BC200020C820002037
:10D95000C0200020FFB581B00C4615461E4600BF12
:10D960003948006804210840002802D1082005B089
:10D97000F0BD00BF002C01D10E20F8E7019800286F
:10D9800001D10E20F3E72068002806D10C21206881
:10D9900048432E490858002801D10720E7E70C2109
:10D9A000206848432949401840890C222168514386
:10D9B000264A8918098948430C2221685143234A81
:10D9C0008918496840186168884201D80720CEE765
:10D9D000002D07D00C21206848431C4940180089BD
:10D9E000A84201DA0720C2E7A9190C222068504397
:10D9F000164A80180089814201DD0720B7E70198A7
:10DA0000FDF766FC002809D03046FDF761FC0028D0
:10DA100004D06068FDF75CFC002801D11020A6E767
:10DA2000606881192A460198FAF7AAFB00950C2133
:10DA30002068484305490F58002202212046019BD7
:10DA4000B847002093E70000C82000206C24002085
:10DA5000F8B504460D4600BF3F4800680421084061
:10DA6000002801D10820F8BD00BF002C01D10E20F4
:10DA7000F9E7002D01D10E20F5E72068002801D13B
:10DA80000E20F0E7FFF71CFFA188884202DBA08888
:10DA9000102801DA0720E6E7E08800280DD0FFF71C
:10DAA000FBFE471EFFF70CFF4743E088A188484371
:10DAB0002A4909684018874201D20720D3E7207914
:10DAC0008007800F002801D00720CCE72448008879
:10DAD000012801D10420C6E72148008828601F489A
