:020000040001F9
:10800000803C0020558101006F8101002D9A010004
:108010000000000000000000000000000000000060
:10802000000000000000000000000000738101005B
:108030000000000000000000758101007781010050
:10804000798101004DB20100E5BF01007981010095
:108050007981010000000000CD95010079810100C7
:108060007981010045BF010079BF010079810100DC
:108070007981010079810100798101007981010014
:1080800079810100F5B40100798101007981010055
:1080900029B70100B1B70100B9B70100798101002A
:1080A00079810100798101000000000000000000DA
:1080B00000000000000000000000000000000000C0
:1080C0000348854600F06EF900480047BDE3010013
:1080D000803C0020401E00BF00BF00BF00BF00BFAB
:1080E00000BF00BF00BF00BF00BF00BF00BFF1D195
:1080F00070470000401E00BF00BF00BF00BF00BFB0
:1081000000BF00BF00BF00BF00BF00BF00BFF1D174
:1081100070470000401E00BF00BF00BF00BF00BF8F
:1081200000BF00BF00BF00BF00BF00BF00BFF1D154
:1081300070470000401E00BF00BF00BF00BF00BF6F
:1081400000BF00BF00BF00BF00BF00BF00BFF1D134
:10815000704700000321094802680A43026008488A
:1081600002680A4302600748804707480047FEE765
:10817000FEE7FEE7FEE7FEE7FEE70000240500401D
:10818000540500408DB90100C180010030B50B4697
:10819000014600202022012409E00D46D5409D42E1
:1081A00005D31D469540491B254695404019154667
:1081B000521E002DF1DC30BD70B50024254600288C
:1081C00001DA01244042002901DA01254942FFF782
:1081D000DDFFAC4200D04042002C00D0494270BDCF
:1081E00003460B439B0703D009E008C9121F08C0D0
:1081F000042AFAD203E00B780370401C491C521E7B
:10820000F9D27047D2B201E00270401C491EFBD285
:1082100070470022F6E710B513460A460446194691
:10822000FFF7F0FF204610BD421C0178401C0029DA
:10823000FBD1801A704730B504460020034600E0A9
:108240005B1C934203D2E05CCD5C401BF8D030BD98
:10825000024670B54A40D30FDB0740002DD04A00DC
:108260002AD0010E140E000212020919400A520A05
:108270008418E50104465443000A120A2E045043B0
:10828000A4194219200CC543AA18120C0125AD03EC
:10829000521C521912047F39240400D0521C10437E
:1082A00001D44000491EC2B20C06C0092018401C6F
:1082B0004008802A02D003E0002070BD4008400042
:1082C000002900DA0020184370BD420005D04200AA
:1082D000120E52428A4201DB00207047C90508187D
:1082E000704710B500229623114600F022F810BD09
:1082F000C20F410040020123400ADB05D207090EEC
:10830000C0187F2901DA00207047962903DC9623E4
:10831000591AC84001E096398840002AF4D04042FA
:108320007047002904DA401C490001D14008400090
:10833000704770B40024050C05D11024000402D14C
:10834000002921D01124050E01D100020834050FA7
:1083500001D10001241D850F01D18000A41C00283B
:1083600001DB4000641C002908D020252E1B0D468F
:10837000F540A14000D001212943084301061B1B01
:10838000000ADB1D02D5002070BC7047DB05181801
:1083900080180029F8DA401C4900F5D170BC40086B
:1083A00040007047064C0125064E05E0E36807CC07
:1083B0002B430C3C98471034B442F7D3FFF784FEAC
:1083C0001C1D02003C1D020070B58C180578401C75
:1083D0006B075B0F01D10378401C2A1106D102788C
:1083E000401C03E006780E70401C491C5B1EF9D14E
:1083F0002B0705D40023521E0DD40B70491CFAE73D
:108400000378401CCB1A921C03E01D780D70491CA8
:108410005B1C521EF9D5A142D8D3002070BD0000CC
:1084200030B50E4981650022D243014640318A822F
:108430000022827602760A4B438410250584094B7C
:10844000C36101232E242354054C641CC4868586F5
:108450008A700A70601C48810B8130BD15C1010013
:10846000021000008C260020F0B58FB006460C46A6
:108470000025079501200007000F10306946087796
:1084800001200007000F10304877887FF92108404D
:10849000801C694688771C2108A8FFF7BAFEA078DF
:1084A0000223102207A9002805D0082701280DD093
:1084B000022814D01FE008AF3878184310433870F2
:1084C00009950B950C950D910E9514E008A9087867
:1084D0003843087009950B950C950E950BE008A88C
:1084E000007838431843104308AA107009950B957B
:1084F0000C950D910E953078694688716089888059
:10850000009501200007000F1030087001200007BF
:10851000000F103048708878F9210840801CF7213E
:108520000840EF2108400121084369468870142162
:1085300002A8FFF76EFE01A802906846039020890A
:10854000694608824D8220898882606806902346A9
:1085500070880C3302AA08A9A2DF0FB0F0BD002179
:10856000017640300170704710B586B004461A4855
:1085700001460EC9C0680393029201910490002C39
:1085800027D0214601A863DF002820D12078694642
:108590008875012000038882A21C05A90120A0DFA4
:1085A000002814D1214618312046FFF75DFF00282E
:1085B0000DD121462C312046FFF756FF002806D169
:1085C000214640312046FFF74FFF0028FFD106B07B
:1085D00010BD0E20FBE70000601C0200F8B5002073
:1085E000114C002565811149114B0126114A166075
:1085F0000A68002AFCD00D6062899F68D2196281E6
:10860000401CC0B20528F1D360890521FFF7BEFDEB
:1086100020814321C900884201D2A670F8BD0649D5
:108620008842FBD3A570F8BD9A2800200071004055
:108630000075004000700040350200000449012030
:10864000C8630549034A4A60086004498860704766
:10865000C07F00406A0200000075004000730040C7
:1086600010B5082000F03AF8DF210840202101432E
:10867000082000F06DF810BD10B50F2000F02EF8A6
:1086800004460E2000F02AF800022018FFF729FE09
:108690000B21C943FFF719FE0349FFF7D9FDFFF787
:1086A00027FE80B210BD00000000B44310B50B20BF
:1086B00000F014F83821084010BD000005490320DF
:1086C0000860091D086003497039086002490220EA
:1086D00088607047740700500005005010B50446CC
:1086E00001F042FA6C2001F015FA01F06DFA204613
:1086F00001F010FA01F068FA01F036FA6D2001F08D
:1087000009FA01F061FA002001F0D8F9044601F0FD
:1087100043FA204610BD10B504460720FFF7DEFFE0
:10872000CF2108402146302211400143072000F0AC
:108730000FF810BD10B504460720FFF7CFFF8008E3
:108740008000A107890F0143072000F001F810BD48
:1087500070B505460C4601F007FA6C2001F0DAF915
:1087600001F032FA284601F0D5F901F02DFA204641
:1087700001F0D0F901F028FA01F00EFA0A2004F015
:10878000CFFE70BDF0B5C11D274AF9314A63002202
:10879000D2434A86022484760123038407460521B6
:1087A000FF372137397439461031C1610022027612
:1087B0001E4941842E210B5483861C49491CC186C5
:1087C000014640318A700C810A70184DAD1C4D81F4
:1087D0008A758C830A756D1CCD8306466036B2722D
:1087E0000C8632726D1C4D860546A035AA7140314B
:1087F0008B857C7411378F622A710C4FFF1DCF85DA
:10880000AA76C03004802A763D1F45808273838219
:1088100002736A1DC282B3778C80D01EC8808B74AD
:108820000B83401C4883F0BDC9C701000240000013
:10883000F0B58FB006460C460025079501200007CD
:10884000000F10306946087701200007000F103034
:108850004877887FF9210840801C694688771C2169
:1088600008A8FFF7D6FCA0780223102207A9002849
:1088700005D0082701280DD0022814D01FE008AF2A
:10888000387818431043387009950B950C950D9165
:108890000E9514E008A908783843087009950B95DF
:1088A0000C950E950BE008A8007838431843104348
:1088B00008AA107009950B950C950D910E953078BE
:1088C0006946887160898880009501200007000F43
:1088D0001030087001200007000F103048708878B1
:1088E000F9210840801CF7210840EF2108400121B0
:1088F000084369468870142102A8FFF78AFC01A882
:108900000290684603902089694608824D8220893A
:10891000888260680690234670880C3302AA08A9F2
:10892000A2DF0FB0F0BD002101762C2211540246C7
:10893000403211701175682211540246A032117133
:108940001176C0300173704710B586B004463648C2
:1089500001460EC9C0680393029201910490E01D84
:108960003249F9304163002C5BD00021C943418674
:10897000214601A863DF002851D120786946887517
:10898000012080038882A21C05A90120A0DF002805
:1089900045D1214618312046FFF74AFF00283ED135
:1089A00021462C312046FFF743FF002837D12146CE
:1089B00040312046FFF73CFF002830D1214654319A
:1089C0002046FFF735FF002829D12146683120468F
:1089D000FFF72EFF002822D12146A4312046FFF7C1
:1089E00027FF00281BD12146B8312046FFF720FF82
:1089F000002814D12146CC312046FFF719FF00286A
:108A00000DD121467C312046FFF712FF002806D108
:108A1000214690312046FFF70BFF0028FFD106B01A
:108A200010BD0E20FBE70000701C0200C9C701004A
:108A300010B50E4901200870084600F019F804F03E
:108A400083FA08F047FF0948FF210C38002249311A
:108A5000806803F04BFD04F0D9FA04F0EBFE08F057
:108A60008DFB03F01BFC04F0BFFC10BDA82600200A
:108A70000221017100214170C170704701490871E4
:108A800070470000A826002010B50022072900D159
:108A900042700248026002F08BFB10BDD826002015
:108AA000072902D1012141708170704710B54178CA
:108AB000002905D18178012902D18188491C818052
:108AC0008188002904D08178012901D100F002F8C1
:108AD00010BD000010B50446A0880122C11E1A294D
:108AE00004D86078012814D1E27012E001461F39E1
:108AF0001D2905D8607801280BD10220E07008E01C
:108B00003D38092805D22078002802D122700320A0
:108B1000E070044801F0EAF8204600F005F8002073
:108B2000E07010BD842800204178012902D1002185
:108B3000818001707047000000B5244A002310783E
:108B400001280AD05078012817D09078012824D025
:108B50005370937000F042F800BD5079401CC0B2D1
:108B60005071642803D9537100F040F813705079A4
:108B70000128F1D100F032F800BD9079401CC0B25C
:108B800090710A2803D9937100F028F853709079F6
:108B90000128F1D100F02AF800BDD079401CC0B204
:108BA000D0710A280BD9D37100F018F8D078401C86
:108BB000C0B2D0701179884201D39370D370D0794C
:108BC0000128E9D100F012F800BD00000A260020BB
:108BD00001490320086070476807005001200249DE
:108BE0008006C8607047000000050050012002495F
:108BF000800688607047000000050050024801218F
:108C000041700021817170470A260020044801212B
:108C10008170022101710021C170C1717047000093
:108C20000A26002000B50548417A491CC9B24172A4
:108C30000A2902D9012000F02DF800BD22280020C9
:108C400010B5124CA07A05280CD001280ED00228AD
:108C500011D0032814D0042803D100F0DEF800F06E
:108C60009BF810BD0A4800F0BDF810BD00F07CF87C
:108C70000020207210BD00F062F8FFF7D3FF10BD96
:108C800000F0E6F800F088F810BD0000222800206F
:108C9000F427002001498872704700002228002034
:108CA00000B5642806D30448807A052802D1012043
:108CB000FFF7F0FF00BD00002228002010B501786A
:108CC000E7390B0003F00AFA09061F1F0C10161FE4
:108CD0001F1C1F0000F06EF80D4800F0DFF812E0D6
:108CE0000220FFF7D7FF0EE000F016F80320FFF791
:108CF000D1FF08E000F0B7F80420FFF7CBFF02E057
:108D00000520FFF7C7FF03480021017110BD0000D7
:108D1000EC2700205028002010B50446002004F065
:108D2000F7FE0622611C601C04F0A0FE601C04F02B
:108D30001BFF002802D0A01C04F00CFF10BD1CB5C6
:108D4000E420694608706C46481C04F089FE002047
:108D500004F0DEFE0122611C601C04F087FE02218B
:108D6000684600F039FE1CBD1CB5E320694608705A
:108D700005216C46601C3ADF0621684600F02CFE97
:108D8000601C04F0D5FE1CBD024801218172002147
:108D9000017270472228002000B50548017A491C5D
:108DA000C9B201720A2902D90120FFF773FF00BD81
:108DB0002228002010B50446022004F0A9FE062255
:108DC000611C601C04F052FE601C04F0CDFE002803
:108DD00004D00522A11C0248FFF702FA10BD0000D2
:108DE000FA2700207CB50546E720694608706C46E6
:108DF000481C04F035FE05222946A01CFFF7F0F9B7
:108E0000022004F085FE0622611C601C04F02EFE88
:108E10000721684600F0E0FD7CBD1FB5E6206946ED
:108E200008706C46481C04F01BFE0D21A01C3ADFA4
:108E3000A01C04F073FE012004F06AFE0E22611CE7
:108E4000601C04F013FE0F21684600F0C5FD1FBD35
:108E500008B5E52069460870E6204870022168469A
:108E600000F0BAFD08BD10B5401C04F061FE10BD55
:108E700010B503460020002203E09C5C6040521CB9
:108E8000D2B28A42F9D310BD002181707047000030
:108E90000149C87470470000EC270020F8B504466B
:108EA000204604210E30FFF7E3FF4006A17C400E70
:108EB000884278D13C4A01251570277C607CFB01F3
:108EC0009C460343E17BCE1F042E0DD902290BD013
:108ED000CE1E032E4DD803290BD0042911D005290D
:108EE00017D006295BD11FE03049314801F06EFDF3
:108EF00055E030490978884251D10520FFF7C8FF75
:108F00004DE079058003014351600620FFF7C0FF63
:108F100045E05368614619430843506000F042FD44
:108F20000720FFF7B5FF3AE000F024FD224E23288A
:108F300006D13575252000F03BFD0120FFF7A8FF85
:108F4000207D00282BD135751C491B4800F0C4FB3F
:108F50001B4802228169406902F08EF801211848FD
:108F600002F094F8112000F011FD0120FFF790FFAE
:108F700015E00D2906D00E2904D0102906D00F299E
:108F80000BD00CE00320FFF783FF08E0012B06D194
:108F90000120FFF77DFF02E005E00A480387A57185
:108FA0002046FFF771FFF8BD14260020EC270020B3
:108FB000902800200026002030280020F0280020E3
:108FC000A82800201029002070B50446184D05205F
:108FD000294638316A6B05F055FFA078C82801D2C0
:108FE000401CA070A0780026642815D9A07901281B
:108FF0000DD101210F4802F049F80E480322016A01
:10900000C06902F039F80C490C4802F01BFDA6714A
:10901000E671002001F0ACFDA078032802D3288B74
:10902000401C2883A078FFF73BFE0548067070BD02
:1090300030280020A8280020F02800201029002037
:109040001426002070B504460F490420086006204D
:1090500005F0F6FE0025002802D002F0F5F925758E
:10906000062005F0EDFE0126002802D104F00CFCDC
:109070002675A571E571E674E520A0732046FFF71B
:1090800003FF667570BD00001807005030B5044638
:10909000E5202072607B6072A0888104490EA17275
:1090A0004006400EE0722046083004210546FFF7D6
:1090B000DFFE4006400E2073284630BD70B50446E2
:1090C00002F0C2F90025257002F008FA2078411C50
:1090D000217000191049007AC861A078C82801D20F
:1090E000401CA070A078642812D9A07901280DD165
:1090F00001210A4801F0CAFF08480322016AC06939
:1091000001F0BAFF0649074802F09CFCA571E57121
:109110000548057070BD000000250040A82800200B
:10912000F0280020102900201426002010B5044645
:10913000062005F085FE002802D0207D01280ED0F3
:10914000062005F07DFE002808D1207D002805D1ED
:109150000120207504F098FB02F058F910BD0020A2
:10916000207502F071F94FDF01F0B2FF10BD000071
:109170000148807970470000EC270020417382800D
:109180007047000070B500F0E9FB544D112810D075
:10919000E87C042876D00024514B05287DD0062891
:1091A0006FD0072804D1002204212846FFF7E6FFEC
:1091B00070BDE87C012815D002281BD003281FD0E1
:1091C0004849092836D008283DD00A284ED00C2816
:1091D000EED164220B214148FFF7D0FF0020FFF7BA
:1091E00057FE70BD3F480C212038028F3B48FFF7E7
:1091F000C5FF70BD00220D213848FFF7BFFF70BDCD
:1092000039480079022805D0002207213348FFF7AA
:10921000B5FF70BD3348203802F0CCFDC4013148A1
:10922000203802F0D9FD0443A2B205212B48FFF7F4
:10923000A5FF70BD8A7D09212848FFF79FFF002008
:10924000FFF726FE70BD2748203802F0B3FDC401A9
:109250002448203802F0C0FD0443A2B208211F4870
:10926000FFF78CFF0020FFF713FE70BD4A7D0A2137
:109270001A48FFF783FF0020FFF70AFE70BD01E0E8
:109280000BE024E000F076FB2328F7D117480121FA
:1092900002781248FFF772FFF0E7002202210F4820
:1092A000FFF76CFF287D0028E8D1FFF761FF012858
:1092B000E4D15878401CC0B258700A28DED95C70DE
:1092C000112000F063FB0320FFF7E2FDD6E75C709E
:1092D000002203210148FFF751FFCFE7EC270020D0
:1092E000142600203029002090280020002600208D
:1092F000F8B5044625463348803568610020C043F0
:1093000028820027A77627762F48608420462FA141
:10931000983003F00FFE288B2084E869E061204636
:109320002030877307732848401CE08620462AA116
:10933000B03003F0FFFD288EA086686B20632646C0
:109340004036B77037702048801C7081204624A1B9
:10935000A83003F0EFFD288D3081E86A6064B775AE
:1093600037751948C01CF08320461FA1A03003F0B8
:10937000E1FD288CB083686AA065204660300090CB
:109380008772009807721048001D7086204618A149
:10939000B83003F0CFFD288F3086E86BE066009888
:1093A0008777009807770848401DE8802046C0303E
:1093B0000FA1044603F0BEFD2088A880686C2860D9
:1093C000F8BD0000E9D60100022000004E61767968
:1093D00020362E3000000000332E33330000000012
:1093E000322E323200000000322E353500000000EF
:1093F00053314C33313630333132333400000000D6
:10940000F0B58FB006460C460025079501200007F1
:10941000000F10306946087701200007000F103058
:109420004877887FF9273840801C88771C2108A856
:10943000FEF7EFFEA0780221002806D0082307AA35
:1094400001280BD0022813D01FE008AA1078084387
:10945000107009950B950C950E9516E008A90878E3
:109460001843087009950B950C950D920E950CE01C
:1094700008A8007803430B431020034308A8037097
:1094800009950B950C950D920E953078694688716B
:1094900060898880009501200007000F1030087057
:1094A00001200007000F1030487088783840801C79
:1094B000F7210840EF2108400121084369468870E0
:1094C000142102A8FEF7A5FE01A8029068460390A9
:1094D0002089694608824D822089888260680690CA
:1094E000234670880C3302AA08A9A2DF0FB0F0BD92
:1094F00010B586B00446244801460EC9C0680393DF
:10950000029201910490002C3CD0214601A863DF17
:10951000002835D12078694688750120400388826B
:10952000A21C05A90120A0DF002829D1214618315D
:109530002046FFF765FF002822D121462C31204626
:10954000FFF75EFF00281BD1214640312046FFF780
:1095500057FF002814D1214654312046FFF750FF11
:1095600000280DD1214668312046FFF749FF002829
:1095700006D121467C312046FFF742FF0028FFD16B
:1095800006B010BD0E20FBE7901C020010B50C4C7D
:10959000207A012807D10B49FF2288682D3290429A
:1095A00002D8401C886010BD002000F0DDFC00F0F7
:1095B000E1FC002020720221034802F05FFC10BD94
:1095C00084280020D026002010290020F8B500248F
:1095D00000200090FF26013601250027304605F0C7
:1095E00047FC002809D0354840682840002804D0AE
:1095F00033483018002101602C436D00361DB6B28F
:109600007F1C042FEAD3FF207D3005F031FC0028B9
:1096100007D02C4800210160400704432A48006914
:1096200000902A4F200712D00126002526420AD09A
:109630002748AA0011180869C004C00E09698903E7
:10964000890FBA58904776006D1C042DEED3002C7C
:1096500031DA00241D4E0821301940304156491C92
:1096600026D0077ABD06AD0E284603F015FD800012
:109670003658002E1CD0BF090121A940154AA80068
:10968000801800688003800F009A114001D00228E2
:1096900003D000290CD103280AD1032F05D10228B9
:1096A0000AD00221284605F0BBFB39462846B047C0
:1096B000641C062CCED3F8BD0321F3E70063004001
:1096C000006000407C61004000050050C033002075
:1096D000006500400007005010B50C464168090CB9
:1096E00021708188090A61700079A07003212046E9
:1096F00001F0EAFBE07010BD70B5552802D20446B7
:10970000643400E004460321FEF740FD484D012982
:1097100031D000295DD002292CD143212046FEF70B
:1097200035FD891C29700E462E212046FEF72EFDA0
:10973000881C6870B04205D134212046FEF726FD12
:10974000891C697027212046FEF720FD891CA9701D
:10975000B14205D111212046FEF718FD891CA970E0
:10976000A8786978884205D11B212046FEF70EFDB6
:10977000891CA97070BD4B212046FEF707FD891C8E
:1097800029700E462D212046FEF700FD881C6870CA
:10979000B04205D146212046FEF7F8FC891C6970CD
:1097A00038212046FEF7F2FC891CA970B14205D190
:1097B0003C212046FEF7EAFC891CA970A87869784C
:1097C0008842D7D132212046FEF7E0FC891CA970DF
:1097D00070BD47212046FEF7D9FC891C29700E4632
:1097E00037212046FEF7D2FC881C6870B04205D1B4
:1097F00044212046FEF7CAFC891C697032212046AC
:10980000FEF7C4FC891CA970B14205D11F21204676
:10981000FEF7BCFC891CA970A87869788842D7D16A
:109820002E212046FEF7B2FC891CA97070BD0000F5
:109830002426002070B50446002025464035E874F3
:10984000A07B05F0F7FBA87C264E212806D0222815
:1098500009D026280ED0252813D016E06068706045
:10986000E07B707011E02320A8741F487060062010
:1098700070700AE0E07B7070606870602120A874EE
:1098800003E0E07B7070606870602178052005F06F
:1098900067FC707805F046FD207A05F0E9FC207C35
:1098A00005F0ACFCA08905F00DFD7068FFF724FF02
:1098B000706805F06BFC0B48A17A083005F076FC67
:1098C000607A05F00FFD012005F058FDA07A617A5D
:1098D000484305F017FD002005F0AEFC05F046FBFF
:1098E00070BD00001C260020FEFEFEFE094908781F
:1098F000401CC0B2087006280AD90020087006482B
:10990000417C491EC9B24174002901D13C214174F6
:10991000704700001C26002070280020E1218900EB
:109920008181002181730222427203238372C173F9
:109930000123037406230372074B436077230370EC
:1099400001754030C273112202743C22427481734B
:10995000212181747047000071F819000148007CD2
:1099600070470000702800200148407C70470000CC
:10997000702800200148807C70470000702800207B
:109980000149C8737047000070280020014908741D
:10999000704700007028002001494874704700009B
:1099A00070280020014948607047000030280020DE
:1099B00001498874704700007028002010B50C46DB
:1099C000014622460348FEF70BFC02482438046295
:1099D00010BD00005428002010B50C460146224658
:1099E0000348FEF7FDFB02483838446310BD000011
:1099F0006828002070B505460C460321204601F07A
:109A000063FAE17888420CD1207861780004090279
:109A10000843A178084368600120FFF7B1FF0120E7
:109A200070BD0220FFF7ACFF002070BD074803F0B7
:109A300077FD012006490007C860BFF34F8F064934
:109A40000448C860BFF34F8FFEE7000060EA0000E3
:109A5000000500500400FA0500ED00E070B5012596
:109A6000084C6D07E560084903200860A005E06028
:109A7000022003F065FDA560022003F061FDE560B2
:109A800070BD0000000500507807005070B501253A
:109A9000084C6D07E560084903200860A005A06038
:109AA000022003F04DFDA560022003F049FDE560B2
:109AB00070BD00000005005078070050F1B500248B
:109AC00012490C20086000250127114E7F07F7601E
:109AD000022003F035FDB7606006040E30694000D7
:109AE000C00F002801D0641CE4B2012003F028FD5F
:109AF0006D1CEDB2082DEAD30098002803D0FFF7C3
:109B0000ADFF2046F8BDFFF7C1FFFAE77807005028
:109B100000050050F8B505461149032008600127EB
:109B2000104E7F07F7600024E809002814D00120B8
:109B30008007B0606806050E022003F001FDB760E3
:109B4000022003F0FDFCF760022003F0F9FC641C26
:109B5000E4B2082CE8D3F8BD01208007F060E9E703
:109B6000780700500005005070B5094903200860CF
:109B70000126084CB607A6607510A560042003F006
:109B8000DFFCE660042003F0DBFCE56070BD000054
:109B9000780700500005005070B50949032008609F
:109BA0000126084C7607E660A505E560042003F071
:109BB000C7FCA660A560042003F0C2FC70BD0000D5
:109BC000780700500005005070B500240F490C20A4
:109BD000086001200E4D8007A860012003F0B0FC52
:109BE00001267607AE60012003F0AAFC07E0641CA2
:109BF000E4B2FA2C03D9FFF7CFFF012070BD28692A
:109C00004000C00F0028F2D1EE6070BD7807005010
:109C10000005005070B50646FFF7A0FE11282CD0B5
:109C2000FFF79CFE122827D1FFF7A4FE0025252868
:109C300027D0FFF79FFE26282FD00024FFF79AFE9B
:109C400021282CD000210C432BD0002000F08CF9CF
:109C50001120FFF79BFE1D491D48FFF73DFD1D48E4
:109C600002228169406901F007FA0121194801F0D7
:109C70000DFA0120FFF784FE70BD1748FFF704F9C5
:109C800070BD16490878401CC0B208701B28F7D96F
:109C90000D702620FFF78CFE70BD0124CEE7012158
:109CA000D1E7FFF761FE01280CD11120FFF76EFE0E
:109CB0002620FFF77DFE0320FFF7EAF80449012084
:109CC0000875F570FFF712FE70BD0000F028002047
:109CD00030280020A8280020EC2700202B26002078
:109CE0000021C1700121417070470000F8B50446A1
:109CF000954DE17800260127E87800291BD0072937
:109D00002FD0052977D0914D062975D0012974D01F
:109D1000042973D0022972D003290BD101286FD0F6
:109D2000032807D1FEF772FFE6700320FFF7B0F8B3
:109D300000F020F9F8BD012807D10720E07000F0FD
:109D400019F98348077283480660E8780328F1D13F
:109D50000220FFF79DF880490220087000F061FCA6
:109D6000F8BD01280BD16078401CC0B26070062895
:109D700001D9E670677000F0FDF8FEF73FFFA88894
:109D80005528EDD96078E070FEF738FF00F0F2F862
:109D9000E07806280DD0052819D00428E0D0022844
:109DA0002FD00128DCD1FFF7E3F90028D8D1E670E5
:109DB000F8BD66480121203802F0C1F8634805214A
:109DC000203802F05BF8002002F052F8F8BD634D35
:109DD000686860601220FFF7D9FD2220FFF7E8FDD8
:109DE0003C20FFF7D9FD2F750420FFF751F82846D6
:109DF0004030C774F8BD0AE01FE053E066E08AE037
:109E00009CE0FFF7B5F90028F4D1E670F2E70128ED
:109E100005D00328EED1FEF7F9FEE670EAE711203F
:109E2000FFF7B4FD2620FFF7C3FD0320FFF730F84E
:109E30004A480775FEF7E2FEDCE7012810D0032848
:109E4000D8D102F003F8E67040480021203802F033
:109E500076F80220E87500F08DF8FEF7D7FEC9E726
:109E60003A48203801F04CFE012818D137483C49C7
:109E7000203801F0F9FD3B480422816A406A01F074
:109E8000FBF80121374801F001F93148C6702F482D
:109E90000021203802F053F80220E875EE76FEF734
:109EA000ADFEA7E7012807D00328A3D1FEF7AEFE39
:109EB0000920FEF7EDFF9DE7A87D401CC0B2A87504
:109EC000022800D9AF75FEF799FE93E7012819D053
:109ED00003288FD1FEF79AFE0121224801F0D6F81F
:109EE00020480322016AC06901F0C6F817481C49DE
:109EF000203801F0A7FD0320FEF7CAFFE67000F04E
:109F000039F877E7687D002803D06E75FEF776FE96
:109F100070E76F75FAE701280AD003288CD1FEF7A5
:109F200075FEE6700320FEF7B3FF00F023F861E74B
:109F30000820FEF7ADFFFEF761FE5BE70C20FEF7A1
:109F4000A7FFFEF75BFE55E704260020302900201E
:109F500084280020D82600209A28002030280020BD
:109F6000F0280020A82800200149C8707047000090
:109F70008428002000B5032000F034FB042000F00A
:109F800031FB052000F02EFB0C2000F02BFB0D20F8
:109F900000F028FB0E2000F025FB102000F022FB33
:109FA000112000F01FFB122000F01CFB00BD00B5CB
:109FB000032000F01FFB042000F01CFB052000F034
:109FC00019FB0C2000F016FB0D2000F013FB0E20F7
:109FD00000F010FB102000F00DFB112000F00AFB38
:109FE000122000F007FB00BDF8B568480125C178D4
:109FF0000026674C674F40780B0002F06FF80805A9
:10A000004BA2C4954F7DC11CFFF7B2F8002803D0C6
:10A01000B878012810D012E03878411C3970042833
:10A0200006D93E70797869407970042000F0C0F953
:10A03000BD7059480670F8BDBE70FFF79BFF5749C9
:10A04000C878032807D00428F5D18878072819D8BC
:10A0500000F05AFB1AE0E07D01280FD04C4C08209C
:10A06000203C205E1F21FEF7A7F8217BC0B2691AB1
:10A07000C9B200F09DF948480670F8BD052000F00F
:10A08000E1FAF8E7C01FC0B200F018FBBD7042480B
:10A090000570F8BDA07D00F075FAF8BD3B48FFF7EC
:10A0A000B9FDFFF767FC222819D0FFF763FC2328CE
:10A0B00015D0FFF75FFC242811D0FFF75BFC2528A3
:10A0C00003D0FFF757FC2628E7D1FFF770FF34488D
:10A0D000C17C0129E1D1C674FEF798FDF8BD38783E
:10A0E000411C39700128F9D93E707978694079703E
:10A0F000022000F05DF9F8BDE07D062808D00728B1
:10A100000AD005280CD00828F5D1FFF733FFF8BD99
:10A11000012000F097FAF8BD052000F093FAF8BD91
:10A12000092000F08FFAF8BD607D002804D00021DE
:10A13000042000F03DF9F8BD0121042000F038F9B9
:10A14000F8BDFFF715F800280DD0114C0820203C71
:10A15000205E1F21FEF730F8217BC0B2691AC9B218
:10A1600000F026F9F8BD3878411C39700428F9D977
:10A170003E70797869407970042000F019F9F8BDD3
:10A1800000F060FAF8BD00F05DFAF8BD8428002008
:10A1900030290020E42600200A2600203C2600204A
:10A1A0007028002000B5030001F098FF0A21062264
:10A1B0003E5A7692AECAE621032000F01BFA042034
:10A1C00000F010FA052000F00DFA0C2000F00AFA59
:10A1D0000D2000F007FA0E2000F004FA102000F025
:10A1E00001FA112000F0FEF9122000F0FBF900BD89
:10A1F000032000F0FFF9042000F0FCF9052000F036
:10A20000F1F90C2000F0EEF90D2000F0EBF90E2032
:10A2100000F0E8F9102000F0E5F9112000F0E2F973
:10A22000122000F0DFF900BD032000F0E3F9042064
:10A2300000F0E0F9052000F0DDF90C2000F0D2F983
:10A240000D2000F0CFF90E2000F0CCF9102000F026
:10A25000C9F9112000F0C6F9122000F0C3F900BDC1
:10A26000032000F0C7F9042000F0C4F9052000F035
:10A27000C1F90C2000F0BEF90D2000F0B3F90E205A
:10A2800000F0B0F9102000F0ADF9112000F0AAF9AB
:10A29000122000F0A7F900BD032000F0ABF9042064
:10A2A00000F0A8F9052000F0A5F90C2000F0A2F9B3
:10A2B0000D2000F09FF90E2000F094F9102000F01E
:10A2C00091F9112000F08EF9122000F08BF900BDF9
:10A2D000032000F08FF9042000F08CF9052000F035
:10A2E00089F90C2000F086F90D2000F083F90E208A
:10A2F00000F080F9102000F075F9112000F072F9DB
:10A30000122000F06FF900BD032000F073F9042063
:10A3100000F070F9052000F06DF90C2000F06AF9EA
:10A320000D2000F067F90E2000F064F9102000F015
:10A3300061F9112000F056F9122000F053F900BD28
:10A34000032000F057F9042000F054F9052000F034
:10A3500051F90C2000F04EF90D2000F04BF90E20C1
:10A3600000F048F9102000F045F9112000F042F902
:10A37000122000F037F900BD032000F03BF9042063
:10A3800000F038F9052000F035F90C2000F032F922
:10A390000D2000F02FF90E2000F02CF9102000F015
:10A3A00029F9112000F026F9122000F023F900BD50
:10A3B00000B50A46030001F091FE0504204876AA84
:10A3C0001F00032000F00EF9042000F00BF9052017
:10A3D00000F008F90C2000F005F90D2000F00AF952
:10A3E0000E2000F0FFF8102000F0FCF8112000F023
:10A3F000F9F8122000F0F6F800BD032000F0F2F8A2
:10A40000042000F0EFF8052000F0ECF8012A14D049
:10A410000C2000F0E7F80D2000F0ECF8012A10D035
:10A420000E2000F0E7F8102000F0DCF8112000F01A
:10A43000D9F8122000F0D6F800BD0C2000F0DAF8B0
:10A44000E9E70E2000F0CEF8EDE7032000F0CAF8AF
:10A45000042000F0C7F8012A17D0052000F0C2F848
:10A460000C2000F0BFF80D2000F0C4F8012A13D032
:10A470000E2000F0BFF8102000F0BCF8112000F012
:10A48000B1F8122000F0AEF800BD052000F0B2F8DF
:10A490000C2000F0AFF8E6E70E2000F0A3F8102043
:10A4A00000F0A0F8EAE7032000F09CF8012A1AD097
:10A4B000042000F097F8052000F094F80C2000F03C
:10A4C00091F80D2000F096F8012A16D00E2000F029
:10A4D00091F8102000F08EF8112000F08BF8122077
:10A4E00000F080F800BD042000F084F8052000F0A2
:10A4F00081F80C2000F07EF8E3E70E2000F072F8FF
:10A50000102000F06FF8112000F06CF8E7E7012A46
:10A510001DD0032000F066F8042000F063F8052049
:10A5200000F060F80C2000F05DF80D2000F062F8FB
:10A53000012A19D00E2000F05DF8102000F05AF822
:10A54000112000F057F8122000F054F800BD03204D
:10A5500000F050F8042000F04DF8052000F04AF813
:10A560000C2000F047F8E0E70E2000F03BF8102048
:10A5700000F038F8112000F035F8122000F032F821
:10A5800000BD00001EB5024613A14C680B68896827
:10A59000019400930291032000F024F8042000F0BD
:10A5A00021F8052000F01EF80C2000F01BF80D200B
:10A5B00000F018F80E2000F015F8102000F012F846
:10A5C000112000F00FF8122000F00CF86946885CAA
:10A5D00000F010F81EBD0000000304050C0D0E1065
:10A5E00011120000012181400148C1607047000044
:10A5F0000005005001218140014881607047000042
:10A600000005005010B5FFF7B5FC01242046FFF708
:10A61000C9FDC82002F084FF641CE4B20A2CF5D303
:10A6200010BD70B5FFF7C3FC01240A25281BC0B27A
:10A63000FFF7B8FDC82002F073FF641CE4B20A2CD7
:10A64000F4D370BD3EB50AA14B680A6889680193CE
:10A6500000920291094C2188491C89B2218002296B
:10A6600005D96946085C04F0F3FB002020803EBD5C
:10A67000000304050C0D0E1011120000DC26002052
:10A680000C4903200860091D0860091D086009497C
:10A6900024310860091D0860091D0860054934312E
:10A6A0000860091D0860091D086003490020087042
:10A6B000704700000C070050E4260020FEB5054658
:10A6C0000DA04268016880680192009102900D4ED1
:10A6D000F088401C80B2F08001280BD901246F461D
:10A6E00004E0385D04F0B4FB641CE4B2AC42F8D979
:10A6F0000020F080FEBD0000000304050C0D0E10CC
:10A7000011120000DC260020FEB50EA14B680A687D
:10A7100089680193009202910D4EB188491C89B25B
:10A72000B18002290DD9092409216F460D1A04E0D0
:10A73000385D04F08DFB641EE4B2A542F8DB002016
:10A74000B080FEBD000304050C0D0E1011120000B8
:10A75000DC260020CA0702D00921017270478A074F
:10A7600002D50221017270474A0702D50321017206
:10A7700070470A0702D5042101727047CA0602D544
:10A780000621017270478A0602D5072101727047BF
:10A790004A0602D50521017270470A0602D5082132
:10A7A00001727047C90402D501210172704700216E
:10A7B0000172704700210172417270470149002007
:10A7C00008717047902800200149022008717047E5
:10A7D00090280020007A70470149C8807047000027
:10A7E000902800200149012008717047902800201E
:10A7F000F0B50146FF31364A8131CA600022D243AA
:10A800000A810223014620318B7000220A70314CEC
:10A810004485012505850571041D44628A750A7504
:10A820002C49891CC1878387014640318A720A728C
:10A83000284CE41C4C820B828A770A77641CCC84F7
:10A840008B8404466034A2742274224C641D4C87AD
:10A850000B870446E034A27222721E4903460B3174
:10A86000C033598621210172032119860646083614
:10A8700001468031CE66A2772277164E0C36203400
:10A88000E6800427A780A2742274B61C66832783FF
:10A890000E46A036B27132710E4A0F32E285A5859E
:10A8A0008D710C4A921DCA818D818D76521C4A840D
:10A8B0000F84A0308573501CC8868D869D70401C07
:10A8C00058811F819D75401CD8839D83F0BD000079
:10A8D000ADE5010002300000F0B58FB006460C4631
:10A8E0000025079501200007000F10306946087702
:10A8F00001200007000F10304877887FF9210840B9
:10A90000801C694688771C2108A8FDF782FCA07886
:10A910000222102307A9002805D0082701280DD0FE
:10A92000022814D01FE008AF38781043184338705D
:10A9300009950B950C950D910E9514E008A90878D2
:10A940003843087009950B950C950E950BE008A8F7
:10A950000078074317431F4308A8077009950B9514
:10A960000C950D910E9530786946887160898880C4
:10A97000009501200007000F10300870012000072B
:10A98000000F103048708878F9210840801CF721AA
:10A990000840EF2108400127384369468870142198
:10A9A00002A8FDF736FC01A80290684603906946AC
:10A9B0000F824D82208988826068069023467088C5
:10A9C0000C3302AA08A9A2DF0FB0F0BD70B504468F
:10A9D000087CC201487C0243C97B0025891E0B000C
:10A9E00001F07CFB0B070C0C0C0C0C0C0D150C1D5A
:10A9F0000C00E28011462046FFF7ACFE70BD00203F
:10AA0000FFF7B2FA0320FEF743FA657270BD002823
:10AA100003D00128FAD1607270BD657270BD002844
:10AA2000FCD1FFF7A1FA0320FEF732FAFFF7A2FAF2
:10AA300070BD002102462032117011752032117252
:10AA40001177702211540246E0321177FF2311333F
:10AA500019541172FF3021300171704710B586B062
:10AA60000446424801460EC9C06803930292019110
:10AA70000490002C77D0214601A863DF00286FD115
:10AA8000207869468875032000038882A21C05A9E6
:10AA90000120A0DF002863D1214620312046FFF7A6
:10AAA0001BFF00285CD1214634312046FFF714FFFC
:10AAB000002855D1214648312046FFF70DFF0028D8
:10AAC0004ED121465C312046FFF706FF002847D1D2
:10AAD000214670312046FFF7FFFE002840D1214675
:10AAE000E8312046FFF7F8FE002839D12146FC3135
:10AAF0002046FFF7F1FE002832D12146FF31113107
:10AB00002046FFF7E9FE00282AD12146FF312531F2
:10AB10002046FFF7E1FE002822D12146843120465D
:10AB2000FFF7DAFE00281BD1214698312046FFF7B7
:10AB3000D3FE002814D12146AC312046FFF7CCFECD
:10AB400000280DD12146D4312046FFF7C5FE00284C
:10AB500006D12146C0312046FFF7BEFE0028FFD1B6
:10AB600006B010BDFFE70E20FAE70000B01C02009F
:10AB700001490872704700009028002070B5FF213D
:10AB80002B4A49310A5000220146D243FF3141315C
:10AB9000CA80022585760123038411220A71091DCA
:10ABA000C16100210176234A42840246203291731A
:10ABB0000424848611731F4A521CC2860246403206
:10ABC0009170138111701B4B5B1D538191759483A0
:10ABD00011755B1CD3830346603399721486197216
:10ABE000144EF61D56869977403295801977731C5E
:10ABF000D3809174158311745B1C53830346A03377
:10AC0000997195851971F61CD68599764032158013
:10AC10001976731C53809173948211735B1CD382D9
:10AC2000E030817014850170581C508570BD0000A3
:10AC300019E6010002600000002101760246403260
:10AC400011701175203211721177403211719023F9
:10AC500019541176CC221154E03001707047000075
:10AC600010B586B00446384801460EC9C068039343
:10AC7000029201910490FF20344949300151002C87
:10AC80005FD0214601A863DF002858D120786946AB
:10AC90008875032040038882A21C05A90120A0DF3B
:10ACA00000284CD121461831204601F0F8FF002839
:10ACB00045D121462C31204601F0F1FF00283ED13C
:10ACC00021464031204601F0EAFF002837D12146D5
:10ACD0005431204601F0E3FF002830D1214668318D
:10ACE000204601F0DCFF002829D121467C31204696
:10ACF00001F0D5FF002822D121469031204601F0F5
:10AD0000CEFF00281BD12146A431204601F0C7FF09
:10AD1000002814D12146B831204601F0C0FF002898
:10AD20000DD12146CC31204601F0B9FF002806D1D3
:10AD30002146E031204601F0B2FF0028FFD106B0E5
:10AD400010BD0E20FBE70000801C020019E6010088
:10AD500010B503F0DDFC10BDF7B507460024012057
:10AD60002E490004154688602D4EB078002802D088
:10AD70002C48FFF7EDFF002F02D12B48FFF7E8FF2B
:10AD80007068002802D02948FFF7E2FF2846776064
:10AD90000127274D002820D0012828D0022824D0C0
:10ADA0002448FFF7D5FF2448B770002101600199BE
:10ADB000611889B229602E6820494F606D6800686B
:10ADC000002802D01E48FFF7C3FFA64211D3A542B8
:10ADD00001D3B5421CD31B4818E0184847606C6883
:10ADE0000760154900200860DDE7AC68DBE72C68E8
:10ADF000D9E7B54201D2012000E00020AC4201D8E1
:10AE0000012100E00021884202D10F48FFF7A0FF96
:10AE1000012002490004486003B0F0BD00A30040D7
:10AE2000C8270020730004007500040076000400A9
:10AE300040A500408900040040A1004040A000401F
:10AE40009B000400B0000400C90004008307FF2237
:10AE5000DB0E9A408907090E994000280BDA00079B
:10AE6000000F0838830808489B001818C3699343EB
:10AE70000B43C3617047830804489B00181803689C
:10AE800093430B430360704700ED00E000E400E0F3
:10AE900007490020C8630749C8630749C8630749D1
:10AEA000C863C8630649C8630649C86370470000A1
:10AEB000C03F0040C04F0040C0CF0040C0FF004036
:10AEC000C02F0140C03F014010B5034600200022C2
:10AED00004E09C5C2018C0B2521CD2B28A42F8D363
:10AEE00010BD000010B50F4A04211046343800F0A0
:10AEF00089F80C490C4800F0E2FF0A4A0321104689
:10AF00003C3800F07FF80749074800F0BAFF054ACF
:10AF100002211046443800F075F802490348FEF754
:10AF200069FD10BD002900201029002030280020D4
:10AF300010B5002A04D00F21890105F0D3FE02E0EC
:10AF4000102105F0CFFE002806D104480021017031
:10AF500001780029FCD0002010BD00003026002020
:10AF60001CB525480021017105F02EFF002842D1B3
:10AF70001020694688803C20C880204800902049E5
:10AF8000684605F0A1FF1C4A00213C3A1C4805F028
:10AF900075FE00282FD1184A0121343A184805F0CF
:10AFA0006DFE002827D1144A02212C3A144805F0DE
:10AFB00065FE00281FD1104A0321243A104805F0ED
:10AFC0005DFE002817D10C4A04211C3A0C4805F0FC
:10AFD00055FE00280FD1084A0521143A084805F00B
:10AFE0004DFE002807D1044A06210C3A044805F01A
:10AFF00045FE0028FFD11CBDE8280020190C0200E6
:10B000003426002010B5014610460023102205F01A
:10B01000FFFE002801D10149087010BD3026002034
:10B0200070B5044620463C30002205462168FFF7F3
:10B030007FFF054A2846216800F008F800212046D5
:10B0400000F024F870BD0000F028002010B5114673
:10B050000023102205F09AFF002805D103490022A1
:10B060000A700A78002AFCD010BD000030260020AB
:10B07000403000797047000007B50348019B0099F4
:10B08000C163036402600EBDA82800204030017136
:10B090007047000030B50C4900254D800A78531CDC
:10B0A000DCB20A4B0C709854102C00D30D700020A9
:10B0B0001A5C4C8812194A80401CC0B21028F7D381
:10B0C00048880005000E30BD422600204E29002091
:10B0D00001490020C88070479A28002010B509480F
:10B0E000FFF7C6FF00280BD1012007490007C86001
:10B0F000BFF34F8F06490548C860BFF34F8FFEE787
:10B1000010BD0000A8280020000500500400FA052A
:10B1100000ED00E010B50346084903200860074829
:10B12000002454380460012005490007C860FDF779
:10B1300085FA1C709C80DC809C7010BD70070050EC
:10B140000005005010B50F48007802280AD10E49BA
:10B150000878401CC0B20870022804D0032801D926
:10B16000FFF7BCFF10BD01210848FFF78FFF07481C
:10B170000322016AC069FFF77FFF0549054800F017
:10B1800061FC10BD9A2800202C260020A828002051
:10B19000F02800201029002010B5FDF7E9FF002855
:10B1A00003D102488188491C818010BD9A28002063
:10B1B00001490020888070479A2800200120024918
:10B1C00000078860704700000005005080787047D5
:10B1D00010B58188B42901D302210170FFF7B2FFB5
:10B1E00010BD000070B504460026154D23E06078C0
:10B1F000002820D0134800690006C00F00281AD18B
:10B2000066706888401C80B26880642813D36E80A2
:10B21000FFF7D4FF01202070FDF73AFEFDF7E6FCB2
:10B22000FF202D3003F0F2FAFDF7D8FC0649032089
:10B230008870FFF7E7F920780028D8D070BD0000AB
:10B240002C2600200005005004260020F8B55F4C95
:10B2500020696778401C2061607D002802D05C482E
:10B26000FFF776FD204622785A4D00245A495B4E5E
:10B27000032A3FD1CA68002A3CD0012F03D0022FF5
:10B280002FD057489EE007460069032802D0554852
:10B29000FFF75EFD02203870B969491CB961524957
:10B2A0000C60C11EA960514908604B48C46004602D
:10B2B00004614460032179707C603C753268117DC3
:10B2C00000290AD04A498B68BB75C461494B0120EB
:10B2D0009861494B042098608C60D06800283AD16E
:10B2E000F8BD0069012802D04448FFF731FD04F0A1
:10B2F00017FEF8BD032F64D0012F2ED0022FF6D0F9
:10B3000042783F4B1201D218137B0027002B03D049
:10B31000CB68002B00D00127927A334B02701C605F
:10B32000032A48D00022D243AA60304B02221A607E
:10B33000CC60032242700C600C614C604460047568
:10B3400030680069002800D08047002FD1D03068D5
:10B3500080680028CDD08047F8BD0269012A18D046
:10B36000022AF9D1CC600C610C601F490C60111FDE
:10B37000A960082169600321017044600475306888
:10B380000069002800D08047306880680028E2D13A
:10B39000F8BD0C604C600021C943A96001216960BF
:10B3A0003168097D002902D0134A042151601549F2
:10B3B000C0684860F8BD0822D243AA6008226A60CB
:10B3C000B9E71148FFF7C4FCF8BD0000683500205C
:10B3D00090010A000013004000110040D027002017
:10B3E000A9010A009F010A000012004080E200E06B
:10B3F000401500400010004000F50140A4010A0083
:10B40000EC1C020000150040D6010A000949042086
:10B410000860084908310860091F0860064A0021D1
:10B420001160064A91601160054A91600549086003
:10B430007047000020070050002500400020004019
:10B440000021004080E100E010B5164903200860AB
:10B45000144A0C2108321160111F0860124808219B
:10B46000C1600A214161114A80215160042151606B
:10B470000D4A00234032D3620D4A426201600D4AF8
:10B480000120906010600C4883600C480268FF2324
:10B490001B049A430B051A4302600948016000F03F
:10B4A0001DF810BD2007005000250040002300407B
:10B4B00000509D00002000400021004000E400E01A
:10B4C00000E100E003480121C1600160024940152C
:10B4D000C86070470020004000050050034801216B
:10B4E000816041600249401588607047002000403B
:10B4F0000005005010B506490020086048608860CB
:10B50000C860034940390860486006F0A5F910BDDD
:10B510004011014030B5024617498032916700233F
:10B52000DB43F4210B5200248476047613494184D2
:10B5300001230384014620318C730C730F49491C8D
:10B54000C18602248486014640318B700B4DAD1CB0
:10B550004D810B818B756D1CCD838C836030837224
:10B560006C1C4C860B868377601CD0809380937410
:10B57000401C5083138330BD0915020002500000A7
:10B58000F0B58FB006460C46002507950120000750
:10B59000000F10306946087701200007000F1030B7
:10B5A0004877887FF9210840801C694688771C21EC
:10B5B00008A8FCF72EFEA0780223102207A9002875
:10B5C00005D0082701280DD0022814D01FE008AFAD
:10B5D000387818431043387009950B950C950D91E8
:10B5E0000E9514E008A908783843087009950B9562
:10B5F0000C950E950BE008A80078384303431343DD
:10B6000008A8037009950B950C950D910E9530784F
:10B610006946887160898880009501200007000FC5
:10B620001030087001200007000F10304870887833
:10B63000F9210840001DF7210840EF2108400127AB
:10B64000384369468870142102A8FCF7E2FD01A87E
:10B6500002906846039069460F824D822089888255
:10B66000234670880C3302AA08A9A2DF0FB0F0BDF0
:10B6700000210176203001737047000010B586B0BC
:10B680000446284801460EC9C068039302920191FE
:10B690000490002C43D0214601A863DF00283CD150
:10B6A000207869468875052000038882A21C05A9B8
:10B6B0000120A0DF002830D1214618312046FFF7B5
:10B6C0005FFF002829D121462C312046FFF758FF83
:10B6D000002822D1214640312046FFF751FF0028A3
:10B6E0001BD1214654312046FFF74AFF002814D1D0
:10B6F000214668312046FFF743FF00280DD121463F
:10B700007C312046FFF73CFF002806D121469031CE
:10B710002046FFF735FF0028FFD106B010BD0E20F0
:10B72000FBE70000A01C0200F8B5204D2C46803439
:10B73000012080F310886068002832D020680C2136
:10B74000484340190279310A090211434279FF2323
:10B750001B02120299431A40114382791B02120400
:10B7600099431A401143C2790E02360A11060E435C
:10B7700081688289C08997B2000407436068401ECF
:10B7800060602068401C206020680A2801D30020E7
:10B790002060002080F310882B683A463046984796
:10B7A000C6E7002080F31088F8BD00008C3500202B
:10B7B00010B505F08BFF10BD10B507484068002894
:10B7C00007D08047002803D00022114600F0E8FD92
:10B7D00010BD02F013FA10BD8027002010B50649F5
:10B7E000012048750020FEF7F7FF04490020087289
:10B7F0001120FEF7CBF810BDEC2700209028002088
:10B8000010B504464E48C07805286BD0062806D1EE
:10B8100000F01CFB002802D0052000F0A3F84948E6
:10B82000FFF7D4FC012807D000F010FB002807D058
:10B83000052000F097F841E0042000F093F83DE087
:10B840004148FEF7C7FF02284DD03F48FEF7C2FF30
:10B8500004284CD03C48FEF7BDFF03284BD03A48A3
:10B86000FEF7B8FF06284AD03748FEF7B3FF08288E
:10B8700049D03548FEF7AEFF052848D03248FEF7DC
:10B88000A9FF072847D03048FEF7A4FF012846D07B
:10B890002D48FEF79FFF092845D0FCF707FF102829
:10B8A00045D02A48807E012841D0E078032805D081
:10B8B00000F0C2FA0320E07000206070E0780428F5
:10B8C00039D0FEF781FF00F0B7FAFDF751FC0028F0
:10B8D00008D10120FDF7DCFA00F0A0FAFEF782FFA4
:10B8E000FFF77CFF10BD082000F03CF8E6E70920D8
:10B8F00000F038F8E2E70A2000F034F8DEE70B2029
:10B9000000F030F8DAE70C2000F02CF8D6E70E2033
:10B9100000F028F8D2E70F2000F024F8CEE70D2041
:10B9200000F020F8CAE7102000F01CF8C6E7072056
:10B9300000F018F8C2E7FEF741FF00F06FFAC4E725
:10B94000842800209A2800209028002030290020F8
:10B950000021417081700322C2700170704700792C
:10B960007047000002490422CA70887070470000C6
:10B970003C260020014901200860704700900040EB
:10B9800001490120486070470090004010B502F066
:10B990009BF9002805D00F490D484860C8130E498F
:10B9A000886102F079F9002802D00C4901208860F2
:10B9B00002F0D6F900280AD009480168012904D00C
:10B9C0000849016001680129FCD1C021416110BD15
:10B9D000DFFF07C000050040006C0040000600408B
:10B9E00000EC064075930000104A01205060104999
:10B9F00000234B6002238B6004230B61D0607D2108
:10BA00000B4A0901403211600A4902044A600A499E
:10BA100008600A490868FF22120290430322920339
:10BA2000104308600649D801086070470090004044
:10BA300000950040009300400092004008E400E0C0
:10BA400000E100E010B50C46018F090A2170018F5A
:10BA500061702030417DA170807DE070042120461E
:10BA6000FFF732FA207110BD10B50C46002121708D
:10BA70006170C28A120AA270827DE27021716171C6
:10BA8000028C120AA271028CE27121726172418CE5
:10BA9000090AA172408CE0720C212046FFF714FACB
:10BAA000207310BD00B5428C018C8A4211D2E1296D
:10BAB00003D80B468733C38202E00B46E03BC382C8
:10BAC000881A502801DD642802DB012000F0D0F93B
:10BAD00000BD8A420FD90B468733C382501AFF211B
:10BAE0000531884203DDFF2119318842F0DB012056
:10BAF00000F0BEF900BD012000F0BAF900BD000061
:10BB000010B50446FEF736FA22462032D07D0528CD
:10BB100004D0072809D006280DD011E00720D075E1
:10BB2000204600F099F9002010BD0620D075208E27
:10BB3000E082002010BD0820D075204600F08CF96E
:10BB4000D07D08283ED120490020C87000211F4820
:10BB500000F0F5F91D4802212030C17587202085AD
:10BB60006085618C208C814212D2E12803D8024684
:10BB70008732E28202E00246E03AE282401A50282E
:10BB800001DD64281ADB012000F072F9002010BDED
:10BB9000814210D902468732E282081AFF2105311C
:10BBA000884203DDFF211931884207DB012000F0C4
:10BBB0005FF9002010BD012000F05AF90021034870
:10BBC00000F0BDF9012010BD8428002010290020BC
:10BBD000F8B5044676480125C17E002904D1014606
:10BBE00020390A8E4A86C576618C208C2246203206
:10BBF000814271D2238E668E9F1BBC461E373C2F1E
:10BC00001FD91E2E09D81F46FF3F4A3F1F2F04D2BF
:10BC1000F71AFF3768371E2F13DDFF3E4A3E1F2EEF
:10BC200006D21E2B04D86646FF3668361E2E08DD67
:10BC3000107F411C1177052802D9957600201077D6
:10BC4000F8BD638683420AD28B4208D9C21A052AFC
:10BC500001DC208603E05A1A052AF1DC2186FF2345
:10BC60006833E12828D8218EE28A91420AD881429D
:10BC700008D3A581501AC101081A8721FCF79CFA44
:10BC8000E08089E091420BD9994209D80020A08137
:10BC9000881AC101081A8721FCF78EFAE0807BE040
:10BCA0000020A081881AFF306830C101081A87215E
:10BCB000FCF782FAE0806FE0208EE28A90420CD995
:10BCC00088420AD80021A181801AC101081A87215F
:10BCD000FCF772FAE0805FE014E0904208D8A5819A
:10BCE000101AC101081A8721FCF766FAE08053E0B8
:10BCF000A581181A8018C101081A8721FCF75CFA7F
:10BD0000E08049E0814244D9238E668E9F1B1D3717
:10BD10003A2F02D8F61A1E2E08DB107F411C11772D
:10BD200005288DD9957600201077F8BD638683426B
:10BD300001D38B4210D9834207D20A46FF3A693AAF
:10BD400001D0208608E0218606E08B4204D9002835
:10BD500001D0218600E02086228EE38A9A420AD80A
:10BD6000824208D3A581981AC101081A8721FCF7DD
:10BD700023FAE08010E08A420ED89A420CD90020C3
:10BD8000A081D01AC101081A8721FCF715FAE080BA
:10BD900002E0012000F06CF8A079FFF77BF9208128
:10BDA0007F2801DD7F20208120896081F8BD00008F
:10BDB00030290020024600200649497D002904D090
:10BDC000012901D10C20105E704791890029FBD117
:10BDD00001207047302900200821415E0846704745
:10BDE00010B5002242708280012383810224014623
:10BDF0002031CC75C2804A758B75872404854485B3
:10BE0000048E44860B758A760348C2760A77012031
:10BE100000F02EF810BD0000302900200549C87D33
:10BE2000022803D0032801D0042801D10020C875BE
:10BE300070470000302900200348C17D002901D14E
:10BE40000221C175704700003029002001480078A8
:10BE500070470000102900203721095C082904D010
:10BE6000072901D1018E41847047018E01847047FA
:10BE70000149087070470000102900202030C1756A
:10BE8000704770B506460C4604212046FFF71CF8A3
:10BE900021793546203588420BD120780002308741
:10BEA000617808433087A0786875E078A87501202C
:10BEB00070BD002068750220A875002070BD70B5A7
:10BEC00005460C460C212046FEF7FEFF217B8842EA
:10BED00028D12178E078090640186178A278090411
:10BEE000120289184018E8822179E0790906401881
:10BEF0006179A27909041202891840182884217AEC
:10BF0000E07A09064018617AA27A090412028918B7
:10BF1000401868840020FFF7ABFF2846FFF7C2FDFA
:10BF2000012070BD7920E882FF205C302884FF204A
:10BF3000053068840120FFF79BFF002070BD8170F1
:10BF40007047000010B50A48016800290ED0002192
:10BF50000160084C6068411C6160FF21F531FCF70D
:10BF600015F9002902D12068401C206010BD000096
:10BF700040910040D026002070B5012013490004F4
:10BF80008860134800250560124C6068002802D1C3
:10BF90001148FEF7DDFEA570636810480122656058
:10BFA00042600F484168006895031430A94205D2E9
:10BFB0000325AD03A84201D9627005E0814201D397
:10BFC000012000E000206070984770BD00A3004091
:10BFD00040A10040C8270020EC00040040A0004021
:10BFE00040A5004070B51C48416A0025002903D0D7
:10BFF00045621A4A0F21116082681849184C803135
:10C00000002A15D085608869C1B26078002801D106
:10C01000E52903D1421C62700019817360780528FC
:10C0200005D10F48FCF73AFF6570FFF7EFF970BDD7
:10C03000C269002A0DD0C5612078052805D2421CAE
:10C0400022700019007AC86170BD2570FFF73AFAB6
:10C0500070BD8560C56170BD002100408024004036
:10C06000EC270020044801218160054A0349116042
:10C070000021816070470000000501403546526E86
:10C080000006014000B50E480C4941600021C16026
:10C09000C26801210A43C260C26808231A43C26011
:10C0A000C268F7231A40C2600648016000F00CF82D
:10C0B0000028FBD0FFF7D6FF00BD0000FFFF020005
:10C0C000000501400000014003480068002801D03D
:10C0D00001207047002070470004014030B47446CE
:10C0E000641E2578641CAB4200D21D46635D5B0074
:10C0F000E31830BC184702E008C8121F08C1002A24
:10C10000FAD170477047002001E001C1121F002AD8
:10C11000FBD17047F8B506460D461C498888401C7F
:10C12000888000211A486A5C4254491CC9B210290F
:10C13000F9D3164829460C3001F058FE34464034F5
:10C14000002809D00F202077009001236A4621465D
:10C15000304600F04FFBF8BD0C4829461C3001F07A
:10C1600045FE002809D010202077009001236A4660
:10C170002146304600F03EFBF8BD1120009001231F
:10C180006A462146304600F035FBF8BD60260020A7
:10C19000102A0020F8B504460E461546002000215E
:10C1A00029702178002906D02A463146204602F01F
:10C1B000FEF9002869D1A178002905D0294630462A
:10C1C00000F0DCF9002860D1E17800290ED0297850
:10C1D00002224B1C2B707254297801224B1C2B70AD
:10C1E00072542978E2784B1C2B70725461680029D4
:10C1F00007D0002008562A46314605F08DFB00285E
:10C2000043D12189002909D0204633460622022144
:10C210000830009505F09EFC002836D1218A0029BF
:10C2200009D020463346072203211030009505F03F
:10C2300091FC002829D1218B002909D020463346C2
:10C24000152214211830009505F084FC00281CD11B
:10C25000236A002B06D02A463146184601F092F890
:10C26000002812D1636A002B06D02A4631461846B0
:10C2700002F06AF9002808D12C21095D002904D0B8
:10C280002A463146204604F039FFF8BDC078400701
:10C2900001D40720704700207047000030B5A3B0DC
:10C2A000302117A8FBF7B5FF022010A9087700245A
:10C2B0008C770625CD7730210BA8FBF7AAFF6946BE
:10C2C0008D870E481090242102A8FBF7A2FF0120C1
:10C2D00008A9087069200001099005200A90084B00
:10C2E00002AA0BA917A8009400F0E4FA002803D0D2
:10C2F0000022114600F054F823B030BDAE260020D5
:10C300000508020070B50024064D06E06968E000EB
:10C31000085C012102F0BAFA641C28788442F5D343
:10C32000002070BD48270020F8B505460C4616468B
:10C33000052E01D20720F8BD02F07CFB002803D1B6
:10C3400002F04EFB0028F6D111484560047086606B
:10C350000021016141610F4E0DE0E000411930689C
:10C36000009088786A46507008780B4A694602F057
:10C37000E1FA0028DFD12046641EE4B20028ECD1A7
:10C380000348064A00210C3000F032F8F8BD0000E6
:10C3900048270020E81C020011DA010049D50100FD
:10C3A0007047000038B50C462178A2680C235A4328
:10C3B000054B9D58054A126A0092024620460830F5
:10C3C0002369A84738BD0000DC3400202427002062
:10C3D00010B5064914230A785A435118091DFFF76E
:10C3E000E1FF042004F052FF10BD000010340020D3
:10C3F00070B5104D6C68002C04D0002A04D00023C6
:10C400002D7809E0082070BD072070BD24265E430A
:10C41000A65D002E04D05B1CAB42F7DB042070BD90
:10C42000012624255D4366552C196170A2610360C5
:10C43000002070BD60270020FFB581B00A9F0C4628
:10C4400016461D46A8070CD0002000280BD004F08B
:10C450003DFE22494F610C702B464D6000200022AA
:10C460000BE00120F1E7072005B0F0BD24270146CD
:10C4700079435A54C9180A75401CA042F6DB24209F
:10C4800044436319154F032078701C46BB60183372
:10C490000021354618204543C8000019027042703B
:10C4A00086704360EB18491C0329F5DB0020C0436C
:10C4B000F860BA70FA700124094864050460032129
:10C4C0001520FEF7C3FC07480460019804F0D8FD6E
:10C4D0000548406838610020C6E70000602700205A
:10C4E00080E200E000E100E000150140F8B50446FC
:10C4F0000D46164612484168002906D0007884424D
:10C5000001D2052D03D20720F8BD0820F8BD204632
:10C51000242250430A5C012A01D00820F8BD4018AB
:10C520004078012809D0002705F0CEFA3B462A467C
:10C530002146009605F05AF9F8BD2F46F4E70000B1
:10C540006027002010B504460B494868002804D035
:10C5500009788C4203D3072010BD082010BD242188
:10C560006143405C012801D0082010BD05F0ACFA01
:10C57000214605F05BF910BD6027002038B505465F
:10C580000C462078001D1F2801D90C2038BD6846B4
:10C5900079DF0028FAD120780322411C21702A5427
:10C5A00020781922411C21702A54207841196846AC
:10C5B000008805F0C7F9217840182070002038BDA8
:10C5C000F0B549488BB003684849494A012B02D06D
:10C5D0004B6B002B05D153681B78202B01D801230E
:10C5E00000E00023434D03242C700024404A002B1C
:10C5F000146057D084688268CA623D4A03A90192D8
:10C600000091C26801232146184603F065FE002808
:10C6100024D0012805D0022824D003284FD0364842
:10C620004BE00398002802D03448FEF791FB2046E7
:10C6300003F0A4FF002802D13148FEF789FB6868A7
:10C640000222817D6846002602700196068146819D
:10C6500044708170C67003F0E1FD30E02948FEF7B8
:10C6600077FB2CE00398002802D12748FEF770FBE7
:10C67000204603F083FF002802D12448FEF768FB20
:10C6800068680222817D039E6846027000236A4624
:10C69000019613815381447001278170C77003F0A4
:10C6A000BDFD0CE0002000900346024601460190CB
:10C6B00003F012FE042802D01548FEF749FB0C4C8B
:10C6C0002068002807D001206075124820610420EE
:10C6D00028700BB0F0BD03F0D9FB0020607520611D
:10C6E00000F01AF80BB0F0BD001400400015004037
:10C6F00044350020B4270020C8050900B80509000A
:10C70000B9050900BD050900C0050900C1050900FA
:10C71000CF050900B5C7010070B503F0B7FB1C4C8D
:10C7200000251C4E0120256130701B481B49006903
:10C73000086303F029FF00281FD003F025FF03281A
:10C7400002D01748FEF704FB022003F09BFC0020F8
:10C7500003F012FD03F018FF032802D01148FEF782
:10C76000F7FA3078012802D00F48FEF7F1FA0220DC
:10C7700030700E482561E06070BD03F08BFD02282B
:10C78000E2D303F08DFF60600028DDD10848D9E7CF
:10C7900044350020B4270020F43400200015004068
:10C7A000800509008805090092050900C1C501003E
:10C7B0007B05090010B5034905200870FFF7ACFFA1
:10C7C00010BD0000B4270020704710B500280AD023
:10C7D000002908D00A88102A06D0112A07D0502A2A
:10C7E00001D104F0FDF810BD04F06CF810BD04F0A8
:10C7F0009FF810BD1FB584B0144B5C78641C5C704E
:10C80000002802D10B78002B07D04030838A104CCF
:10C81000A34204D1082008B010BD0E20FBE76B46F0
:10C820009B8B142B01D90720F5E70023009301937C
:10C830000293039389896B461980039207A9029199
:10C8400001219970808A6946A6DFE4E7602600200E
:10C85000FFFF000030B593B005460C460020129053
:10C860001190002D0DD02846FFF710FD00281FD194
:10C8700012AA09A92846FFF78DFC002818D109AD96
:10C8800000E00025002C0DD0204604F041FD0028DA
:10C890000ED111AA01A92046FFF77CFC002807D180
:10C8A00001AA00E0002210A80379017A284672DF6D
:10C8B00013B030BD70B50D461146049A0446002CE5
:10C8C00041D000293FD0424800264671C360026132
:10C8D00024224048FBF784FC00F0D0F83D49343175
:10C8E0000846103801602031816030215438FBF750
:10C8F00090FC384A2078303A1070A0789070E07838
:10C90000D070607850706169206951611061E16890
:10C91000A068D16090601046E369A169C36181613C
:10C92000606A002819D01046A430506203460C33C8
:10C930008360616A09880180606A516A80888880A2
:10C940000020516A06E00E2070BD666AB668365C4B
:10C950001E54401C8E888642F7D8A06A00281CD03E
:10C960001C49AC3108460C3881609062A36A9B88F0
:10C970008380A06A936A008818800020936A04E08C
:10C98000A66AB668365C0E54401C9E888642F7D86C
:10C990002C20015D0F4810380173206A002809D04F
:10C9A0000B4814301062216A49884180206A116A5C
:10C9B000008808806068002804D00548801D506009
:10C9C00060685060034829463038FFF743FF70BD68
:10C9D000EC260020D832002010B50188264C102902
:10C9E00017D00022112917D0192911D180790028D8
:10C9F0000ED1607901281ED0022826D003282ED01F
:10CA0000042805D122711046E168002900D088472A
:10CA100010BD8088208110BD627080882189884285
:10CA2000F9D1012000F032F80028F4D02169002962
:10CA3000F1D0884710BD022000F028F80028F9D076
:10CA400021690029F6D0884710BD032000F01EF8A8
:10CA50000028F9D021690029F6D0884710BD0320AD
:10CA60002071042000F012F80028F7D02169002975
:10CA7000F4D0884710BD0000EC26002010B5072137
:10CA80000148FBF7C6FB10BD04270020F0B587B0B6
:10CA9000764C607100250095684604F0DBF80828A4
:10CAA00009D0002805D100980127002805D027705B
:10CAB000002007B0F0BD0095F5E7FFF7DFFF6C4EF3
:10CAC0007078002802D06079012805D0B07800285D
:10CAD0000AD06079022807D1E168002903D0E77005
:10CAE0000820884700E0E570607901280AD1707855
:10CAF000002805D05D48193004F06AF8002801D1FB
:10CB000002206071607902280AD1B078002805D02F
:10CB10005648193004F05CF8002801D103206071F8
:10CB2000307B002804D16079032801D10420607192
:10CB3000307E002804D16079042801D16571257107
:10CB4000E16800290AD06079032801D0042805D1C2
:10CB50003078002802D06078002817D0A5701821FE
:10CB600001A8FBF756FB684605710295057304950D
:10CB7000607901280ED0022815D03D4D24352F466E
:10CB8000543F03281BD0042851D13DE0A770072053
:10CB90008847E4E735481830029068460771C58237
:10CBA0008582277143E031481830029069460F7141
:10CBB0003089C882B08888820220207137E0B08A2C
:10CBC0006946C882308A88822948243005F028F8CE
:10CBD000002805D03078002802D06078002802D0E4
:10CBE0000320207123E00220694608730495042085
:10CBF000F8701F4800213038FFF72CFE002800D0C5
:10CC000057E70520207112E0B08B69468882308C8E
:10CC1000C8821748243005F003F8002805D0307882
:10CC2000002802D0607800280FD00420207160799D
:10CC3000002803D001A873DF0028E1D1E1680029B2
:10CC400001D020798847002033E702206946087325
:10CC500004950420F870064800213038FFF7FAFDEB
:10CC60000028F1D106202071E1E70000EC26002029
:10CC7000D832002010B500280AD0002908D00A8830
:10CC8000102A06D0112A07D0502A01D103F0D2FE73
:10CC900010BD03F01DFE10BD03F056FE10BDF0B533
:10CCA0008FB006460C460025079501200007000FAF
:10CCB00010306946087701200007000F10304877D0
:10CCC000887FF9210840801C694688771C2108A8C4
:10CCD000FBF79FFAA0780222102307A9002805D0AD
:10CCE000082701280DD0022815D020E008AF387899
:10CCF00010431843387009950B950C950D910E95BE
:10CD000015E008AA10783843107009950B950C951A
:10CD10000D910E950BE008A80078384302431A43A2
:10CD200008A8027009950B950C950D910E95307819
:10CD30006946887160898880009501200007000F8E
:10CD40001030087001200007000F103048708878FC
:10CD5000F9210840801CF7210840EF2108400127F5
:10CD6000384369468870142102A8FBF752FA01A8DB
:10CD700002906846039069460F824D82208988821E
:10CD800060680690234670880C3302AA08A9A2DFC7
:10CD90000FB0F0BD70B506461C2231461148FBF7B6
:10CDA0001FFA114C002525703168002909D008228E
:10CDB000A018FBF715FA204608307ADF00280FD1BB
:10CDC00004E0094808307BDF002809D10020C04377
:10CDD000608065700448054A0021001DFFF708FBCC
:10CDE00070BD0000A43300200C270020651A02004B
:10CDF00010B50188102908D0112909D012290AD0AC
:10CE0000502901D103F0C0FE10BD03F079FD10BD23
:10CE100003F0D0FD10BD03F049FD10BD10B5002892
:10CE20000AD0002908D00A88102A06D0112A07D073
:10CE3000502A01D103F065FE10BD03F053FD10BD73
:10CE400003F09AFD10BD000010B504462046FFF720
:10CE5000CFFF21460E48FFF7B8FC21460D48FFF7EB
:10CE6000DDFF21460C4800F01FF821460B48FFF774
:10CE700001FF21460A4800F031F82146094800F038
:10CE800099F8204603F0C0FC2046FFF7A5FD10BD31
:10CE9000A0290020542F002018310020202A002033
:10CEA000582B00201C30002010B500280CD0002981
:10CEB0000AD0094A11600A88102A06D0112A07D020
:10CEC000502A01D103F02CFE10BD03F013FD10BD5C
:10CED00003F064FD10BD0000CC26002010B5002832
:10CEE0000AD0002908D00A88102A06D0112A07D0B3
:10CEF000502A01D103F0CAFD10BD03F0EEFC10BDB5
:10CF000003F02EFD10BD02880B8A9A4202D1028BDB
:10CF1000022A01D000207047827EC07E00020243B8
:10CF2000D007C00F002802D00120087070470020F1
:10CF30000870704770B504460D462846FBF774F933
:10CF40002080656070BD00001CB500234822164992
:10CF5000092004F0B3F9002803D000221146FFF79E
:10CF60001FFA002000900D21090201916946087006
:10CF7000684660DF002803D000221146FFF710FA50
:10CF80000A4804F091F9002803D000221146FFF767
:10CF900007FA074804F0B2F9002803D0002211462E
:10CFA000FFF7FEF91CBD0000A42C002049CE0100B3
:10CFB0002516020010B500280CD000290AD0094A15
:10CFC00011600A88102A06D0112A07D0502A01D1F0
:10CFD00003F098FD10BD03F089FC10BD03F0D2FCF6
:10CFE00010BD0000C826002070B505460C46012C77
:10CFF00003D129460448FBF747FD002C03D12946FD
:10D000000148FBF74DFD70BD0426002010B5054A10
:10D0100001210548FFF788F9FFF774F9034901205A
:10D02000487010BD8F020000341C0200042600204E
:10D030000021C943044A8300D150042802D31018A8
:10D040004030017170470000C0330020F0B500246B
:10D05000E443002A01D0002300E00423002A01D089
:10D06000042600E00A260B4D04E09F00EF597F1CC8
:10D0700004D05B1CB342F8D32046F0BD2E185CB23E
:10D08000203634729E00A951002AF5D1E9184031AA
:10D090000871F1E7C033002002490918282008561A
:10D0A00070470000C0330020FEB5344814220178D8
:10D0B00051430C18241DE768A0680C2148432F49F0
:10D0C000CC314018018901914589466803F076FE0C
:10D0D00001463846FBF75AF8002936D00020009068
:10D0E0000198684386196088A1884018C5192448AA
:10D0F000002101610098002804D003F05FFE6188E0
:10D10000884224D00098002804D0B54202D1A088DB
:10D1100000281CD0A068022819D003F04FFE014659
:10D12000A088C019FBF732F815488908C16003F0E0
:10D1300045FE01462846FBF729F8002913D00020B8
:10D14000B54216D0002810D013E00120C7E703F045
:10D1500035FE01463846FBF719F8094948610320B6
:10D1600004F094F8FEBD0120EAE7B1B2A8B204F0E1
:10D1700071FA022004F08AF8FEBD0000103400208D
:10D180002427002010B507481422017851430818BD
:10D190000079042802D000F075F810BD04F0E4F91D
:10D1A00010BD00001034002010B50C481422017886
:10D1B000514308180A4AC18811620079012806D033
:10D1C000032807D0042801D104F048FC10BD04F066
:10D1D000CBF910BDFFF768FF10BD00001034002030
:10D1E0002427002010B503484078002801D0FFF71D
:10D1F000DBFF10BD1034002014225043054A0021EB
:10D2000080180171C1800122C26001614161018108
:10D210007047000010340020F8B5069E0F4D6C7862
:10D220000A2C19D02F783C190A2C00D30A3C142759
:10D230007C4364192071626103C92161E060E3806D
:10D2400026816878401C687005480078002801D164
:10D25000FFF7AAFF0020F8BD0420F8BD103400201D
:10D260002427002010B506490020087048700024CB
:10D270002046FFF7C1FF641C0A2CF9D310BD000043
:10D280001034002010B507481422017851430918C2
:10D29000091D0020FFF786F800F006F8002003F0D3
:10D2A000F5FF10BD1034002010B5084C2078FFF7B2
:10D2B000A3FF6078401E60702078401CC0B22070D0
:10D2C0000A2801D10020207010BD00001034002079
:10D2D000F1B582B01849C868421C29D024225043B5
:10D2E0004A6880184568154E706801900F6901986A
:10D2F000394604F0D5F9C41C0298401C01D103F052
:10D30000C9FEAC4200D22C46E0190402240A0B48A4
:10D31000403004607068019904F0C2F90546204667
:10D32000019904F0BDF9854201D904F0CBFAFEBDA4
:10D3300003F0CCFEFEBD0000602700200015014078
:10D340000188062906D31923DB010D4A994203D926
:10D35000914201D0072070474088062803D39842A5
:10D3600003D9904201D007207047914205D09042E6
:10D3700003D0814201D90720704700207047000088
:10D38000FFFF000070B506460D4614462078801D4C
:10D390001F2801D90C2070BD3046FFF7D1FF0028AF
:10D3A000F9D120780522411C21702A5420781222BC
:10D3B000411C21702A5420784119308804F0C2FAA7
:10D3C00021784018C0B220704119708804F0BAFA70
:10D3D000217840182070002070BD10B50022114641
:10D3E000FEF7DEFF10BD000000B587B01C216846C7
:10D3F000FAF70FFF002000900521C90301910F21CA
:10D400000904029103216A461173D0811074074800
:10D410000590074806906846FFF7BCFC002803D03B
:10D4200000221146FEF7BCFF07B000BD89080200CC
:10D43000DBD30100F8B5164800F020FC144D00269F
:10D44000103D144C002808D06169002903D0012048
:10D450000090684688472E70F8BD2878002806D0CE
:10D4600061690029F7D0009668468847F3E7687835
:10D4700000280BD0A16800226868FFF737F8002861
:10D48000E9D0A1690029E6D08847E4E76168F2E7BE
:10D490001C270020A433002010B5164C207900076B
:10D4A00025D46069401C6061E068002803D0042036
:10D4B00004F0B0F810BD00F031FC002803D00220C9
:10D4C00004F0A8F810BD206900280DD06068C107DD
:10D4D00003D0032004F09EF810BD012108436060D2
:10D4E000002004F097F810BD04F070F810BD04F0AF
:10D4F0007BF810BD2427002010B5084948680207B2
:10D5000008D4820702D5012210434860022004F0AB
:10D5100081F810BD04F068F810BD00002427002039
:10D520000022064B06E00021491C89B29942FBD338
:10D53000521C92B28242F6D370470000280A0000C3
:10D5400010B5FAF7C7FD10BDF8B50025154F24E05A
:10D550007968E800441820780126314681407A69CC
:10D56000114218D08A437A6101F02EFA01462078E0
:10D570003A69864016400A46824096420BD162784C
:10D58000012A01D0012200E000224A406368002BFA
:10D5900001D0D1B298476D1CEDB238788542D7D30F
:10D5A000F8BD000048270020F0B5454885B0006868
:10D5B000012803D04348406B002806D14248406808
:10D5C0000078202801D8012500E000253F4C0126E5
:10D5D0006069002804D101F01DFC002800D16661BB
:10D5E00002F0D2FF012802D03948FDF7B1FB3948DB
:10D5F0004068007D002802D03748FDF7A9FB02F003
:10D6000045FC002D57D00121084602F02FFF0528C8
:10D6100040D201007944097949188F4402381D38F5
:10D620003800002702F09EFF0390A689E58902F0EA
:10D630009FFF0246274869464068837D0F70039923
:10D64000019169460E814D814A7000208B70C8702F
:10D65000684602F0E3FD1DE0002702F083FF03901F
:10D66000A689E58902F084FF02461A4869464068A7
:10D67000837D0F700399019169460E814D814A7037
:10D6800001208B70C870684602F0C8FD02E01348A4
:10D69000FDF75EFB01F072F8206111481149426903
:10D6A00062602378022B01D0002A06D0C06808608F
:10D6B000002001F097F805B0F0BD8068F7E70000A2
:10D6C000001400400015004044350020283500209B
:10D6D000A8060900B4270020A9060900C806090009
:10D6E000F43400205C3500207047000030B50D4B4D
:10D6F00000249978DA78914211D08A001D461835B5
:10D70000AA580260491CC8B29870022800D19C70C7
:10D71000186910180002000A1861012030BD046069
:10D72000002030BD6027002010B50A4C207900078A
:10D730000DD46069401C606100F0F0FA002803D04D
:10D74000207803F0A3FD10BDFFF71CFD10BD00F015
:10D75000EFFE10BD24270020F0B500241CE0242398
:10D760007E686B439B195E68864203D95968081A24
:10D770005860F0BD801B341900265E601E751E6A5D
:10D78000FE601E69002E07D00F193F023F0A9F60FE
:10D79000DE6016681E621560024FFD686B1CDED1EC
:10D7A000F0BD00006027002010B5002803D011282C
:10D7B00002D0FEF70DFE10BD024808224168114359
:10D7C000416010BD2427002010B50A498869401C1B
:10D7D0008861032809D00878022802D003F056FD9A
:10D7E00010BD487803F016FF10BD0D20FEF7F0FDC8
:10D7F00010BD00002427002010B50848007801283B
:10D8000006D0022807D0032801D1FFF78DFF10BDF5
:10D8100003F0B0FE10BD03F0F3FE10BD242700207E
:10D8200010B528DFFFF7C0FF10BD10B529DFFFF7E7
:10D83000BBFF10BD0EB501200007000F1030009097
:10D8400007220FA168467CDF002803D00022114682
:10D85000FEF7A6FD00200190029010206946888006
:10D860001820C88002200881FF209130488101A83B
:10D870007ADF002803D000221146FEF791FD0EBD8D
:10D8800045505F4E4156590010B500F093FB0848D3
:10D890004EDF002808D100F08DFB064850DF04461B
:10D8A000200002D04FDF204610BD002010BD000038
:10D8B00049E3010060290020F8B5284EB088401CDB
:10D8C00080B2B0800746012534460C34A570032190
:10D8D000FAF75CFC002902D16570214845701221DD
:10D8E0003846FAF753FC002900D1E5707D21C900C4
:10D8F0003846FAF74BFC0027002902D1B780FDF724
:10D900004BFC1848FEF72BF8174C022821D0207D3D
:10D910002646203E01280ED1FBF72AFC012800D024
:10D920000020B178012900D00021084303D0FEF780
:10D9300021F82775F8BD207D0028FBD1FBF718FCE6
:10D940000028F7D1B0780028F4D1FEF719F8257532
:10D95000F8BDFEF70FF82775F8BD00009C260020E3
:10D960009A2800203C2600203029002030B5234D85
:10D9700083B0687E00283AD001F0ECF90024012839
:10D980000CD001F031FA1E48007F002802D101209E
:10D9900081074860002002F027FF6C6002F076FAF1
:10D9A000AC706C7605216846017001940481448155
:10D9B00044708470C47002F031FC12481249047043
:10D9C0000320886002F0E0FD012812D0022810D068
:10D9D00003280CD1002300941A46194618460194D6
:10D9E00002F07AFC042802D00848FDF7B1F903B030
:10D9F00030BD0021084602F039FDF3E7283500204C
:10DA0000F4340020B427002000F50140E8010900AB
:10DA100070B506460124B440104DE868FEF792FD4B
:10DA200000280DD16969214208D1304600F0CCFFB1
:10DA3000002806D028692043286105E0A1436961D8
:10DA400070BD2869A043286168692043686100228D
:10DA5000A968E868FEF74AFD70BD0000482700206D
:10DA600001490978017070474C1C0200F7B588B075
:10DA7000074616462248234D0078002815D0012875
:10DA800019D0022839D110221F4904A8FAF7A8FB9F
:10DA90000D22691D04A8FAF7A3FB002400226846A2
:10DAA000052C11D2295D01550FE01022164904A85A
:10DAB000FAF796FBF1E71022134904A8FAF790FB56
:10DAC00004A800F03FF8E8E70255641CE4B2102C0B
:10DAD000E6D3102204A90D48FAF782FB0B48102266
