:020000040001F9
:10800000783C0020558101006F810100319A010008
:108010000000000000000000000000000000000060
:10802000000000000000000000000000738101005B
:108030000000000000000000758101007781010050
:1080400079810100F9B1010099BF01007981010036
:108050007981010000000000D195010079810100C3
:1080600079810100F9BE01002DBF01007981010075
:108070007981010079810100798101007981010014
:1080800079810100A9B401007981010079810100A1
:10809000DDB6010065B701006DB70100798101000F
:1080A00079810100798101000000000000000000DA
:1080B00000000000000000000000000000000000C0
:1080C0000348854600F06EF900480047E9E30100E7
:1080D000783C0020401E00BF00BF00BF00BF00BFB3
:1080E00000BF00BF00BF00BF00BF00BF00BFF1D195
:1080F00070470000401E00BF00BF00BF00BF00BFB0
:1081000000BF00BF00BF00BF00BF00BF00BFF1D174
:1081100070470000401E00BF00BF00BF00BF00BF8F
:1081200000BF00BF00BF00BF00BF00BF00BFF1D154
:1081300070470000401E00BF00BF00BF00BF00BF6F
:1081400000BF00BF00BF00BF00BF00BF00BFF1D134
:10815000704700000321094802680A43026008488A
:1081600002680A4302600748804707480047FEE765
:10817000FEE7FEE7FEE7FEE7FEE70000240500401D
:108180005405004041B90100C180010030B50B46E3
:10819000014600202022012409E00D46D5409D42E1
:1081A00005D31D469540491B254695404019154667
:1081B000521E002DF1DC30BD70B50024254600288C
:1081C00001DA01244042002901DA01254942FFF782
:1081D000DDFFAC4200D04042002C00D0494270BDCF
:1081E00003460B439B0703D009E008C9121F08C0D0
:1081F000042AFAD203E00B780370401C491C521E7B
:10820000F9D27047D2B201E00270401C491EFBD285
:1082100070470022F6E710B513460A460446194691
:10822000FFF7F0FF204610BD421C0178401C0029DA
:10823000FBD1801A704730B504460020034600E0A9
:108240005B1C934203D2E05CCD5C401BF8D030BD98
:10825000024670B54A40D30FDB0740002DD04A00DC
:108260002AD0010E140E000212020919400A520A05
:108270008418E50104465443000A120A2E045043B0
:10828000A4194219200CC543AA18120C0125AD03EC
:10829000521C521912047F39240400D0521C10437E
:1082A00001D44000491EC2B20C06C0092018401C6F
:1082B0004008802A02D003E0002070BD4008400042
:1082C000002900DA0020184370BD420005D04200AA
:1082D000120E52428A4201DB00207047C90508187D
:1082E000704710B500229623114600F022F810BD09
:1082F000C20F410040020123400ADB05D207090EEC
:10830000C0187F2901DA00207047962903DC9623E4
:10831000591AC84001E096398840002AF4D04042FA
:108320007047002904DA401C490001D14008400090
:10833000704770B40024050C05D11024000402D14C
:10834000002921D01124050E01D100020834050FA7
:1083500001D10001241D850F01D18000A41C00283B
:1083600001DB4000641C002908D020252E1B0D468F
:10837000F540A14000D001212943084301061B1B01
:10838000000ADB1D02D5002070BC7047DB05181801
:1083900080180029F8DA401C4900F5D170BC40086B
:1083A00040007047064C0125064E05E0E36807CC07
:1083B0002B430C3C98471034B442F7D3FFF784FEAC
:1083C000341D0200541D020070B58C180578401C45
:1083D0006B075B0F01D10378401C2A1106D102788C
:1083E000401C03E006780E70401C491C5B1EF9D14E
:1083F0002B0705D40023521E0DD40B70491CFAE73D
:108400000378401CCB1A921C03E01D780D70491CA8
:108410005B1C521EF9D5A142D8D3002070BD0000CC
:1084200030B50E4981650022D243014640318A822F
:108430000022827602760A4B438410250584094B7C
:10844000C36101232E242354054C641CC4868586F5
:108450008A700A70601C48810B8130BD59C10100CF
:108460000210000088260020F0B58FB006460C46AA
:108470000025079501200007000F10306946087796
:1084800001200007000F10304877887FF92108404D
:10849000801C694688771C2108A8FFF7BAFEA078DF
:1084A0000223102207A9002805D0082701280DD093
:1084B000022814D01FE008AF3878184310433870F2
:1084C00009950B950C950D910E9514E008A9087867
:1084D0003843087009950B950C950E950BE008A88C
:1084E000007838431843104308AA107009950B957B
:1084F0000C950D910E953078694688716089888059
:10850000009501200007000F1030087001200007BF
:10851000000F103048708878F9210840801CF7213E
:108520000840EF2108400121084369468870142162
:1085300002A8FFF76EFE01A802906846039020890A
:10854000694608824D8220898882606806902346A9
:1085500070880C3302AA08A9A2DF0FB0F0BD002179
:10856000017640300170704710B586B004461A4855
:1085700001460EC9C0680393029201910490002C39
:1085800027D0214601A863DF002820D12078694642
:108590008875012000038882A21C05A90120A0DFA4
:1085A000002814D1214618312046FFF75DFF00282E
:1085B0000DD121462C312046FFF756FF002806D169
:1085C000214640312046FFF74FFF0028FFD106B07B
:1085D00010BD0E20FBE70000781C0200F8B500205B
:1085E000114C002565811149114B0126114A166075
:1085F0000A68002AFCD00D6062899F68D2196281E6
:10860000401CC0B20528F1D360890521FFF7BEFDEB
:1086100020814321C900884201D2A670F8BD0649D5
:108620008842FBD3A570F8BD92280020007100405D
:108630000075004000700040350200000449012030
:10864000C8630549034A4A60086004498860704766
:10865000C07F00406A0200000075004000730040C7
:1086600010B5082000F03AF8DF210840202101432E
:10867000082000F06DF810BD10B50F2000F02EF8A6
:1086800004460E2000F02AF800022018FFF729FE09
:108690000B21C943FFF719FE0349FFF7D9FDFFF787
:1086A00027FE80B210BD00000000B44310B50B20BF
:1086B00000F014F83821084010BD000005490320DF
:1086C0000860091D086003497039086002490220EA
:1086D00088607047740700500005005010B50446CC
:1086E00001F044FA6C2001F017FA01F06FFA20460D
:1086F00001F012FA01F06AFA01F038FA6D2001F087
:108700000BFA01F063FA002001F0DAF9044601F0F7
:1087100045FA204610BD10B504460720FFF7DEFFDE
:10872000CF2108402146302211400143072000F0AC
:108730000FF810BD10B504460720FFF7CFFF8008E3
:108740008000A107890F0143072000F001F810BD48
:1087500070B505460C4601F009FA6C2001F0DCF911
:1087600001F034FA284601F0D7F901F02FFA20463B
:1087700001F0D2F901F02AFA01F010FA0A2004F00F
:10878000EDFE70BDF0B5C11D274AF9314A630022E4
:10879000D2434A86022484760123038407460521B6
:1087A000FF372137397439461031C1610022027612
:1087B0001E4941842E210B5483861C49491CC186C5
:1087C000014640318A700C810A70184DAD1C4D81F4
:1087D0008A758C830A756D1CCD8306466036B2722D
:1087E0000C8632726D1C4D860546A035AA7140314B
:1087F0008B857C7411378F622A710C4FFF1DCF85DA
:10880000AA76C03004802A763D1F45808273838219
:1088100002736A1DC282B3778C80D01EC8808B74AD
:108820000B83401C4883F0BD05C8010002400000D6
:10883000F0B58FB006460C460025079501200007CD
:10884000000F10306946087701200007000F103034
:108850004877887FF9210840801C694688771C2169
:1088600008A8FFF7D6FCA0780223102207A9002849
:1088700005D0082701280DD0022814D01FE008AF2A
:10888000387818431043387009950B950C950D9165
:108890000E9514E008A908783843087009950B95DF
:1088A0000C950E950BE008A8007838431843104348
:1088B00008AA107009950B950C950D910E953078BE
:1088C0006946887160898880009501200007000F43
:1088D0001030087001200007000F103048708878B1
:1088E000F9210840801CF7210840EF2108400121B0
:1088F000084369468870142102A8FFF78AFC01A882
:108900000290684603902089694608824D8220893A
:10891000888260680690234670880C3302AA08A9F2
:10892000A2DF0FB0F0BD002101762C2211540246C7
:10893000403211701175682211540246A032117133
:108940001176C0300173704710B586B004463648C2
:1089500001460EC9C0680393029201910490E01D84
:108960003249F9304163002C5BD00021C943418674
:10897000214601A863DF002851D120786946887517
:10898000012080038882A21C05A90120A0DF002805
:1089900045D1214618312046FFF74AFF00283ED135
:1089A00021462C312046FFF743FF002837D12146CE
:1089B00040312046FFF73CFF002830D1214654319A
:1089C0002046FFF735FF002829D12146683120468F
:1089D000FFF72EFF002822D12146A4312046FFF7C1
:1089E00027FF00281BD12146B8312046FFF720FF82
:1089F000002814D12146CC312046FFF719FF00286A
:108A00000DD121467C312046FFF712FF002806D108
:108A1000214690312046FFF70BFF0028FFD106B01A
:108A200010BD0E20FBE70000881C020005C80100F5
:108A300010B50E4901200870084600F01BF804F03C
:108A4000A1FA08F053FF094800220C380849806851
:108A500003F06AFD04F0F8FA04F00AFF08F09EFB48
:108A600003F03EFC04F0DEFC10BD0000A426002054
:108A7000D70300000221C17000214170817070474E
:108A80000149C87070470000A426002010B50022DC
:108A9000072900D142700248026002F05FFB10BD5E
:108AA000D0260020072902D1012141708170704732
:108AB00010B54178002905D18178012902D181883A
:108AC000491C81808188002904D08178012901D145
:108AD00000F002F810BD000010B50446A088012285
:108AE000C11E1A2904D86078012814D1E27012E05E
:108AF00001461F391D2905D8607801280BD10220B5
:108B0000E07008E03D38092805D22078002802D11D
:108B100022700320E070044801F0EAF8204600F0DB
:108B200005F80020E07010BD7C2800204178012964
:108B300002D10021818001707047000000B5244AF5
:108B40000023107801280AD05078012817D0907897
:108B5000012824D05370937000F042F800BD507982
:108B6000401CC0B25071642803D9537100F040F822
:108B7000137050790128F1D100F032F800BD9079DE
:108B8000401CC0B290710A2803D9937100F028F8F4
:108B9000537090790128F1D100F02AF800BDD07906
:108BA000401CC0B2D0710A280BD9D37100F018F85C
:108BB000D078401CC0B2D0701179884201D3937034
:108BC000D370D0790128E9D100F012F800BD00007F
:108BD00008260020014903200860704768070050FC
:108BE000012002498006C86070470000000500505F
:108BF000012002498006886070470000000500508F
:108C0000024801214170002181717047082600202F
:108C1000044801218170022101710021C170C171DC
:108C2000704700000826002000B50548417A491C1D
:108C3000C9B241720A2902D9012000F02DF800BD05
:108C40001A28002010B5124CA07A05280CD0012853
:108C50000ED0022811D0032814D0042803D100F02C
:108C6000DEF800F09BF810BD0A4800F0BDF810BD1A
:108C700000F07CF80020207210BD00F062F8FFF7D1
:108C8000D3FF10BD00F0E6F800F088F810BD00003A
:108C90001A280020EC270020014988727047000044
:108CA0001A28002000B5642806D30448807A0528D5
:108CB00002D10120FFF7F0FF00BD00001A280020BC
:108CC00010B50178E7390B0003F0E2F909061F1F20
:108CD0000C10161F1F1C1F0000F06EF80D4800F04E
:108CE000DFF812E00220FFF7D7FF0EE000F016F8E1
:108CF0000320FFF7D1FF08E000F0B7F80420FFF7EA
:108D0000CBFF02E00520FFF7C7FF034800210171F8
:108D100010BD0000E42700204828002010B50446BC
:108D2000002004F00BFF0622611C601C04F0B4FE5E
:108D3000601C04F02FFF002802D0A01C04F020FFCC
:108D400010BD1CB5E420694608706C46481C04F050
:108D50009DFE002004F0F2FE0122611C601C04F064
:108D60009BFE0221684600F039FE1CBD1CB5E320C5
:108D70006946087005216C46601C3ADF062168468A
:108D800000F02CFE601C04F0E9FE1CBD024801212D
:108D900081720021017270471A28002000B5054831
:108DA000017A491CC9B201720A2902D90120FFF7D0
:108DB00073FF00BD1A28002010B50446022004F0FD
:108DC000BDFE0622611C601C04F066FE601C04F0FF
:108DD000E1FE002804D00522A11C0248FFF700FA9A
:108DE00010BD0000F22700207CB50546E72069464B
:108DF00008706C46481C04F049FE05222946A01C58
:108E0000FFF7EEF9022004F099FE0622611C601CB7
:108E100004F042FE0721684600F0E0FD7CBD1FB56E
:108E2000E620694608706C46481C04F02FFE0D21B0
:108E3000A01C3ADFA01C04F087FE012004F07EFE97
:108E40000E22611C601C04F027FE0F21684600F012
:108E5000C5FD1FBD08B5E52069460870E6204870CD
:108E60000221684600F0BAFD08BD10B5401C04F0B0
:108E700075FE10BD10B503460020002203E09C5C87
:108E80006040521CD2B28A42F9D310BD00218170D9
:108E9000704700000149C87470470000E4270020B3
:108EA000F8B50446204604210E30FFF7E3FF4006E4
:108EB000A17C400E884278D13C4A01251570277C60
:108EC000607CFB019C460343E17BCE1F042E0DD941
:108ED00002290BD0CE1E032E4DD803290BD0042916
:108EE00011D0052917D006295BD11FE03049314840
:108EF00001F064FD55E030490978884251D10520E0
:108F0000FFF7C8FF4DE0790580030143516006205B
:108F1000FFF7C0FF45E053686146194308435060BE
:108F200000F042FD0720FFF7B5FF3AE000F024FD16
:108F3000224E232806D13575252000F03BFD032065
:108F4000FFF7A8FF207D00282BD135751C491B4851
:108F500000F0C4FB1B4802228169406902F062F8FC
:108F60000121184802F068F8112000F011FD0320DB
:108F7000FFF790FF15E00D2906D00E2904D0102927
:108F800006D00F290BD00CE00320FFF783FF08E089
:108F9000012B06D10120FFF77DFF02E005E00A4822
:108FA0000387A5712046FFF771FFF8BD102600204A
:108FB000E427002088280020002600202828002000
:108FC000E8280020A02800200829002070B50446C9
:108FD000184D0520294638316A6B05F061FFA078ED
:108FE000C82801D2401CA070A0780026642815D99A
:108FF000A07901280DD101210F4802F01DF80E487B
:109000000322016AC06902F00DF80C490C4802F015
:10901000F3FCA671E671002001F0A2FDA078032800
:1090200002D3288B401C2883A078FFF73BFE05481D
:10903000067070BD28280020A0280020E828002005
:10904000082900201026002070B504460F4904208E
:109050000860062005F002FF0025002802D002F07B
:10906000CDF92575062005F0F9FE0126002802D16C
:1090700004F028FC2675A571E571E674E520A0735F
:109080002046FFF703FF667570BD0000180700500B
:1090900030B50446E5202072607B6072A0888104B0
:1090A000490EA1724006400EE072204608300421AD
:1090B0000546FFF7DFFE4006400E2073284630BD10
:1090C00070B5044602F09AF90025257002F0E0F927
:1090D0002078411C217000191049007AC861A078DD
:1090E000C82801D2401CA070A078642812D9A079A9
:1090F00001280DD101210A4801F09EFF08480322F2
:10910000016AC06901F08EFF0649074802F074FC4D
:10911000A571E5710548057070BD0000002500408F
:10912000A0280020E8280020082900201026002080
:1091300010B50446062005F091FE002802D0207DDF
:1091400001280ED0062005F089FE002808D1207DD8
:10915000002805D10120207504F0B4FB02F02CF9A1
:1091600010BD0020207502F049F94FDF01F086FFA5
:1091700010BD00000148807970470000E4270020FE
:10918000417382807047000070B500F0E9FB544DD8
:10919000112810D0E87C042876D00024514B0528F3
:1091A0007DD006286FD0072804D10022042128464C
:1091B000FFF7E6FF70BDE87C012815D002281BD020
:1091C00003281FD04849092836D008283DD00A284E
:1091D0004ED00C28EED164220B214148FFF7D0FF7E
:1091E0000020FFF757FE70BD3F480C212038028F4A
:1091F0003B48FFF7C5FF70BD00220D213848FFF73F
:10920000BFFF70BD39480079022805D00022072130
:109210003348FFF7B5FF70BD3348203802F0A4FD96
:10922000C4013148203802F0B1FD0443A2B2052147
:109230002B48FFF7A5FF70BD8A7D09212848FFF75D
:109240009FFF0020FFF726FE70BD2748203802F060
:109250008BFDC4012448203802F098FD0443A2B2DB
:1092600008211F48FFF78CFF0020FFF713FE70BD99
:109270004A7D0A211A48FFF783FF0020FFF70AFE04
:1092800070BD01E00BE024E000F076FB2328F7D16D
:109290001748012102781248FFF772FFF0E7002219
:1092A00002210F48FFF76CFF287D0028E8D1FFF767
:1092B00061FF0128E4D15878401CC0B258700A28D8
:1092C000DED95C70112000F063FB0320FFF7E2FDA4
:1092D000D6E75C70002203210148FFF751FFCFE77A
:1092E000E4270020102600202829002088280020BC
:1092F00000260020F8B504462546334880356861CD
:109300000020C04328820027A77627762F48608454
:1093100020462FA1983003F02BFE288B2084E8698B
:10932000E06120462030877307732848401CE086A0
:1093300020462AA1B03003F01BFE288EA086686B61
:10934000206326464036B77037702048801C7081F5
:10935000204624A1A83003F00BFE288D3081E86A56
:109360006064B77537751948C01CF08320461FA18B
:10937000A03003F0FDFD288CB083686AA06520460C
:10938000603000908772009807721048001D708648
:10939000204618A1B83003F0EBFD288F3086E86B2B
:1093A000E06600988777009807770848401DE880B6
:1093B0002046C0300FA1044603F0DAFD2088A880C3
:1093C000686C2860F8BD000025D70100022000006D
:1093D0004E61767920362E3000000000332E333374
:1093E00000000000322E323200000000322E3535EF
:1093F0000000000053314C333136303331323334D6
:1094000000000000F0B58FB006460C460025079519
:1094100001200007000F103069460877012000077F
:10942000000F10304877887FF9273840801C8877F4
:109430001C2108A8FEF7EDFEA0780221002806D026
:10944000082307AA01280BD0022813D01FE008AA7E
:1094500010780843107009950B950C950E9516E041
:1094600008A908781843087009950B950C950D927A
:109470000E950CE008A8007803430B43102003432B
:1094800008A8037009950B950C950D920E953078F0
:109490006946887160898880009501200007000F67
:1094A0001030087001200007000F103048708878D5
:1094B0003840801CF7210840EF2108400121084373
:1094C00069468870142102A8FEF7A3FE01A8029045
:1094D000684603902089694608824D8220898882E7
:1094E00060680690234670880C3302AA08A9A2DFA0
:1094F0000FB0F0BD10B586B00446244801460EC931
:10950000C0680393029201910490002C3CD0214644
:1095100001A863DF002835D12078694688750120CD
:1095200040038882A21C05A90120A0DF002829D1C0
:10953000214618312046FFF765FF002822D1214639
:109540002C312046FFF75EFF00281BD12146403119
:109550002046FFF757FF002814D1214654312046FA
:10956000FFF750FF00280DD1214668312046FFF754
:1095700049FF002806D121467C312046FFF742FFF3
:109580000028FFD106B010BD0E20FBE7A81C02008A
:1095900010B50C4C207A012807D10B49FF228868AE
:1095A0002D32904202D8401C886010BD002000F08F
:1095B000D7FC00F0DBFC002020720221034802F0FF
:1095C00037FC10BD7C280020C82600200829002078
:1095D000F8B5002400200090FF2601360125002761
:1095E000304605F053FC002809D035484068284033
:1095F000002804D033483018002101602C436D004E
:10960000361DB6B27F1C042FEAD3FF207D3005F053
:109610003DFC002807D02C4800210160400704438E
:109620002A48006900902A4F200712D00126002501
:1096300026420AD02748AA0011180869C004C00EA3
:1096400009698903890FBA58904776006D1C042D6B
:10965000EED3002C31DA00241D4E082130194030A1
:109660004156491C26D0077ABD06AD0E284603F0A8
:1096700031FD80003658002E1CD0BF090121A940C1
:10968000154AA800801800688003800F009A1140D6
:1096900001D0022803D000290CD103280AD1032FBE
:1096A00005D102280AD00221284605F0C7FB394619
:1096B0002846B047641C062CCED3F8BD0321F3E73F
:1096C00000630040006000407C61004000050050E5
:1096D00090340020006500400007005010B50C4693
:1096E0004168090C21708188090A61700079A070B5
:1096F0000321204601F0BEFBE07010BD70B5552877
:1097000002D20446643400E004460321FEF73EFD25
:10971000484D012931D000295DD002292CD14321A7
:109720002046FEF733FD891C29700E462E21204667
:10973000FEF72CFD881C6870B04205D1342120460C
:10974000FEF724FD891C697027212046FEF71EFDC7
:10975000891CA970B14205D111212046FEF716FDE2
:10976000891CA970A8786978884205D11B212046F8
:10977000FEF70CFD891CA97070BD4B212046FEF739
:1097800005FD891C29700E462D212046FEF7FEFCA2
:10979000881C6870B04205D146212046FEF7F6FCD1
:1097A000891C697038212046FEF7F0FC891CA970DD
:1097B000B14205D13C212046FEF7E8FC891CA97086
:1097C000A87869788842D7D132212046FEF7DEFC9E
:1097D000891CA97070BD47212046FEF7D7FC891C63
:1097E00029700E4637212046FEF7D0FC881C687091
:1097F000B04205D144212046FEF7C8FC891C69709F
:1098000032212046FEF7C2FC891CA970B14205D165
:109810001F212046FEF7BAFC891CA970A878697838
:109820008842D7D12E212046FEF7B0FC891CA970B2
:1098300070BD00002026002070B50446002025469B
:109840004035E874A07B05F003FCA87C264E212857
:1098500006D0222809D026280ED0252813D016E0BD
:1098600060687060E07B707011E02320A8741F486E
:109870007060062070700AE0E07B70706068706055
:109880002120A87403E0E07B70706068706021782C
:10989000052005F073FC707805F052FD207A05F084
:1098A000F5FC207C05F0B8FCA08905F019FD706876
:1098B000FFF724FF706805F077FC0B48A17A0830A9
:1098C00005F082FC607A05F01BFD012005F064FDC7
:1098D000A07A617A484305F023FD002005F0BAFC28
:1098E00005F052FB70BD000018260020FEFEFEFEB3
:1098F00009490878401CC0B2087006280AD900201F
:1099000008700648417C491EC9B24174002901D142
:109910003C21417470470000182600206828002070
:10992000E121890081810021817302224272032397
:109930008372C1730123037406230372074B4360D0
:109940007723037001754030C273112202743C22E8
:1099500042748173212181747047000071F81900ED
:109960000148007C70470000682800200148407CC6
:1099700070470000682800200148807C7047000084
:10998000682800200149C87370470000682800203B
:109990000149087470470000682800200149487494
:1099A00070470000682800200149486070470000A7
:1099B000282800200149887470470000682800208A
:1099C00010B50C46014622460348FEF709FC024842
:1099D0002438046210BD00004C28002010B50C464D
:1099E000014622460348FEF7FBFB02483838446331
:1099F00010BD00006028002070B505460C4603210C
:109A0000204601F037FAE17888420CD1207861785D
:109A1000000409020843A178084368600120FFF7A9
:109A2000B1FF012070BD0220FFF7ACFF002070BD28
:109A3000074803F093FD012006490007C860BFF303
:109A40004F8F06490448C860BFF34F8F00BFFDE742
:109A500060EA0000000500500400FA0500ED00E097
:109A600070B50125084C6D07E560084903200860C2
:109A7000A005E060022003F081FDA560022003F054
:109A80007DFDE56070BD00000005005078070050C6
:109A900070B50125084C6D07E56008490320086092
:109AA000A005A060022003F069FDA560022003F07C
:109AB00065FDE56070BD00000005005078070050AE
:109AC000F1B5002412490C20086000250127114E31
:109AD0007F07F760022003F051FDB7606006040EB7
:109AE00030694000C00F002801D0641CE4B201209E
:109AF00003F044FD6D1CEDB2082DEAD30098002858
:109B000003D0FFF7ADFF2046F8BDFFF7C1FFFAE72E
:109B10007807005000050050F8B5054611490320AC
:109B200008600127104E7F07F7600024E80900282D
:109B300014D001208007B0606806050E022003F0F3
:109B40001DFDB760022003F019FDF760022003F04D
:109B500015FD641CE4B2082CE8D3F8BD0120800791
:109B6000F060E9E7780700500005005070B509493A
:109B7000032008600126084CB607A6607510A56092
:109B8000042003F0FBFCE660042003F0F7FCE56032
:109B900070BD0000780700500005005070B50949FD
:109BA000032008600126084C7607E660A505E560FD
:109BB000042003F0E3FCA660A560042003F0DEFCB3
:109BC00070BD0000780700500005005070B50024FB
:109BD0000F490C20086001200E4D8007A86001206D
:109BE00003F0CCFC01267607AE60012003F0C6FC32
:109BF00007E0641CE4B2FA2C03D9FFF7CFFF012081
:109C000070BD28694000C00F0028F2D1EE6070BD21
:109C1000780700500005005070B50646FFF7A0FE1B
:109C200011282CD0FFF79CFE122827D1FFF7A4FEA5
:109C30000025252827D0FFF79FFE26282FD00024B7
:109C4000FFF79AFE21282CD000210C432BD00020B6
:109C500000F086F91120FFF79BFE1D491D48FFF714
:109C60003DFD1D4802228169406901F0DBF90121B7
:109C7000194801F0E1F90120FFF784FE70BD174893
:109C8000FFF704F970BD16490878401CC0B208708F
:109C90001B28F7D90D702620FFF78CFE70BD01241C
:109CA000CEE70121D1E7FFF761FE01280CD1112099
:109CB000FFF76EFE2620FFF77DFE0320FFF7EAF890
:109CC000044901200875F570FFF712FE70BD000011
:109CD000E828002028280020A0280020E4270020D1
:109CE000272600200021C17001214170704700002B
:109CF000F8B50446924DE17800260127E87800295E
:109D00001BD007292FD0052977D08E4D062975D075
:109D1000012974D0042973D0022972D003290BD1F0
:109D200001286FD0032807D1FEF772FFE6700320E9
:109D3000FFF7B0F800F01AF9F8BD012807D10720A5
:109D4000E07000F013F98048077280480660E878F8
:109D50000328F1D10220FFF79DF87D490220087009
:109D600000F057FCF8BD01280BD16078401CC0B250
:109D70006070062801D9E670677000F0F7F8FEF70A
:109D80003FFFA888A628EDD96078E070FEF738FF7D
:109D900000F0ECF8E07806280DD0052819D004284A
:109DA000E0D002282FD00128DCD1FFF7E3F900280A
:109DB000D8D1E670F8BD63480121203802F099F847
:109DC00060480521203802F033F8002002F02AF81C
:109DD000F8BD604D686860601220FFF7D9FD222051
:109DE000FFF7E8FD3C20FFF7D9FD2F750420FFF7B2
:109DF00051F828464030C774F8BD0AE01FE053E030
:109E000060E084E096E0FFF7B5F90028F4D1E67051
:109E1000F2E7012805D00328EED1FEF7F9FEE6703F
:109E2000EAE71120FFF7B4FD2620FFF7C3FD03206A
:109E3000FFF730F847480775FEF7E2FEDCE7012838
:109E400010D00328D8D101F0DBFFE6703D48002197
:109E5000203802F04EF80220E87500F087F8FEF78F
:109E6000D7FEC9E73748203801F024FE012818D171
:109E700034483949203801F0D1FD38480422816A3C
:109E8000406A01F0CFF80121344801F0D5F82E489E
:109E9000C6702C480021203802F02BF80220E8750B
:109EA000EE76FEF7ADFEA7E7012807D00328A3D181
:109EB000FEF7AEFE0920FEF7EDFF9DE7AF75FEF75A
:109EC0009FFE99E7012819D0032895D1FEF7A0FE3F
:109ED0000121224801F0B0F820480322016AC0693C
:109EE00001F0A0F817481C49203801F085FD032037
:109EF000FEF7D0FFE67000F039F87DE7687D0028B6
:109F000003D06E75FEF77CFE76E76F75FAE70128E1
:109F10000AD0032884D1FEF77BFEE6700320FEF70B
:109F2000B9FF00F023F867E70820FEF7B3FFFEF75C
:109F300067FE61E70C20FEF7ADFFFEF761FE5BE711
:109F400002260020282900207C280020D02600207E
:109F50009228002028280020E8280020A02800209F
:109F60000149C870704700007C28002000B503201C
:109F700000F030FB042000F02DFB052000F02AFB50
:109F80000C2000F027FB0D2000F024FB0E2000F039
:109F900021FB102000F01EFB112000F01BFB122003
:109FA00000F018FB00BD00B5032000F01BFB0420EF
:109FB00000F018FB052000F015FB0C2000F012FB50
:109FC0000D2000F00FFB0E2000F00CFB102000F025
:109FD00009FB112000F006FB122000F003FB00BD7E
:109FE000F8B566480126C1780025654C654F407874
:109FF0000B0002F04DF8080549A0C0934D7BBD1C35
:10A00000FFF7B8F8002803D0B878012810D012E084
:10A010003878411C3970042806D93D707978714030
:10A020007970042000F0BCF9BE7057480570F8BD87
:10A03000BD70FFF79BFF5549C878032807D0042857
:10A04000F5D18878072817D800F056FB18E0E07D96
:10A0500001280DD04A4C0820203C205E1F21FEF72D
:10A06000ABF8C0B2217B00F09BF947480570F8BD02
:10A07000052000F0DFFAF8E7C01FC0B200F016FBC1
:10A08000BE7041480670F8BDA07D00F073FAF8BDBF
:10A090003A48FFF7C1FDFFF76FFC222819D0FFF700
:10A0A0006BFC232815D0FFF767FC242811D0FFF79D
:10A0B00063FC252803D0FFF75FFC2628E7D1FFF7D4
:10A0C00072FF3348C17C0129E1D1C574FEF7A0FDC0
:10A0D000F8BD3878411C39700128F9D93D7079787C
:10A0E00071407970022000F05BF9F8BDE07D052831
:10A0F00008D006280AD007280CD00828F5D1FFF789
:10A1000035FFF8BD012000F095FAF8BD052000F0FC
:10A1100091FAF8BD092000F08DFAF8BD607D0028A5
:10A1200004D00021042000F03BF9F8BD01210420F7
:10A1300000F036F9F8BDFFF71DF800280BD0104CE1
:10A140000820203C205E1F21FEF736F8C0B2217B9C
:10A1500000F026F9F8BD3878411C39700428F9D987
:10A160003D70797871407970042000F019F9F8BDDC
:10A1700000F060FAF8BD00F05DFAF8BD7C28002020
:10A1800028290020DC260020082600203826002070
:10A190006828002000B5030001F07AFF0A2106229A
:10A1A0003E5A7692AECAE621032000F01BFA042044
:10A1B00000F010FA052000F00DFA0C2000F00AFA69
:10A1C0000D2000F007FA0E2000F004FA102000F035
:10A1D00001FA112000F0FEF9122000F0FBF900BD99
:10A1E000032000F0FFF9042000F0FCF9052000F046
:10A1F000F1F90C2000F0EEF90D2000F0EBF90E2043
:10A2000000F0E8F9102000F0E5F9112000F0E2F983
:10A21000122000F0DFF900BD032000F0E3F9042074
:10A2200000F0E0F9052000F0DDF90C2000F0D2F993
:10A230000D2000F0CFF90E2000F0CCF9102000F036
:10A24000C9F9112000F0C6F9122000F0C3F900BDD1
:10A25000032000F0C7F9042000F0C4F9052000F045
:10A26000C1F90C2000F0BEF90D2000F0B3F90E206A
:10A2700000F0B0F9102000F0ADF9112000F0AAF9BB
:10A28000122000F0A7F900BD032000F0ABF9042074
:10A2900000F0A8F9052000F0A5F90C2000F0A2F9C3
:10A2A0000D2000F09FF90E2000F094F9102000F02E
:10A2B00091F9112000F08EF9122000F08BF900BD09
:10A2C000032000F08FF9042000F08CF9052000F045
:10A2D00089F90C2000F086F90D2000F083F90E209A
:10A2E00000F080F9102000F075F9112000F072F9EB
:10A2F000122000F06FF900BD032000F073F9042074
:10A3000000F070F9052000F06DF90C2000F06AF9FA
:10A310000D2000F067F90E2000F064F9102000F025
:10A3200061F9112000F056F9122000F053F900BD38
:10A33000032000F057F9042000F054F9052000F044
:10A3400051F90C2000F04EF90D2000F04BF90E20D1
:10A3500000F048F9102000F045F9112000F042F912
:10A36000122000F037F900BD032000F03BF9042073
:10A3700000F038F9052000F035F90C2000F032F932
:10A380000D2000F02FF90E2000F02CF9102000F025
:10A3900029F9112000F026F9122000F023F900BD60
:10A3A00000B50A46030001F073FE0504204876AAB2
:10A3B0001F00032000F00EF9042000F00BF9052027
:10A3C00000F008F90C2000F005F90D2000F00AF962
:10A3D0000E2000F0FFF8102000F0FCF8112000F033
:10A3E000F9F8122000F0F6F800BD032000F0F2F8B2
:10A3F000042000F0EFF8052000F0ECF8012A14D05A
:10A400000C2000F0E7F80D2000F0ECF8012A10D045
:10A410000E2000F0E7F8102000F0DCF8112000F02A
:10A42000D9F8122000F0D6F800BD0C2000F0DAF8C0
:10A43000E9E70E2000F0CEF8EDE7032000F0CAF8BF
:10A44000042000F0C7F8012A17D0052000F0C2F858
:10A450000C2000F0BFF80D2000F0C4F8012A13D042
:10A460000E2000F0BFF8102000F0BCF8112000F022
:10A47000B1F8122000F0AEF800BD052000F0B2F8EF
:10A480000C2000F0AFF8E6E70E2000F0A3F8102053
:10A4900000F0A0F8EAE7032000F09CF8012A1AD0A7
:10A4A000042000F097F8052000F094F80C2000F04C
:10A4B00091F80D2000F096F8012A16D00E2000F039
:10A4C00091F8102000F08EF8112000F08BF8122087
:10A4D00000F080F800BD042000F084F8052000F0B2
:10A4E00081F80C2000F07EF8E3E70E2000F072F80F
:10A4F000102000F06FF8112000F06CF8E7E7012A57
:10A500001DD0032000F066F8042000F063F8052059
:10A5100000F060F80C2000F05DF80D2000F062F80B
:10A52000012A19D00E2000F05DF8102000F05AF832
:10A53000112000F057F8122000F054F800BD03205D
:10A5400000F050F8042000F04DF8052000F04AF823
:10A550000C2000F047F8E0E70E2000F03BF8102058
:10A5600000F038F8112000F035F8122000F032F831
:10A5700000BD00001EB5024613A14C680B68896837
:10A58000019400930291032000F024F8042000F0CD
:10A5900021F8052000F01EF80C2000F01BF80D201B
:10A5A00000F018F80E2000F015F8102000F012F856
:10A5B000112000F00FF8122000F00CF86946885CBA
:10A5C00000F010F81EBD0000000304050C0D0E1075
:10A5D00011120000012181400148C1607047000054
:10A5E0000005005001218140014881607047000052
:10A5F0000005005010B5FFF7B9FC01242046FFF715
:10A60000C9FDC82002F0AAFF641CE4B20A2CF5D3ED
:10A6100010BD70B5FFF7C7FC01240A25281BC0B286
:10A62000FFF7B8FDC82002F099FF641CE4B20A2CC1
:10A63000F4D370BD3EB50AA14B680A6889680193DE
:10A6400000920291094C2188491C89B2218002297B
:10A6500005D96946085C04F009FC002020803EBD55
:10A66000000304050C0D0E1011120000D42600206A
:10A670000C4903200860091D0860091D086009498C
:10A6800024310860091D0860091D0860054934313E
:10A690000860091D0860091D086003490020087052
:10A6A000704700000C070050DC260020FEB5054670
:10A6B0000DA04268016880680192009102900D4EE1
:10A6C000F088401C80B2F08001280BD901246F462D
:10A6D00004E0385D04F0CAFB641CE4B2AC42F8D973
:10A6E0000020F080FEBD0000000304050C0D0E10DC
:10A6F00011120000D4260020FEB50EA14B680A6896
:10A7000089680193009202910D4EB188491C89B26B
:10A71000B18002290DD9092409216F460D1A04E0E0
:10A72000385D04F0A3FB641EE4B2A542F8DB002010
:10A73000B080FEBD000304050C0D0E1011120000C8
:10A74000D4260020CA0702D00921017270478A0767
:10A7500002D50221017270474A0702D50321017216
:10A7600070470A0702D5042101727047CA0602D554
:10A770000621017270478A0602D5072101727047CF
:10A780004A0602D50521017270470A0602D5082142
:10A7900001727047C90402D501210172704700217E
:10A7A0000172704700210172417270470149002017
:10A7B00008717047882800200149022008717047FD
:10A7C00088280020007A70470149C880704700003F
:10A7D000882800200149012008717047882800203E
:10A7E000F0B50146FF31364A8131CA600022D243BA
:10A7F0000A810223014620318B7000220A70314CFD
:10A800004485012505850571041D44628A750A7514
:10A810002C49891CC1878387014640318A720A729C
:10A82000284CE41C4C820B828A770A77641CCC8407
:10A830008B8404466034A2742274224C641D4C87BD
:10A840000B870446E034A27222721E4903460B3184
:10A85000C033598621210172032119860646083624
:10A8600001468031CE66A2772277164E0C36203410
:10A87000E6800427A780A2742274B61C668327830F
:10A880000E46A036B27132710E4A0F32E285A585AE
:10A890008D710C4A921DCA818D818D76521C4A841D
:10A8A0000F84A0308573501CC8868D869D70401C17
:10A8B00058811F819D75401CD8839D83F0BD000089
:10A8C000C1E5010002300000F0B58FB006460C462D
:10A8D0000025079501200007000F10306946087712
:10A8E00001200007000F10304877887FF9210840C9
:10A8F000801C694688771C2108A8FDF78AFCA0788F
:10A900000222102307A9002805D0082701280DD00E
:10A91000022814D01FE008AF38781043184338706D
:10A9200009950B950C950D910E9514E008A90878E2
:10A930003843087009950B950C950E950BE008A807
:10A940000078074317431F4308A8077009950B9524
:10A950000C950D910E9530786946887160898880D4
:10A96000009501200007000F10300870012000073B
:10A97000000F103048708878F9210840801CF721BA
:10A980000840EF21084001273843694688701421A8
:10A9900002A8FDF73EFC01A80290684603906946B4
:10A9A0000F824D82208988826068069023467088D5
:10A9B0000C3302AA08A9A2DF0FB0F0BD70B504469F
:10A9C000087CC201487C0243C97B0025891E0B001C
:10A9D00001F05EFB0B070C0C0C0C0C0C0D150C1D88
:10A9E0000C00E28011462046FFF7ACFE70BD00204F
:10A9F000FFF7B6FA0320FEF74DFA657270BD002826
:10AA000003D00128FAD1607270BD657270BD002854
:10AA1000FCD1FFF7A5FA0320FEF73CFAFFF7A6FAF0
:10AA200070BD002102462032117011752032117262
:10AA30001177702211540246E0321177FF2311334F
:10AA400019541172FF3021300171704710B586B072
:10AA50000446424801460EC9C06803930292019120
:10AA60000490002C77D0214601A863DF00286FD125
:10AA7000207869468875032000038882A21C05A9F6
:10AA80000120A0DF002863D1214620312046FFF7B6
:10AA90001BFF00285CD1214634312046FFF714FF0C
:10AAA000002855D1214648312046FFF70DFF0028E8
:10AAB0004ED121465C312046FFF706FF002847D1E2
:10AAC000214670312046FFF7FFFE002840D1214685
:10AAD000E8312046FFF7F8FE002839D12146FC3145
:10AAE0002046FFF7F1FE002832D12146FF31113117
:10AAF0002046FFF7E9FE00282AD12146FF31253103
:10AB00002046FFF7E1FE002822D12146843120466D
:10AB1000FFF7DAFE00281BD1214698312046FFF7C7
:10AB2000D3FE002814D12146AC312046FFF7CCFEDD
:10AB300000280DD12146D4312046FFF7C5FE00285C
:10AB400006D12146C0312046FFF7BEFE0028FFD1C6
:10AB500006B010BDFFE70E20FAE70000C81C020097
:10AB600001490872704700008828002070B5FF2155
:10AB70002B4A49310A5000220146D243FF3141316C
:10AB8000CA80022585760123038411220A71091DDA
:10AB9000C16100210176234A42840246203291732A
:10ABA0000424848611731F4A521CC2860246403216
:10ABB0009170138111701B4B5B1D538191759483B0
:10ABC00011755B1CD3830346603399721486197226
:10ABD000144EF61D56869977403295801977731C6E
:10ABE000D3809174158311745B1C53830346A03387
:10ABF000997195851971F61CD68599764032158024
:10AC00001976731C53809173948211735B1CD382E9
:10AC1000E030817014850170581C508570BD0000B3
:10AC20002DE601000260000000210176024640325C
:10AC30001170117520321172117740321171902309
:10AC400019541176CC221154E03001707047000085
:10AC500010B586B00446384801460EC9C068039353
:10AC6000029201910490FF20344949300151002C97
:10AC70005FD0214601A863DF002858D120786946BB
:10AC80008875032040038882A21C05A90120A0DF4B
:10AC900000284CD121461831204602F01EF8002829
:10ACA00045D121462C31204602F017F800283ED12C
:10ACB00021464031204602F010F8002837D12146C5
:10ACC0005431204602F009F8002830D1214668317D
:10ACD000204602F002F8002829D121467C31204686
:10ACE00001F0FBFF002822D121469031204601F0DF
:10ACF000F4FF00281BD12146A431204601F0EDFFCE
:10AD0000002814D12146B831204601F0E6FF002882
:10AD10000DD12146CC31204601F0DFFF002806D1BD
:10AD20002146E031204601F0D8FF0028FFD106B0CF
:10AD300010BD0E20FBE70000981C02002DE601006C
:10AD400010B503F0EFFC10BDF7B507460024012055
:10AD50002E490004154688602D4EB078002802D098
:10AD60002C48FFF7EDFF002F02D12B48FFF7E8FF3B
:10AD70007068002802D02948FFF7E2FF2846776074
:10AD80000127274D002820D0012828D0022824D0D0
:10AD90002448FFF7D5FF2448B770002101600199CE
:10ADA000611889B229602E6820494F606D6800687B
:10ADB000002802D01E48FFF7C3FFA64211D3A542C8
:10ADC00001D3B5421CD31B4818E0184847606C6893
:10ADD0000760154900200860DDE7AC68DBE72C68F8
:10ADE000D9E7B54201D2012000E00020AC4201D8F1
:10ADF000012100E00021884202D10F48FFF7A0FFA7
:10AE0000012002490004486003B0F0BD00A30040E7
:10AE1000C0270020730004007500040076000400C1
:10AE200040A500408900040040A1004040A000402F
:10AE30009B000400B0000400C90004000749002082
:10AE4000C8630749C8630749C8630749C863C8633B
:10AE50000649C8630649C86370470000C03F004008
:10AE6000C04F0040C0CF0040C0FF0040C02F014095
:10AE7000C03F014010B503460020002204E09C5C66
:10AE80002018C0B2521CD2B28A42F8D310BD0000C2
:10AE900010B50F4A04211046343800F089F80C49E7
:10AEA0000C4800F0E6FF0A4A032110463C3800F047
:10AEB0007FF80749074800F0BEFF054A0221104607
:10AEC000443800F075F802490348FEF795FD10BDBF
:10AED000F8280020082900202828002010B5002A82
:10AEE00004D00F21890105F00BFF02E0102105F0CD
:10AEF00007FF002806D104480021017001780029CD
:10AF0000FCD0002010BD00002C2600201CB52548D8
:10AF10000021017105F066FF002842D1102069462A
:10AF200088803C20C880204800902049684605F071
:10AF3000D9FF1C4A00213C3A1C4805F0ADFE002810
:10AF40002FD1184A0121343A184805F0A5FE0028EF
:10AF500027D1144A02212C3A144805F09DFE0028FE
:10AF60001FD1104A0321243A104805F095FE00280D
:10AF700017D10C4A04211C3A0C4805F08DFE00281C
:10AF80000FD1084A0521143A084805F085FE00282B
:10AF900007D1044A06210C3A044805F07DFE00283A
:10AFA000FFD11CBDE0280020350C02003026002017
:10AFB00010B5014610460023102205F037FF002887
:10AFC00001D10149087010BD2C26002070B504463F
:10AFD00020463C30002205462168FFF77FFF054AE6
:10AFE0002846216800F008F80021204600F024F8E7
:10AFF00070BD0000E828002010B511460023102283
:10B0000005F0D2FF002805D1034900220A700A7812
:10B01000002AFCD010BD00002C2600204030007912
:10B020007047000007B50348019B0099C1630364A2
:10B0300002600EBDA0280020403001717047000062
:10B0400030B50C4900254D800A78531CDCB20A4B00
:10B050000C709854102C00D30D7000201A5C4C8892
:10B0600012194A80401CC0B21028F7D34888000546
:10B07000000E30BD3E260020462900200149002058
:10B08000C88070479228002010B50948FFF7C6FF16
:10B0900000280CD1012007490007C860BFF34F8F7B
:10B0A00006490548C860BFF34F8F00BFFDE710BDDC
:10B0B000A0280020000500500400FA0500ED00E083
:10B0C00010B5034608490320086007480024543897
:10B0D0000460012005490007C860FDF7AFFA1C7045
:10B0E0009C80DC809C7010BD7007005000050050F3
:10B0F00010B50F48007802280AD10E490878401C84
:10B10000C0B20870022804D0032801D9FFF7BCFFA1
:10B1100010BD01210848FFF78FFF07480322016A8D
:10B12000C069FFF77FFF0549054800F065FC10BDC9
:10B130009228002028260020A0280020E8280020AF
:10B140000829002010B5FEF715F8002803D10248A1
:10B150008188491C818010BD92280020014900206F
:10B1600088807047922800200120024900078860EB
:10B1700070470000000500508078704710B5818846
:10B18000B42901D302210170FFF7B2FF10BD000006
:10B1900070B504460026154D23E06078002820D0C5
:10B1A000134800690006C00F00281AD1667068882D
:10B1B000401C80B26880642813D36E80FFF7D4FFF0
:10B1C00001202070FDF766FEFDF712FDFF202D30F7
:10B1D00003F026FBFDF704FD064903208870FFF706
:10B1E00009FA20780028D8D070BD00002826002059
:10B1F0000005005002260020F8B55F4C20696778F2
:10B20000401C2061607D002802D05C48FFF798FD5B
:10B21000204622785A4D00245A495B4E032A3FD1DA
:10B22000CA68002A3CD0012F03D0022F2FD05748E4
:10B230009EE007460069032802D05548FFF780FDCD
:10B2400002203870B969491CB96152490C60C11EAD
:10B25000A960514908604B48C460046004614460BF
:10B26000032179707C603C753268117D00290AD019
:10B270004A498B68BB75C461494B01209861494BB1
:10B28000042098608C60D06800283AD1F8BD00692D
:10B29000012802D04448FFF753FD04F04FFEF8BDEB
:10B2A000032F64D0012F2ED0022FF6D042783F4BCF
:10B2B0001201D218137B0027002B03D0CB68002B80
:10B2C00000D00127927A334B02701C60032A48D0C9
:10B2D0000022D243AA60304B02221A60CC600322C3
:10B2E00042700C600C614C60446004753068006909
:10B2F000002800D08047002FD1D030688068002817
:10B30000CDD08047F8BD0269012A18D0022AF9D1B0
:10B31000CC600C610C601F490C60111FA9600821F2
:10B320006960032101704460047530680069002879
:10B3300000D08047306880680028E2D1F8BD0C60FA
:10B340004C600021C943A960012169603168097D11
:10B35000002902D0134A042151601549C068486091
:10B36000F8BD0822D243AA6008226A60B9E71148F2
:10B37000FFF7E6FCF8BD00006035002090010A00F0
:10B380000013004000110040C8270020A9010A0056
:10B390009F010A000012004080E200E040150040DA
:10B3A0000010004000F50140A4010A00041D020045
:10B3B00000150040D6010A000B48042101600A482C
:10B3C00008300160001F0160084A00201060084A30
:10B3D00090601060074A906007480160BFF34F8F8C
:10B3E000BFF36F8F7047000020070050002500401A
:10B3F000002000400021004080E100E010B5164927
:10B4000003200860144A0C2108321160111F0860E3
:10B4100012480821C1600A214161114A802151600E
:10B42000042151600D4A00234032D3620D4A42622A
:10B4300001600D4A0120906010600C4883600C4848
:10B440000268FF231B049A430B051A430260094854
:10B45000016000F01DF810BD2007005000250040DD
:10B460000023004000509D000020004000210040CB
:10B4700000E400E000E100E003480121C160016058
:10B4800002494015C8607047002000400005005088
:10B49000034801218160416002494015886070477E
:10B4A000002000400005005010B50649002008604B
:10B4B00048608860C860034940390860486006F009
:10B4C000D9F910BD4011014030B50246174980320C
:10B4D00091670023DB43F4210B5200248476047629
:10B4E0001349418401230384014620318C730C737A
:10B4F0000F49491CC18602248486014640318B7065
:10B500000B4DAD1C4D810B818B756D1CCD838C83D8
:10B51000603083726C1C4C860B868377601CD080F5
:10B5200093809374401C5083138330BD291502000F
:10B5300002500000F0B58FB006460C460025079576
:10B5400001200007000F103069460877012000072E
:10B55000000F10304877887FF9210840801C694629
:10B5600088771C2108A8FCF754FEA078022310223B
:10B5700007A9002805D0082701280DD0022814D0DB
:10B580001FE008AF387818431043387009950B95C1
:10B590000C950D910E9514E008A9087838430870B1
:10B5A00009950B950C950E950BE008A8007838438B
:10B5B0000343134308A8037009950B950C950D914F
:10B5C0000E953078694688716089888000950120E1
:10B5D0000007000F1030087001200007000F103026
:10B5E00048708878F9210840001DF7210840EF21B4
:10B5F00008400127384369468870142102A8FCF7E7
:10B6000008FE01A802906846039069460F824D82A9
:10B6100020898882234670880C3302AA08A9A2DFF9
:10B620000FB0F0BD0021017620300173704700009B
:10B6300010B586B00446284801460EC9C068039379
:10B64000029201910490002C43D0214601A863DFAF
:10B6500000283CD12078694688750520000388823F
:10B66000A21C05A90120A0DF002830D121461831F5
:10B670002046FFF75FFF002829D121462C312046C4
:10B68000FFF758FF002822D1214640312046FFF71E
:10B6900051FF00281BD1214654312046FFF74AFFB5
:10B6A000002814D1214668312046FFF743FF0028C7
:10B6B0000DD121467C312046FFF73CFF002806D102
:10B6C000214690312046FFF735FF0028FFD106B014
:10B6D00010BD0E20FBE70000B81C0200F8B5204D9D
:10B6E0002C468034012080F310886068002832D016
:10B6F00020680C21484340190279310A090211439C
:10B700004279FF231B02120299431A4011438279A6
:10B710001B02120499431A401143C2790E02360AE1
:10B7200011060E4381688289C08997B200040743DD
:10B730006068401E60602068401C206020680A2805
:10B7400001D300202060002080F310882B683A4647
:10B7500030469847C6E7002080F31088F8BD000007
:10B760008435002010B505F0C1FF10BD10B50748A5
:10B770004068002807D08047002803D000221146E7
:10B7800000F030FE10BD02F04FFA10BD7827002007
:10B7900010B50649012048750020FFF715F8044947
:10B7A000002008721120FEF7F3F810BDE4270020F6
:10B7B0008828002010B504464E48C07805286BD074
:10B7C000062806D100F01CFB002802D0052000F05E
:10B7D000A3F84948FFF7D0FC012807D000F010FB80
:10B7E000002807D0052000F097F841E0042000F081
:10B7F00093F83DE04148FEF7E5FF02284DD03F4871
:10B80000FEF7E0FF04284CD03C48FEF7DBFF03289E
:10B810004BD03A48FEF7D6FF06284AD03748FEF705
:10B82000D1FF082849D03548FEF7CCFF052848D07D
:10B830003248FEF7C7FF072847D03048FEF7C2FF5F
:10B84000012846D02D48FEF7BDFF092845D0FCF75A
:10B850002DFF102845D02A48807E012841D0E0786D
:10B86000032805D000F0C2FA0320E07000206070C9
:10B87000E078042839D0FEF79FFF00F0B7FAFDF713
:10B8800079FC002808D10120FDF704FB00F0A0FAA4
:10B89000FEF7A0FFFFF77CFF10BD082000F03CF88A
:10B8A000E6E7092000F038F8E2E70A2000F034F873
:10B8B000DEE70B2000F030F8DAE70C2000F02CF87F
:10B8C000D6E70E2000F028F8D2E70F2000F024F889
:10B8D000CEE70D2000F020F8CAE7102000F01CF899
:10B8E000C6E7072000F018F8C2E7FEF75FFF00F098
:10B8F0006FFAC4E77C2800209228002088280020C6
:10B90000282900200021417081700322C27001703B
:10B91000704700797047000002490422CA7088709D
:10B920007047000038260020014901200860704758
:10B93000009000400149012048607047009000409D
:10B9400010B502F0D7F9002805D00F490D4848601E
:10B95000C8130E49886102F0B5F9002802D00C49DD
:10B960000120886002F012FA00280AD00948016814
:10B97000012904D00849016001680129FCD1C021D6
:10B98000416110BDDFFF07C000050040006C0040B2
:10B990000006004000EC064075930000104A0120AC
:10B9A0005060104900234B6002238B6004230B611D
:10B9B000D0607D210B4A0901403211600A4902041E
:10B9C0004A600A4908600A490868FF221202904347
:10B9D00003229203104308600649D80108607047AB
:10B9E000009000400095004000930040009200400D
:10B9F00008E400E000E100E010B50C46018F090A00
:10BA00002170018F61702030417DA170807DE070D8
:10BA100004212046FFF72EFA207110BD10B50C4608
:10BA2000002121706170C28A120AA270827DE270C8
:10BA300021716171028C120AA271028CE271217271
:10BA40006172418C090AA172408CE0720C2120467F
:10BA5000FFF710FA207310BD00B5428C018C8A42AA
:10BA600011D2E12903D80B468733C38202E00B468B
:10BA7000E03BC382881A502801DD642802DB0120E4
:10BA800000F0D0F900BD8A420FD90B468733C3823C
:10BA9000501AFF210531884203DDFF211931884208
:10BAA000F0DB012000F0BEF900BD012000F0BAF982
:10BAB00000BD000010B50446FEF758FA22462032B9
:10BAC000D07D052804D0062809D007280DD011E024
:10BAD0000620D075204600F099F9002010BD0720FF
:10BAE000D075208EE082002010BD0820D075204641
:10BAF00000F08CF9D07D08283ED120490020C87084
:10BB000000211F4800F0F5F91D4802212030C175C1
:10BB1000872020856085618C208C814212D2E128AB
:10BB200003D802468732E28202E00246E03AE2822D
:10BB3000401A502801DD64281ADB012000F072F958
:10BB4000002010BD814210D902468732E282081AD5
:10BB5000FF210531884203DDFF211931884207DBCF
:10BB6000012000F05FF9002010BD012000F05AF91B
:10BB70000021034800F0BDF9012010BD7C28002001
:10BB800008290020F8B5044676480125C17E002921
:10BB900004D1014620390A8E4A86C576618C208CF4
:10BBA00022462032814271D2238E668E9F1BBC4674
:10BBB0001E373C2F1FD91E2E09D81F46FF3F4A3F74
:10BBC0001F2F04D2F71AFF3768371E2F13DDFF3EF1
:10BBD0004A3E1F2E06D21E2B04D86646FF36683614
:10BBE0001E2E08DD107F411C1177052802D995769D
:10BBF00000201077F8BD638683420AD28B4208D9B1
:10BC0000C21A052A01DC208603E05A1A052AF1DC53
:10BC10002186FF236833E12828D8218EE28A9142C9
:10BC20000AD8814208D3A581501AC101081A872178
:10BC3000FCF7C2FAE08089E091420BD9994209D819
:10BC40000020A081881AC101081A8721FCF7B4FAE4
:10BC5000E0807BE00020A081881AFF306830C101BD
:10BC6000081A8721FCF7A8FAE0806FE0208EE28AAC
:10BC700090420CD988420AD80021A181801AC101C2
:10BC8000081A8721FCF798FAE0805FE014E0904200
:10BC900008D8A581101AC101081A8721FCF78CFA6F
:10BCA000E08053E0A581181A8018C101081A872185
:10BCB000FCF782FAE08049E0814244D9238E668E07
:10BCC0009F1B1D373A2F02D8F61A1E2E08DB107F55
:10BCD000411C117705288DD9957600201077F8BD85
:10BCE0006386834201D38B4210D9834207D20A462E
:10BCF000FF3A693A01D0208608E0218606E08B42AF
:10BD000004D9002801D0218600E02086228EE38A13
:10BD10009A420AD8824208D3A581981AC101081A0A
:10BD20008721FCF749FAE08010E08A420ED89A4257
:10BD30000CD90020A081D01AC101081A8721FCF774
:10BD40003BFAE08002E0012000F06CF8A079FFF7F8
:10BD500077F920817F2801DD7F2020812089608183
:10BD6000F8BD000028290020024600200649497D30
:10BD7000002904D0012901D10C20105E704791895F
:10BD80000029FBD101207047282900200821415EAD
:10BD90000846704710B500224270828001238381DB
:10BDA000022401462031CC75C2804A758B758724E8
:10BDB00004854485048E44860B758A760348C276D2
:10BDC0000A77012000F02EF810BD0000282900207D
:10BDD0000549C87D022803D0032801D0042801D1D9
:10BDE0000020C87570470000282900200348C17D45
:10BDF000002901D10221C1757047000028290020C7
:10BE00000148007870470000082900203721095CAC
:10BE1000062904D0082901D1018E41847047018E82
:10BE2000018470470149087070470000082900200C
:10BE30002030C175704770B506460C460421204677
:10BE4000FFF718F821793546203588420BD1207844
:10BE500000023087617808433087A0786875E07801
:10BE6000A875012070BD002068750220A87500200B
:10BE700070BD70B505460C460C212046FEF7FAFF52
:10BE8000217B884228D12178E07809064018617822
:10BE9000A2780904120289184018E8822179E07911
:10BEA000090640186179A27909041202891840181C
:10BEB0002884217AE07A09064018617AA27A090476
:10BEC00012028918401868840020FFF7ABFF28464B
:10BED000FFF7C2FD012070BD7920E882FF205C30B1
:10BEE0002884FF20053068840120FFF79BFF002095
:10BEF00070BD81707047000010B50A4801680029C4
:10BF00000ED000210160084C6068411C6160FF2177
:10BF1000F531FCF73BF9002902D12068401C206074
:10BF200010BD000040910040C826002070B50120DF
:10BF3000134900048860134800250560124C6068AE
:10BF4000002802D11148FEF7FBFEA5706368104877
:10BF50000122656042600F48416800689503143013
:10BF6000A94205D20325AD03A84201D9627005E0BC
:10BF7000814201D3012000E000206070984770BD2D
:10BF800000A3004040A10040C0270020EC000400B6
:10BF900040A0004040A5004070B51C48416A002503
:10BFA000002903D045621A4A0F211160826818499E
:10BFB000184C8031002A15D085608869C1B260783C
:10BFC000002801D1E52903D1421C62700019817358
:10BFD0006078052805D10F48FCF762FF6570FFF710
:10BFE000EBF970BDC269002A0DD0C5612078052823
:10BFF00005D2421C22700019007AC86170BD2570FC
:10C00000FFF73AFA70BD8560C56170BD0021004040
:10C0100080240040E4270020044801218160054A73
:10C020000349116000218160704700000005014054
:10C030003546526E0006014000B50E480C4941607D
:10C040000021C160C26801210A43C260C26808239E
:10C050001A43C260C268F7231A40C26006480160F2
:10C0600000F00CF80028FBD0FFF7D6FF00BD000061
:10C07000FFFF020000050140000001400348006886
:10C08000002801D0012070470020704700040140C3
:10C0900030B47446641E2578641CAB4200D21D4641
:10C0A000635D5B00E31830BC18470000002805DB27
:10C0B000C106C90E01208840014908607047000090
:10C0C00080E200E0002805DBC106C90E012088409F
:10C0D000014908607047000000E100E0002805DB2E
:10C0E000C106C90E01208840014908607047000060
:10C0F00000E200E08307FF22DB0E9A408907090E69
:10C100009940002808DB830809489B001818036839
:10C1100093430B43036070470007000F0838830800
:10C1200004489B001818C36993430B43C3617047CD
:10C1300000E400E000ED00E002E008C8121F08C1C2
:10C14000002AFAD170477047002001E001C1121F98
:10C15000002AFBD170470000F8B506460D461C4981
:10C160008888401C888000211A486A5C4254491C17
:10C17000C9B21029F9D3164829460C3001F04CFEFB
:10C1800034464034002809D00F2020770090012346
:10C190006A462146304600F04BFBF8BD0C48294664
:10C1A0001C3001F039FE002809D0102020770090C3
:10C1B00001236A462146304600F03AFBF8BD1120C3
:10C1C000009001236A462146304600F031FBF8BD5D
:10C1D0005C260020082A0020F8B504460E461546C5
:10C1E0000020002129702178002906D02A463146F6
:10C1F000204602F0E6F9002869D1A178002905D08F
:10C200002946304600F0D8F9002860D1E1780029AD
:10C210000ED0297802224B1C2B70725429780122EF
:10C220004B1C2B7072542978E2784B1C2B70725483
:10C230006168002907D0002008562A46314605F0DB
:10C2400077FB002843D12189002909D020463346B5
:10C25000062202210830009505F088FC002836D11E
:10C26000218A002909D020463346072203211030B5
:10C27000009505F07BFC002829D1218B002909D0ED
:10C2800020463346152214211830009505F06EFC27
:10C2900000281CD1236A002B06D02A4631461846B6
:10C2A00001F08EF8002812D1636A002B06D02A46CE
:10C2B0003146184602F052F9002808D12C21095DB8
:10C2C000002904D02A463146204604F027FFF8BD55
:10C2D000C078400701D40720704700207047000055
:10C2E00030B5A3B0302117A8FBF793FF022010A9A7
:10C2F000087700248C770625CD7730210BA8FBF733
:10C3000088FF69468D870E481090242102A8FBF70C
:10C3100080FF012008A9087069200001099005200C
:10C320000A90084B02AA0BA917A8009400F0E0FAA3
:10C33000002803D00022114600F054F823B030BD8D
:10C34000A82600202108020070B50024064D06E052
:10C350006968E000085C012102F0A6FA641C2878F4
:10C360008442F5D3002070BD40270020F8B5054673
:10C370000C461646052E01D20720F8BD02F068FBD8
:10C38000002803D102F03AFB0028F6D1114845609D
:10C39000047086600021016141610F4E0DE0E000F4
:10C3A00041193068009088786A46507008780B4AC6
:10C3B000694602F0CDFA0028DFD12046641EE4B2BF
:10C3C0000028ECD10348064A00210C3000F032F876
:10C3D000F8BD000040270020001D02003DDA0100EA
:10C3E00085D501007047000038B50C462178A26859
:10C3F0000C235A43054B9D58054A126A0092024687
:10C40000204608302369A84738BD00008434002046
:10C410001C27002010B5064914230A785A435118E6
:10C42000091DFFF7E1FF042004F040FF10BD0000EC
:10C43000B833002070B5104D6C68002C04D0002A71
:10C4400004D000232D7809E0082070BD072070BDBE
:10C4500024265E43A65D002E04D05B1CAB42F7DBB6
:10C46000042070BD012624255D4366552C1961709A
:10C47000A2610360002070BD58270020FFB581B085
:10C480000A9F0C4616461D46A8070CD0002000281F
:10C490000BD004F027FE22494F610C702B464D60F3
:10C4A000002000220BE00120F1E7072005B0F0BDDD
:10C4B0002427014679435A54C9180A75401CA042E2
:10C4C000F6DB242044436319154F032078701C4683
:10C4D000BB6018330021354618204543C8000019B9
:10C4E0000270427086704360EB18491C0329F5DB2B
:10C4F0000020C043F860BA70FA701520FFF7D6FD2F
:10C5000003211520FFF7F6FD1520FFF7DBFD01984D
:10C5100004F0C4FD0348406838610020C6E700000D
:10C520005827002000150140F8B504460D46164670
:10C5300012484168002906D00078844201D2052DB6
:10C5400003D20720F8BD0820F8BD2046242250431E
:10C550000A5C012A01D00820F8BD40184078012863
:10C5600009D0002705F0BCFA3B462A462146009632
:10C5700005F04AF9F8BD2F46F4E7000058270020DF
:10C5800010B504460B494868002804D009788C424D
:10C5900003D3072010BD082010BD24216143405C57
:10C5A000012801D0082010BD05F09AFA214605F0B7
:10C5B0004BF910BD5827002038B505460C462078A9
:10C5C000001D1F2801D90C2038BD684679DF0028DE
:10C5D000FAD120780322411C21702A542078192294
:10C5E000411C21702A54207841196846008805F0C2
:10C5F000B5F9217840182070002038BDF0B54948C1
:10C600008BB003684849494A012B02D04B6B002B81
:10C6100005D153681B78202B01D8012300E00023AB
:10C62000434D03242C700024404A002B146057D043
:10C6300084688268CA623D4A03A901920091C26877
:10C6400001232146184603F055FE002824D0012876
:10C6500005D0022824D003284FD036484BE0039859
:10C66000002802D03448FEF76BFB204603F094FF0D
:10C67000002802D13148FEF763FB68680222817D01
:10C6800068460026027001960681468144708170DA
:10C69000C67003F0D1FD30E02948FEF751FB2CE0D5
:10C6A0000398002802D12748FEF74AFB204603F0F2
:10C6B00073FF002802D12448FEF742FB686802227B
:10C6C000817D039E6846027000236A4601961381AD
:10C6D0005381447001278170C77003F0ADFD0CE0F9
:10C6E00000200090034602460146019003F002FE3E
:10C6F000042802D01548FEF723FB0C4C20680028C4
:10C7000007D00120607512482061042028700BB00A
:10C71000F0BD03F0C9FB00206075206100F01AF83D
:10C720000BB0F0BD00140040001500403C35002067
:10C73000AC270020C8050900B8050900B9050900A3
:10C74000BD050900C0050900C1050900CF050900A4
:10C75000F1C7010070B503F0A7FB1C4C00251C4E6F
:10C760000120256130701B481B490069086303F0F4
:10C7700019FF00281FD003F015FF032802D0174827
:10C78000FEF7DEFA022003F08BFC002003F002FD2E
:10C7900003F008FF032802D01148FEF7D1FA3078E1
:10C7A000012802D00F48FEF7CBFA022030700E4865
:10C7B0002561E06070BD03F07BFD0228E2D303F049
:10C7C0007DFF60600028DDD10848D9E73C350020B6
:10C7D000AC270020EC340020001500408005090043
:10C7E0008805090092050900FDC501007B050900C7
:10C7F00010B5034905200870FFF7ACFF10BD00001D
:10C80000AC270020704710B500280AD0002908D0B6
:10C810000A88102A06D0112A07D0502A01D104F024
:10C82000EDF810BD04F05CF810BD04F08FF810BDF9
:10C830001FB584B0144B5C78641C5C70002802D176
:10C840000B78002B07D04030838A104CA34204D1D0
:10C85000082008B010BD0E20FBE76B469B8B142B05
:10C8600001D90720F5E70023009301930293039376
:10C8700089896B461980039207A902910121997059
:10C88000808A6946A6DFE4E75C260020FFFF0000FF
:10C8900030B593B005460C46002012901190002D43
:10C8A0000DD02846FFF714FD00281FD112AA09A9B0
:10C8B0002846FFF791FC002818D109AD00E00025BB
:10C8C000002C0DD0204604F033FD00280ED111AA13
:10C8D00001A92046FFF780FC002807D101AA00E04B
:10C8E000002210A80379017A284672DF13B030BD08
:10C8F00070B50D461146049A0446002C41D000291B
:10C900003FD0424800264671C3600261242240485D
:10C91000FBF766FC00F0D0F83D493431084610388A
:10C9200001602031816030215438FBF772FC384AB5
:10C930002078303A1070A0789070E078D0706078ED
:10C9400050706169206951611061E168A068D1602F
:10C9500090601046E369A169C3618161606A002843
:10C9600019D01046A430506203460C338360616ACC
:10C9700009880180606A516A808888800020516A35
:10C9800006E00E2070BD666AB668365C1E54401C18
:10C990008E888642F7D8A06A00281CD01C49AC318A
:10C9A00008460C3881609062A36A9B888380A06AE5
:10C9B000936A008818800020936A04E0A66AB6682B
:10C9C000365C0E54401C9E888642F7D82C20015DB0
:10C9D0000F4810380173206A002809D00B48143022
:10C9E0001062216A49884180206A116A00880880A3
:10C9F0006068002804D00548801D50606068506061
:10CA0000034829463038FFF743FF70BDE426002075
:10CA1000D032002010B50188264C102917D00022F2
:10CA2000112917D0192911D1807900280ED16079E8
:10CA300001281ED0022826D003282ED0042805D194
:10CA400022711046E168002900D0884710BD808817
:10CA5000208110BD6270808821898842F9D101202F
:10CA600000F032F80028F4D021690029F1D088477D
:10CA700010BD022000F028F80028F9D02169002913
:10CA8000F6D0884710BD032000F01EF80028F9D02A
:10CA900021690029F6D0884710BD032020710420A9
:10CAA00000F012F80028F7D021690029F4D0884757
:10CAB00010BD0000E426002010B507210148FBF757
:10CAC000A8FB10BDFC260020F0B587B0764C607145
:10CAD00000250095684604F0CBF8082809D0002806
:10CAE00005D100980127002805D02770002007B045
:10CAF000F0BD0095F5E7FFF7DFFF6C4E707800287A
:10CB000002D06079012805D0B07800280AD0607979
:10CB1000022807D1E168002903D0E7700820884780
:10CB200000E0E570607901280AD17078002805D00E
:10CB30005D48193004F05AF8002801D102206071D4
:10CB4000607902280AD1B078002805D056481930FB
:10CB500004F04CF8002801D103206071307B0028DC
:10CB600004D16079032801D104206071307E00284F
:10CB700004D16079042801D165712571E16800292B
:10CB80000AD06079032801D0042805D13078002824
:10CB900002D06078002817D0A570182101A8FBF7F3
:10CBA00038FB684605710295057304956079012884
:10CBB0000ED0022815D03D4D24352F46543F032872
:10CBC0001BD0042851D13DE0A77007208847E4E737
:10CBD00035481830029068460771C58285822771F2
:10CBE00043E031481830029069460F713089C8829D
:10CBF000B08888820220207137E0B08A6946C882F6
:10CC0000308A88822948243005F016F8002805D09B
:10CC10003078002802D06078002802D003202071EC
:10CC200023E002206946087304950420F8701F4829
:10CC300000213038FFF72CFE002800D057E70520F0
:10CC4000207112E0B08B69468882308CC882174808
:10CC5000243004F0F1FF002805D03078002802D0FD
:10CC6000607800280FD0042020716079002803D05C
:10CC700001A873DF0028E1D1E168002901D0207903
:10CC80008847002033E70220694608730495042092
:10CC9000F870064800213038FFF7FAFD0028F1D17E
:10CCA00006202071E1E70000E4260020D0320020B9
:10CCB00010B500280AD0002908D00A88102A06D00A
:10CCC000112A07D0502A01D103F0C2FE10BD03F093
:10CCD0000DFE10BD03F046FE10BDF0B58FB0064648
:10CCE0000C460025079501200007000F103069460B
:10CCF000087701200007000F10304877887FF9215E
:10CD00000840801C694688771C2108A8FBF781FA37
:10CD1000A0780222102307A9002805D0082701289F
:10CD20000DD0022815D020E008AF38781043184302
:10CD3000387009950B950C950D910E9515E008AA84
:10CD400010783843107009950B950C950D910E9540
:10CD50000BE008A80078384302431A4308A8027081
:10CD600009950B950C950D910E9530786946887153
:10CD700060898880009501200007000F103008703E
:10CD800001200007000F103048708878F921084012
:10CD9000801CF7210840EF210840012738436946ED
:10CDA0008870142102A8FBF734FA01A802906846A3
:10CDB000039069460F824D822089888260680690C0
:10CDC000234670880C3302AA08A9A2DF0FB0F0BD79
:10CDD00070B506461C2231461148FBF701FA114C8A
:10CDE000002525703168002909D00822A018FBF71A
:10CDF000F7F9204608307ADF00280FD104E009480F
:10CE000008307BDF002809D10020C04360806570B6
:10CE10000448054A0021001DFFF70CFB70BD00000F
:10CE20009C330020042700207D1A020010B50188E1
:10CE3000102908D0112909D012290AD0502901D16E
:10CE400003F0B0FE10BD03F069FD10BD03F0C0FD9E
:10CE500010BD03F039FD10BD10B500280AD000291F
:10CE600008D00A88102A06D0112A07D0502A01D1EA
:10CE700003F055FE10BD03F043FD10BD03F08AFD25
:10CE800010BD000010B504462046FFF7CFFF214635
:10CE90000E48FFF7B8FC21460D48FFF7DDFF21469D
:10CEA0000C4800F01FF821460B48FFF701FF214610
:10CEB0000A4800F031F82146094800F099F8204668
:10CEC00003F0B0FC2046FFF7A5FD10BD9829002017
:10CED0004C2F002010310020182A0020502B002059
:10CEE0001430002010B500280CD000290AD0094ABF
:10CEF00011600A88102A06D0112A07D0502A01D1C1
:10CF000003F01CFE10BD03F003FD10BD03F054FD43
:10CF100010BD0000C426002010B500280AD000294A
:10CF200008D00A88102A06D0112A07D0502A01D129
:10CF300003F0BAFD10BD03F0DEFC10BD03F01EFDD2
:10CF400010BD02880B8A9A4202D1028B022A01D0BC
:10CF500000207047827EC07E00020243D007C00FCF
:10CF6000002802D001200870704700200870704728
:10CF700070B504460D462846FBF756F920806560DB
:10CF800070BD00001CB5002348221649092004F09A
:10CF9000A5F9002803D000221146FFF723FA00204C
:10CFA00000900D210902019169460870684660DF12
:10CFB000002803D000221146FFF714FA0A4804F0B3
:10CFC00083F9002803D000221146FFF70BFA074827
:10CFD00004F0A4F9002803D000221146FFF702FA5A
:10CFE0001CBD00009C2C002085CE010045160200CF
:10CFF00010B500280CD000290AD0094A11600A880F
:10D00000102A06D0112A07D0502A01D103F088FD3A
:10D0100010BD03F079FC10BD03F0C2FC10BD000090
:10D02000C026002070B505460C46012C03D12946C8
:10D030000448FBF72BFD002C03D129460148FBF7E0
:10D0400031FD70BD0226002010B5054A01210548BA
:10D05000FFF78CF9FFF778F903490120487010BDFC
:10D060008F0200004C1C0200022600200021C94350
:10D07000044A8300D150042802D3101840300171B3
:10D080007047000090340020F0B50024E443002AEB
:10D0900001D0002300E00423002A01D0042600E090
:10D0A0000A260B4D04E09F00EF597F1C04D05B1C47
:10D0B000B342F8D32046F0BD2E185CB2203634724D
:10D0C0009E00A951002AF5D1E91840310871F1E715
:10D0D00090340020024909182820085670470000A3
:10D0E00090340020FEB534481422017851430C18C6
:10D0F000241DE768A0680C2148432F49CC31401813
:10D10000018901914589466803F066FE014638466B
:10D11000FBF73CF8002936D00020009001986843C6
:10D1200086196088A1884018C5192448002101612A
:10D130000098002804D003F04FFE6188884224D074
:10D140000098002804D0B54202D1A08800281CD045
:10D15000A068022819D003F03FFE0146A088C0193C
:10D16000FBF714F815488908C16003F035FE014645
:10D170002846FBF70BF8002913D00020B54216D043
:10D18000002810D013E00120C7E703F025FE014678
:10D190003846FAF7FBFF09494861032004F086F896
:10D1A000FEBD0120EAE7B1B2A8B204F063FA0220A2
:10D1B00004F07CF8FEBD0000B83300201C270020DE
:10D1C00010B5074814220178514308180079042843
:10D1D00002D000F075F810BD04F0D6F910BD0000C3
:10D1E000B833002010B50C481422017851430818B8
:10D1F0000A4AC18811620079012806D0032807D0A5
:10D20000042801D104F036FC10BD04F0BDF910BDB6
:10D21000FFF768FF10BD0000B83300201C27002076
:10D2200010B503484078002801D0FFF7DBFF10BDA0
:10D23000B833002014225043054A002180180171A0
:10D24000C1800122C260016141610181704700001B
:10D25000B8330020F8B5069E0F4D6C780A2C19D013
:10D260002F783C190A2C00D30A3C14277C436419FC
:10D270002071626103C92161E060E38026816878E2
:10D28000401C687005480078002801D1FFF7AAFF0C
:10D290000020F8BD0420F8BDB83300201C27002072
:10D2A00010B5064900200870487000242046FFF79A
:10D2B000C1FF641C0A2CF9D310BD0000B833002054
:10D2C00010B507481422017851430918091D0020A0
:10D2D000FFF78AF800F006F8002003F0E7FF10BD22
:10D2E000B833002010B5084C2078FFF7A3FF607812
:10D2F000401E60702078401CC0B220700A2801D106
:10D300000020207010BD0000B8330020F1B582B0BD
:10D310001849C868421C29D0242250434A68801802
:10D320004568154E706801900F690198394604F000
:10D33000C7F9C41C0298401C01D103F0B9FEAC42ED
:10D3400000D22C46E0190402240A0B484030046045
:10D350007068019904F0B4F905462046019904F07B
:10D36000AFF9854201D904F0BBFAFEBD03F0BAFE65
:10D37000FEBD000058270020001501400188062945
:10D3800006D31923DB010D4A994203D9914201D0FA
:10D39000072070474088062803D3984203D990425B
:10D3A00001D007207047914205D0904203D08142BE
:10D3B00001D907207047002070470000FFFF0000E0
:10D3C00070B506460D4614462078801D1F2801D9E9
:10D3D0000C2070BD3046FFF7D1FF0028F9D120782E
:10D3E0000522411C21702A5420781222411C2170F0
:10D3F0002A5420784119308804F0B0FA2178401876
:10D40000C0B220704119708804F0A8FA2178401841
:10D410002070002070BD10B500221146FEF7E2FF1B
:10D4200010BD000000B587B01C216846FAF7F1FE78
:10D43000002000900521C90301910F2109040291E8
:10D4400003216A461173D08110740748059007487C
:10D4500006906846FFF7BCFC002803D00022114666
:10D46000FEF7C0FF07B000BDA508020017D40100F9
:10D47000F8B5164800F018FC144D0026103D144C69
:10D48000002808D06169002903D001200090684677
:10D4900088472E70F8BD2878002806D061690029D9
:10D4A000F7D0009668468847F3E7687800280BD0E5
:10D4B000A16800226868FFF737F80028E9D0A16961
:10D4C0000029E6D08847E4E76168F2E714270020E6
:10D4D0009C33002010B5164C2079000725D46069D4
:10D4E000401C6061E068002803D0042004F0A2F82A
:10D4F00010BD00F029FC002803D0022004F09AF8A7
:10D5000010BD206900280DD06068C10703D003203A
:10D5100004F090F810BD012108436060002004F081
:10D5200089F810BD04F062F810BD04F06DF810BD6C
:10D530001C27002010B508494868020708D4820754
:10D5400002D5012210434860022004F073F810BD98
:10D5500004F05AF810BD00001C2700200022064BE2
:10D5600006E00021491C89B29942FBD3521C92B2B9
:10D570008242F6D370470000280A000010B5FAF77F
:10D58000A9FD10BDF8B50025154F24E07968E80025
:10D59000441820780126314681407A69114218D01A
:10D5A0008A437A6101F01EFA014620783A69864082
:10D5B00016400A46824096420BD16278012A01D079
:10D5C000012200E000224A406368002B01D0D1B262
:10D5D00098476D1CEDB238788542D7D3F8BD00006E
:10D5E00040270020F0B5454885B00068012803D0E9
:10D5F0004348406B002806D1424840680078202804
:10D6000001D8012500E000253F4C01266069002873
:10D6100004D101F00DFC002800D1666102F0C2FFC8
:10D62000012802D03948FDF78BFB39484068007D5E
:10D63000002802D03748FDF783FB02F035FC002DAF
:10D6400057D00121084602F01FFF052840D20100F3
:10D650007944097949188F4402381D383800002769
:10D6600002F08EFF0390A689E58902F08FFF024643
:10D67000274869464068837D0F7003990191694688
:10D680000E814D814A7000208B70C870684602F090
:10D69000D3FD1DE0002702F073FF0390A689E58902
:10D6A00002F074FF02461A4869464068837D0F7095
:10D6B0000399019169460E814D814A7001208B705A
:10D6C000C870684602F0B8FD02E01348FDF738FB69
:10D6D00001F05EF8206111481149426962602378C7
:10D6E000022B01D0002A06D0C0680860002001F09B
:10D6F00083F805B0F0BD8068F7E700000014004033
:10D70000001500403C35002020350020A806090007
:10D71000AC270020A9060900C8060900EC34002047
:10D72000543500207047000030B50D4B0024997827
:10D73000DA78914211D08A001D461835AA58026045
:10D74000491CC8B29870022800D19C701869101842
:10D750000002000A1861012030BD0460002030BDC5
:10D760005827002010B50A4C207900070DD46069B5
:10D77000401C606100F0E8FA002803D0207803F034
:10D7800095FD10BDFFF71CFD10BD00F0DBFE10BDC8
:10D790001C270020F0B500241CE024237E686B4386
:10D7A0009B195E68864203D95968081A5860F0BD13
:10D7B000801B341900265E601E751E6AFE601E699D
:10D7C000002E07D00F193F023F0A9F60DE601668E7
:10D7D0001E621560024FFD686B1CDED1F0BD0000BB
:10D7E0005827002010B5002803D0112802D0FEF7DA
:10D7F00011FE10BD0248082241681143416010BD6E
:10D800001C27002010B50A498869401C886103283C
:10D8100009D00878022802D003F048FD10BD4878EE
:10D8200003F008FF10BD0D20FEF7F4FD10BD000051
:10D830001C27002010B508480078012806D00228CF
:10D8400007D0032801D1FFF78DFF10BD03F0A2FE22
:10D8500010BD03F0E5FE10BD1C27002010B528DF29
:10D86000FFF7C0FF10BD10B529DFFFF7BBFF10BDEC
:10D870000EB501200007000F1030009007220FA105
:10D8800068467CDF002803D000221146FEF7AAFD7F
:10D890000020019002901020694688801820C880DE
:10D8A00002200881FF209130488101A87ADF0028FA
:10D8B00003D000221146FEF795FD0EBD45505F4E88
:10D8C0004156590010B500F08BFB08484EDF002888
:10D8D00008D100F085FB064850DF0446200002D046
:10D8E0004FDF204610BD002010BD000075E3010091
:10D8F00058290020F8B5244FB888401C84B2BC8059
:10D90000204601253E460C36757020494D70062193
:10D91000FAF73CFC002900D1B570FF214E312046BA
:10D92000FAF734FC0026002902D1BE80FDF70AFC7C
:10D930001748FDF7EEFF174C022821D0207D27461F
:10D94000203F01280ED1FBF715FC012800D0002054
:10D95000B978012900D00021084303D0FDF7E4FF86
:10D960002675F8BD207D0028FBD1FBF703FC0028BD
:10D97000F7D1B8780028F4D1FDF7DCFF2575F8BDA4
:10D98000FDF7D2FF2675F8BD9826002092280020CA
:10D99000382600202829002030B5234D83B0687E2A
:10D9A00000283AD001F0E4F9002401280CD001F05D
:10D9B00029FA1E48007F002802D101208107486013
:10D9C000002002F01FFF6C6002F06EFAAC706C7603
:10D9D000052168460170019404814481447084707B
:10D9E000C47002F029FC12481249047003208860B8
:10D9F00002F0D8FD012812D0022810D003280CD143
:10DA0000002300941A4619461846019402F072FC4D
:10DA1000042802D00848FDF793F903B030BD002177
:10DA2000084602F031FDF3E720350020EC340020F9
:10DA3000AC27002000F50140E801090070B506465A
:10DA40000124B440104DE868FEF79AFD00280DD17E
:10DA50006969214208D1304600F0C4FF002806D091
:10DA600028692043286105E0A143696170BD2869E8
:10DA7000A04328616869204368610022A968E868BA
:10DA8000FEF752FD70BD00004027002001490978D3
:10DA900001707047641C0200F7B588B0074616464F
:10DAA0002248234D0078002815D0012819D00228DB
:10DAB00039D110221F4904A8FAF792FB0D22691DE3
:10DAC00004A8FAF78DFB002400226846052C11D229
:10DAD000295D01550FE01022164904A8FAF780FBD2
